{
  "contractName": "ClockAuction",
  "abi": [
    {
      "constant": false,
      "inputs": [],
      "name": "unpause",
      "outputs": [],
      "payable": false,
      "stateMutability": "nonpayable",
      "type": "function"
    },
    {
      "constant": true,
      "inputs": [],
      "name": "paused",
      "outputs": [
        {
          "name": "",
          "type": "bool"
        }
      ],
      "payable": false,
      "stateMutability": "view",
      "type": "function"
    },
    {
      "constant": false,
      "inputs": [],
      "name": "renounceOwnership",
      "outputs": [],
      "payable": false,
      "stateMutability": "nonpayable",
      "type": "function"
    },
    {
      "constant": true,
      "inputs": [],
      "name": "ownerCut",
      "outputs": [
        {
          "name": "",
          "type": "uint256"
        }
      ],
      "payable": false,
      "stateMutability": "view",
      "type": "function"
    },
    {
      "constant": false,
      "inputs": [],
      "name": "pause",
      "outputs": [],
      "payable": false,
      "stateMutability": "nonpayable",
      "type": "function"
    },
    {
      "constant": true,
      "inputs": [],
      "name": "owner",
      "outputs": [
        {
          "name": "",
          "type": "address"
        }
      ],
      "payable": false,
      "stateMutability": "view",
      "type": "function"
    },
    {
      "constant": true,
      "inputs": [],
      "name": "nonFungibleContract",
      "outputs": [
        {
          "name": "",
          "type": "address"
        }
      ],
      "payable": false,
      "stateMutability": "view",
      "type": "function"
    },
    {
      "constant": false,
      "inputs": [
        {
          "name": "_newOwner",
          "type": "address"
        }
      ],
      "name": "transferOwnership",
      "outputs": [],
      "payable": false,
      "stateMutability": "nonpayable",
      "type": "function"
    },
    {
      "inputs": [
        {
          "name": "_nftAddress",
          "type": "address"
        },
        {
          "name": "_cut",
          "type": "uint256"
        }
      ],
      "payable": false,
      "stateMutability": "nonpayable",
      "type": "constructor"
    },
    {
      "anonymous": false,
      "inputs": [
        {
          "indexed": false,
          "name": "tokenId",
          "type": "uint256"
        },
        {
          "indexed": false,
          "name": "startingPrice",
          "type": "uint256"
        },
        {
          "indexed": false,
          "name": "endingPrice",
          "type": "uint256"
        },
        {
          "indexed": false,
          "name": "duration",
          "type": "uint256"
        }
      ],
      "name": "AuctionCreated",
      "type": "event"
    },
    {
      "anonymous": false,
      "inputs": [
        {
          "indexed": false,
          "name": "tokenId",
          "type": "uint256"
        },
        {
          "indexed": false,
          "name": "totalPrice",
          "type": "uint256"
        },
        {
          "indexed": false,
          "name": "winner",
          "type": "address"
        }
      ],
      "name": "AuctionSuccessful",
      "type": "event"
    },
    {
      "anonymous": false,
      "inputs": [
        {
          "indexed": false,
          "name": "tokenId",
          "type": "uint256"
        }
      ],
      "name": "AuctionCancelled",
      "type": "event"
    },
    {
      "anonymous": false,
      "inputs": [],
      "name": "Pause",
      "type": "event"
    },
    {
      "anonymous": false,
      "inputs": [],
      "name": "Unpause",
      "type": "event"
    },
    {
      "anonymous": false,
      "inputs": [
        {
          "indexed": true,
          "name": "previousOwner",
          "type": "address"
        }
      ],
      "name": "OwnershipRenounced",
      "type": "event"
    },
    {
      "anonymous": false,
      "inputs": [
        {
          "indexed": true,
          "name": "previousOwner",
          "type": "address"
        },
        {
          "indexed": true,
          "name": "newOwner",
          "type": "address"
        }
      ],
      "name": "OwnershipTransferred",
      "type": "event"
    },
    {
      "constant": false,
      "inputs": [],
      "name": "withdrawBalance",
      "outputs": [],
      "payable": false,
      "stateMutability": "nonpayable",
      "type": "function"
    },
    {
      "constant": false,
      "inputs": [
        {
          "name": "_tokenId",
          "type": "uint256"
        },
        {
          "name": "_startingPrice",
          "type": "uint256"
        },
        {
          "name": "_endingPrice",
          "type": "uint256"
        },
        {
          "name": "_duration",
          "type": "uint256"
        },
        {
          "name": "_seller",
          "type": "address"
        }
      ],
      "name": "createAuction",
      "outputs": [],
      "payable": false,
      "stateMutability": "nonpayable",
      "type": "function"
    },
    {
      "constant": false,
      "inputs": [
        {
          "name": "_tokenId",
          "type": "uint256"
        }
      ],
      "name": "bid",
      "outputs": [],
      "payable": true,
      "stateMutability": "payable",
      "type": "function"
    },
    {
      "constant": false,
      "inputs": [
        {
          "name": "_tokenId",
          "type": "uint256"
        }
      ],
      "name": "cancelAuction",
      "outputs": [],
      "payable": false,
      "stateMutability": "nonpayable",
      "type": "function"
    },
    {
      "constant": false,
      "inputs": [
        {
          "name": "_tokenId",
          "type": "uint256"
        }
      ],
      "name": "cancelAuctionWhenPaused",
      "outputs": [],
      "payable": false,
      "stateMutability": "nonpayable",
      "type": "function"
    },
    {
      "constant": true,
      "inputs": [
        {
          "name": "_tokenId",
          "type": "uint256"
        }
      ],
      "name": "getAuction",
      "outputs": [
        {
          "name": "seller",
          "type": "address"
        },
        {
          "name": "startingPrice",
          "type": "uint256"
        },
        {
          "name": "endingPrice",
          "type": "uint256"
        },
        {
          "name": "duration",
          "type": "uint256"
        },
        {
          "name": "startedAt",
          "type": "uint256"
        }
      ],
      "payable": false,
      "stateMutability": "view",
      "type": "function"
    },
    {
      "constant": true,
      "inputs": [
        {
          "name": "_tokenId",
          "type": "uint256"
        }
      ],
      "name": "getCurrentPrice",
      "outputs": [
        {
          "name": "",
          "type": "uint256"
        }
      ],
      "payable": false,
      "stateMutability": "view",
      "type": "function"
    }
  ],
  "bytecode": "0x60806040526000805460a060020a60ff021916905534801561002057600080fd5b50604051604080610e9683398101604052805160209091015160008054600160a060020a0319163317815561271082111561005a57600080fd5b5060025560018054600160a060020a031916600160a060020a0392909216919091179055610e098061008d6000396000f3006080604052600436106100da5763ffffffff7c010000000000000000000000000000000000000000000000000000000060003504166327ebe40a81146100df5780633f4ba83a1461010e578063454a2ab3146101235780635c975abb1461012e5780635fd8c71014610157578063715018a61461016c57806378bd79351461018157806383b5ff8b146101ce5780638456cb59146101f5578063878eb3681461020a5780638da5cb5b1461022257806396b5a75514610253578063c55d0f561461026b578063dd1b7a0f14610283578063f2fde38b14610298575b600080fd5b3480156100eb57600080fd5b5061010c600435602435604435606435600160a060020a03608435166102b9565b005b34801561011a57600080fd5b5061010c6103c6565b61010c60043561043c565b34801561013a57600080fd5b5061014361046b565b604080519115158252519081900360200190f35b34801561016357600080fd5b5061010c61047b565b34801561017857600080fd5b5061010c6104d8565b34801561018d57600080fd5b50610199600435610544565b60408051600160a060020a03909616865260208601949094528484019290925260608401526080830152519081900360a00190f35b3480156101da57600080fd5b506101e36105da565b60408051918252519081900360200190f35b34801561020157600080fd5b5061010c6105e0565b34801561021657600080fd5b5061010c60043561065b565b34801561022e57600080fd5b506102376106c8565b60408051600160a060020a039092168252519081900360200190f35b34801561025f57600080fd5b5061010c6004356106d7565b34801561027757600080fd5b506101e3600435610721565b34801561028f57600080fd5b50610237610753565b3480156102a457600080fd5b5061010c600160a060020a0360043516610762565b6102c1610daf565b60005460a060020a900460ff16156102d857600080fd5b6fffffffffffffffffffffffffffffffff851685146102f657600080fd5b6fffffffffffffffffffffffffffffffff8416841461031457600080fd5b67ffffffffffffffff8316831461032a57600080fd5b6103343387610782565b151561033f57600080fd5b610349338761082b565b60a06040519081016040528083600160a060020a03168152602001866fffffffffffffffffffffffffffffffff168152602001856fffffffffffffffffffffffffffffffff1681526020018467ffffffffffffffff1681526020014267ffffffffffffffff1681525090506103be86826108b3565b505050505050565b600054600160a060020a031633146103dd57600080fd5b60005460a060020a900460ff1615156103f557600080fd5b6000805474ff0000000000000000000000000000000000000000191681556040517f7805862f689e2f13df9f062ff482ad3ad112aca9e0847911ed832e158c525b339190a1565b60005460a060020a900460ff161561045357600080fd5b61045d8134610a07565b506104683382610b2d565b50565b60005460a060020a900460ff1681565b60015460008054600160a060020a0392831692163314806104a4575033600160a060020a038316145b15156104af57600080fd5b604051600160a060020a03831690303180156108fc02916000818181858888f150505050505050565b600054600160a060020a031633146104ef57600080fd5b60008054604051600160a060020a03909116917ff8df31144d9c2f0f6b59d69b8b98abd5459d07f2742c4df920b25aae33c6482091a26000805473ffffffffffffffffffffffffffffffffffffffff19169055565b6000818152600360205260408120819081908190819061056381610ba1565b151561056e57600080fd5b80546001820154600290920154600160a060020a03909116986fffffffffffffffffffffffffffffffff8084169950700100000000000000000000000000000000909304909216965067ffffffffffffffff808216965068010000000000000000909104169350915050565b60025481565b600054600160a060020a031633146105f757600080fd5b60005460a060020a900460ff161561060e57600080fd5b6000805474ff0000000000000000000000000000000000000000191660a060020a1781556040517f6985a02210a168e66602d3235cb6db0e70f92b3ba4d376a33c0f3d9434bff6259190a1565b6000805460a060020a900460ff16151561067457600080fd5b600054600160a060020a0316331461068b57600080fd5b5060008181526003602052604090206106a381610ba1565b15156106ae57600080fd5b80546106c4908390600160a060020a0316610bc2565b5050565b600054600160a060020a031681565b6000818152600360205260408120906106ef82610ba1565b15156106fa57600080fd5b508054600160a060020a031633811461071257600080fd5b61071c8382610bc2565b505050565b600081815260036020526040812061073881610ba1565b151561074357600080fd5b61074c81610c0c565b9392505050565b600154600160a060020a031681565b600054600160a060020a0316331461077957600080fd5b61046881610c9c565b600154604080517f6352211e000000000000000000000000000000000000000000000000000000008152600481018490529051600092600160a060020a0380871693911691636352211e9160248082019260209290919082900301818887803b1580156107ee57600080fd5b505af1158015610802573d6000803e3d6000fd5b505050506040513d602081101561081857600080fd5b5051600160a060020a0316149392505050565b600154604080517f23b872dd000000000000000000000000000000000000000000000000000000008152600160a060020a03858116600483015230602483015260448201859052915191909216916323b872dd91606480830192600092919082900301818387803b15801561089f57600080fd5b505af11580156103be573d6000803e3d6000fd5b603c816060015167ffffffffffffffff16101515156108d157600080fd5b60008281526003602090815260409182902083518154600160a060020a0390911673ffffffffffffffffffffffffffffffffffffffff1990911617815581840151600182018054858701516fffffffffffffffffffffffffffffffff90811670010000000000000000000000000000000081029482166fffffffffffffffffffffffffffffffff19909316831790911693909317909155606080870151600290940180546080808a015167ffffffffffffffff90811668010000000000000000026fffffffffffffffff0000000000000000199190981667ffffffffffffffff1990931683171696909617909155865189815295860192909252848601929092529083015291517fa9c8dfcda5664a5a124c713e386da27de87432d5b668e79458501eb296389ba7929181900390910190a15050565b60008281526003602052604081208180808080610a2386610ba1565b1515610a2e57600080fd5b610a3786610c0c565b945084881015610a4657600080fd5b8554600160a060020a03169350610a5c89610d19565b6000851115610aae57610a6e85610d66565b6040519093508386039250600160a060020a0385169083156108fc029084906000818181858888f19350505050158015610aac573d6000803e3d6000fd5b505b5060405184880390339082156108fc029083906000818181858888f19350505050158015610ae0573d6000803e3d6000fd5b50604080518a815260208101879052338183015290517f4fcc30d90a842164dd58501ab874a101a3749c3d4747139cefe7c876f4ccebd29181900360600190a15092979650505050505050565b600154604080517f23b872dd000000000000000000000000000000000000000000000000000000008152306004820152600160a060020a03858116602483015260448201859052915191909216916323b872dd91606480830192600092919082900301818387803b15801561089f57600080fd5b6002015460006801000000000000000090910467ffffffffffffffff161190565b610bcb82610d19565b610bd58183610b2d565b6040805183815290517f2809c7e17bf978fbc7194c0a694b638c4215e9140cacc6c38ca36010b45697df9181900360200190a15050565b6002810154600090819068010000000000000000900467ffffffffffffffff16421115610c525750600282015468010000000000000000900467ffffffffffffffff1642035b6001830154600284015461074c916fffffffffffffffffffffffffffffffff80821692700100000000000000000000000000000000909204169067ffffffffffffffff1684610d72565b600160a060020a0381161515610cb157600080fd5b60008054604051600160a060020a03808516939216917f8be0079c531659141344cd1fd0a4f28419497f9722a3daafe3b4186f6b6457e091a36000805473ffffffffffffffffffffffffffffffffffffffff1916600160a060020a0392909216919091179055565b6000908152600360205260408120805473ffffffffffffffffffffffffffffffffffffffff19168155600181019190915560020180546fffffffffffffffffffffffffffffffff19169055565b60025461271091020490565b6000808080858510610d8657869350610da4565b878703925085858402811515610d9857fe5b05915081880190508093505b505050949350505050565b6040805160a081018252600080825260208201819052918101829052606081018290526080810191909152905600a165627a7a7230582038e10799abe7f597da7e9ac795c49383d57b5819c388a8244239709c1350f0110029",
  "source": "pragma solidity ^0.4.24;\r\n\r\n// This is a simple Auction to sell ERC721 token \r\n// (not a Dutch one))\r\n// \r\n// Modified this a bit - \r\n// https://github.com/cryptocopycats/awesome-cryptokitties/blob/master/contracts/KittyAuction.sol \r\n\r\nimport \"zeppelin-solidity/contracts/token/ERC721/ERC721.sol\";\r\nimport \"zeppelin-solidity/contracts/lifecycle/Pausable.sol\";\r\n\r\n/// @title Auction Core\r\n/// @dev Contains models, variables, and internal methods for the auction.\r\n/// @notice We omit a fallback function to prevent accidental sends to this contract.\r\ncontract ClockAuctionBase {\r\n\t// Represents an auction on an NFT\r\n\tstruct Auction {\r\n\t\t// Current owner of NFT\r\n\t\taddress seller;\r\n\t\t// Price (in wei) at beginning of auction\r\n\t\tuint128 startingPrice;\r\n\t\t// Price (in wei) at end of auction\r\n\t\tuint128 endingPrice;\r\n\t\t// Duration (in seconds) of auction\r\n\t\tuint64 duration;\r\n\t\t// Time when auction started\r\n\t\t// NOTE: 0 if this auction has been concluded\r\n\t\tuint64 startedAt;\r\n\t}\r\n\r\n\t// Reference to contract tracking NFT ownership\r\n\tERC721 public nonFungibleContract;\r\n\r\n\t// Cut owner takes on each auction, measured in basis points (1/100 of a percent).\r\n\t// Values 0-10,000 map to 0%-100%\r\n\tuint256 public ownerCut;\r\n\r\n\t// Map from token ID to their corresponding auction.\r\n\tmapping (uint256 => Auction) tokenIdToAuction;\r\n\r\n\tevent AuctionCreated(uint256 tokenId, uint256 startingPrice, uint256 endingPrice, uint256 duration);\r\n\tevent AuctionSuccessful(uint256 tokenId, uint256 totalPrice, address winner);\r\n\tevent AuctionCancelled(uint256 tokenId);\r\n\r\n\t/// @dev Returns true if the claimant owns the token.\r\n\t/// @param _claimant - Address claiming to own the token.\r\n\t/// @param _tokenId - ID of token whose ownership to verify.\r\n\tfunction _owns(address _claimant, uint256 _tokenId) internal view returns (bool) {\r\n\t\treturn (nonFungibleContract.ownerOf(_tokenId) == _claimant);\r\n\t}\r\n\r\n\t/// @dev Escrows the NFT, assigning ownership to this contract.\r\n\t/// Throws if the escrow fails.\r\n\t/// @param _owner - Current owner address of token to escrow.\r\n\t/// @param _tokenId - ID of token whose approval to verify.\r\n\tfunction _escrow(address _owner, uint256 _tokenId) internal {\r\n\t\t// it will throw if transfer fails\r\n\t\tnonFungibleContract.transferFrom(_owner, this, _tokenId);\r\n\t}\r\n\r\n\t/// @dev Transfers an NFT owned by this contract to another address.\r\n\t/// Returns true if the transfer succeeds.\r\n\t/// @param _receiver - Address to transfer NFT to.\r\n\t/// @param _tokenId - ID of token to transfer.\r\n\tfunction _transfer(address _receiver, uint256 _tokenId) internal {\r\n\t\t// it will throw if transfer fails\r\n\t\tnonFungibleContract.transferFrom(this, _receiver, _tokenId);\r\n\t}\r\n\r\n\t/// @dev Adds an auction to the list of open auctions. Also fires the\r\n\t///  AuctionCreated event.\r\n\t/// @param _tokenId The ID of the token to be put on auction.\r\n\t/// @param _auction Auction to add.\r\n\tfunction _addAuction(uint256 _tokenId, Auction _auction) internal {\r\n\t\t// Require that all auctions have a duration of\r\n\t\t// at least one minute. (Keeps our math from getting hairy!)\r\n\t\trequire(_auction.duration >= 1 minutes);\r\n\r\n\t\ttokenIdToAuction[_tokenId] = _auction;\r\n\r\n\t\tAuctionCreated(\r\n\t\t\tuint256(_tokenId),\r\n\t\t\tuint256(_auction.startingPrice),\r\n\t\t\tuint256(_auction.endingPrice),\r\n\t\t\tuint256(_auction.duration)\r\n\t\t);\r\n\t}\r\n\r\n\t/// @dev Cancels an auction unconditionally.\r\n\tfunction _cancelAuction(uint256 _tokenId, address _seller) internal {\r\n\t\t_removeAuction(_tokenId);\r\n\t\t_transfer(_seller, _tokenId);\r\n\t\tAuctionCancelled(_tokenId);\r\n\t}\r\n\r\n\t/// @dev Computes the price and transfers winnings.\r\n\t/// Does NOT transfer ownership of token.\r\n\tfunction _bid(uint256 _tokenId, uint256 _bidAmount)\r\n\tinternal\r\n\treturns (uint256)\r\n\t{\r\n\t\t// Get a reference to the auction struct\r\n\t\tAuction storage auction = tokenIdToAuction[_tokenId];\r\n\r\n\t\t// Explicitly check that this auction is currently live.\r\n\t\t// (Because of how Ethereum mappings work, we can't just count\r\n\t\t// on the lookup above failing. An invalid _tokenId will just\r\n\t\t// return an auction object that is all zeros.)\r\n\t\trequire(_isOnAuction(auction));\r\n\r\n\t\t// Check that the bid is greater than or equal to the current price\r\n\t\tuint256 price = _currentPrice(auction);\r\n\t\trequire(_bidAmount >= price);\r\n\r\n\t\t// Grab a reference to the seller before the auction struct\r\n\t\t// gets deleted.\r\n\t\taddress seller = auction.seller;\r\n\r\n\t\t// The bid is good! Remove the auction before sending the fees\r\n\t\t// to the sender so we can't have a reentrancy attack.\r\n\t\t_removeAuction(_tokenId);\r\n\r\n\t\t// Transfer proceeds to seller (if there are any!)\r\n\t\tif (price > 0) {\r\n\t\t\t// Calculate the auctioneer's cut.\r\n\t\t\t// (NOTE: _computeCut() is guaranteed to return a\r\n\t\t\t// value <= price, so this subtraction can't go negative.)\r\n\t\t\tuint256 auctioneerCut = _computeCut(price);\r\n\t\t\tuint256 sellerProceeds = price - auctioneerCut;\r\n\r\n\t\t\t// NOTE: Doing a transfer() in the middle of a complex\r\n\t\t\t// method like this is generally discouraged because of\r\n\t\t\t// reentrancy attacks and DoS attacks if the seller is\r\n\t\t\t// a contract with an invalid fallback function. We explicitly\r\n\t\t\t// guard against reentrancy attacks by removing the auction\r\n\t\t\t// before calling transfer(), and the only thing the seller\r\n\t\t\t// can DoS is the sale of their own asset! (And if it's an\r\n\t\t\t// accident, they can call cancelAuction(). )\r\n\t\t\tseller.transfer(sellerProceeds);\r\n\t\t}\r\n\r\n\t\t// Calculate any excess funds included with the bid. If the excess\r\n\t\t// is anything worth worrying about, transfer it back to bidder.\r\n\t\t// NOTE: We checked above that the bid amount is greater than or\r\n\t\t// equal to the price so this cannot underflow.\r\n\t\tuint256 bidExcess = _bidAmount - price;\r\n\r\n\t\t// Return the funds. Similar to the previous transfer, this is\r\n\t\t// not susceptible to a re-entry attack because the auction is\r\n\t\t// removed before any transfers occur.\r\n\t\tmsg.sender.transfer(bidExcess);\r\n\r\n\t\t// Tell the world!\r\n\t\tAuctionSuccessful(_tokenId, price, msg.sender);\r\n\r\n\t\treturn price;\r\n\t}\r\n\r\n\t/// @dev Removes an auction from the list of open auctions.\r\n\t/// @param _tokenId - ID of NFT on auction.\r\n\tfunction _removeAuction(uint256 _tokenId) internal {\r\n\t\tdelete tokenIdToAuction[_tokenId];\r\n\t}\r\n\r\n\t/// @dev Returns true if the NFT is on auction.\r\n\t/// @param _auction - Auction to check.\r\n\tfunction _isOnAuction(Auction storage _auction) internal view returns (bool) {\r\n\t\treturn (_auction.startedAt > 0);\r\n\t}\r\n\r\n\t/// @dev Returns current price of an NFT on auction. Broken into two\r\n\t///  functions (this one, that computes the duration from the auction\r\n\t///  structure, and the other that does the price computation) so we\r\n\t///  can easily test that the price computation works correctly.\r\n\tfunction _currentPrice(Auction storage _auction)\r\n\tinternal\r\n\tview\r\n\treturns (uint256)\r\n\t{\r\n\t\tuint256 secondsPassed = 0;\r\n\r\n\t\t// A bit of insurance against negative values (or wraparound).\r\n\t\t// Probably not necessary (since Ethereum guarnatees that the\r\n\t\t// now variable doesn't ever go backwards).\r\n\t\tif (now > _auction.startedAt) {\r\n\t\t\tsecondsPassed = now - _auction.startedAt;\r\n\t\t}\r\n\r\n\t\treturn _computeCurrentPrice(\r\n\t\t\t_auction.startingPrice,\r\n\t\t\t_auction.endingPrice,\r\n\t\t\t_auction.duration,\r\n\t\t\tsecondsPassed\r\n\t\t);\r\n\t}\r\n\r\n\t/// @dev Computes the current price of an auction. Factored out\r\n\t///  from _currentPrice so we can run extensive unit tests.\r\n\t///  When testing, make this function public and turn on\r\n\t///  `Current price computation` test suite.\r\n\tfunction _computeCurrentPrice(\r\n\t\tuint256 _startingPrice,\r\n\t\tuint256 _endingPrice,\r\n\t\tuint256 _duration,\r\n\t\tuint256 _secondsPassed\r\n\t)\r\n\tinternal\r\n\tpure\r\n\treturns (uint256)\r\n\t{\r\n\t\t// NOTE: We don't use SafeMath (or similar) in this function because\r\n\t\t//  all of our public functions carefully cap the maximum values for\r\n\t\t//  time (at 64-bits) and currency (at 128-bits). _duration is\r\n\t\t//  also known to be non-zero (see the require() statement in\r\n\t\t//  _addAuction())\r\n\t\tif (_secondsPassed >= _duration) {\r\n\t\t\t// We've reached the end of the dynamic pricing portion\r\n\t\t\t// of the auction, just return the end price.\r\n\t\t\treturn _endingPrice;\r\n\t\t} else {\r\n\t\t\t// Starting price can be higher than ending price (and often is!), so\r\n\t\t\t// this delta can be negative.\r\n\t\t\tint256 totalPriceChange = int256(_endingPrice) - int256(_startingPrice);\r\n\r\n\t\t\t// This multiplication can't overflow, _secondsPassed will easily fit within\r\n\t\t\t// 64-bits, and totalPriceChange will easily fit within 128-bits, their product\r\n\t\t\t// will always fit within 256-bits.\r\n\t\t\tint256 currentPriceChange = totalPriceChange * int256(_secondsPassed) / int256(_duration);\r\n\r\n\t\t\t// currentPriceChange can be negative, but if so, will have a magnitude\r\n\t\t\t// less that _startingPrice. Thus, this result will always end up positive.\r\n\t\t\tint256 currentPrice = int256(_startingPrice) + currentPriceChange;\r\n\r\n\t\t\treturn uint256(currentPrice);\r\n\t\t}\r\n\t}\r\n\r\n\t/// @dev Computes owner's cut of a sale.\r\n\t/// @param _price - Sale price of NFT.\r\n\tfunction _computeCut(uint256 _price) internal view returns (uint256) {\r\n\t\t// NOTE: We don't use SafeMath (or similar) in this function because\r\n\t\t//  all of our entry functions carefully cap the maximum values for\r\n\t\t//  currency (at 128-bits), and ownerCut <= 10000 (see the require()\r\n\t\t//  statement in the ClockAuction constructor). The result of this\r\n\t\t//  function is always guaranteed to be <= _price.\r\n\t\treturn _price * ownerCut / 10000;\r\n\t}\r\n}\r\n\r\n/// @title Clock auction for non-fungible tokens.\r\n/// @notice We omit a fallback function to prevent accidental sends to this contract.\r\ncontract ClockAuction is Pausable, ClockAuctionBase {\r\n\t/// @dev The ERC-165 interface signature for ERC-721.\r\n\t///  Ref: https://github.com/ethereum/EIPs/issues/165\r\n\t///  Ref: https://github.com/ethereum/EIPs/issues/721\r\n\t//bytes4 constant InterfaceSignature_ERC721 = bytes4(0x9a20483d);\r\n\r\n\t/// @dev Constructor creates a reference to the NFT ownership contract\r\n\t///  and verifies the owner cut is in the valid range.\r\n\t/// @param _nftAddress - address of a deployed contract implementing\r\n\t///  the Nonfungible Interface.\r\n\t/// @param _cut - percent cut the owner takes on each auction, must be\r\n\t///  between 0-10,000.\r\n\tfunction ClockAuction(address _nftAddress, uint256 _cut) public {\r\n\t\trequire(_cut <= 10000);\r\n\t\townerCut = _cut;\r\n\r\n\t\tERC721 candidateContract = ERC721(_nftAddress);\r\n\t\t// removed that check\r\n\t\t//require(candidateContract.supportsInterface(InterfaceSignature_ERC721));\r\n\t\tnonFungibleContract = candidateContract;\r\n\t}\r\n\r\n\t/// @dev Remove all Ether from the contract, which is the owner's cuts\r\n\t///  as well as any Ether sent directly to the contract address.\r\n\t///  Always transfers to the NFT contract, but can be called either by\r\n\t///  the owner or the NFT contract.\r\n\tfunction withdrawBalance() external {\r\n\t\taddress nftAddress = address(nonFungibleContract);\r\n\r\n\t\trequire(\r\n\t\t\tmsg.sender == owner ||\r\n\t\t\tmsg.sender == nftAddress\r\n\t\t);\r\n\t\t// We are using this boolean method to make sure that even if one fails it will still work\r\n\t\tbool res = nftAddress.send(this.balance);\r\n\t}\r\n\r\n\t/// @dev Creates and begins a new auction.\r\n\t/// @param _tokenId - ID of token to auction, sender must be owner.\r\n\t/// @param _startingPrice - Price of item (in wei) at beginning of auction.\r\n\t/// @param _endingPrice - Price of item (in wei) at end of auction.\r\n\t/// @param _duration - Length of time to move between starting\r\n\t///  price and ending price (in seconds).\r\n\t/// @param _seller - Seller, if not the message sender\r\n\tfunction createAuction(\r\n\t\tuint256 _tokenId,\r\n\t\tuint256 _startingPrice,\r\n\t\tuint256 _endingPrice,\r\n\t\tuint256 _duration,\r\n\t\taddress _seller\r\n\t)\r\n\texternal\r\n\twhenNotPaused\r\n\t{\r\n\t\t// Sanity check that no inputs overflow how many bits we've allocated\r\n\t\t// to store them in the auction struct.\r\n\t\trequire(_startingPrice == uint256(uint128(_startingPrice)));\r\n\t\trequire(_endingPrice == uint256(uint128(_endingPrice)));\r\n\t\trequire(_duration == uint256(uint64(_duration)));\r\n\r\n\t\trequire(_owns(msg.sender, _tokenId));\r\n\t\t_escrow(msg.sender, _tokenId);\r\n\t\tAuction memory auction = Auction(\r\n\t\t\t_seller,\r\n\t\t\tuint128(_startingPrice),\r\n\t\t\tuint128(_endingPrice),\r\n\t\t\tuint64(_duration),\r\n\t\t\tuint64(now)\r\n\t\t);\r\n\t\t_addAuction(_tokenId, auction);\r\n\t}\r\n\r\n\t/// @dev Bids on an open auction, completing the auction and transferring\r\n\t///  ownership of the NFT if enough Ether is supplied.\r\n\t/// @param _tokenId - ID of token to bid on.\r\n\tfunction bid(uint256 _tokenId)\r\n\texternal\r\n\tpayable\r\n\twhenNotPaused\r\n\t{\r\n\t\t// _bid will throw if the bid or funds transfer fails\r\n\t\t_bid(_tokenId, msg.value);\r\n\t\t_transfer(msg.sender, _tokenId);\r\n\t}\r\n\r\n\t/// @dev Cancels an auction that hasn't been won yet.\r\n\t///  Returns the NFT to original owner.\r\n\t/// @notice This is a state-modifying function that can\r\n\t///  be called while the contract is paused.\r\n\t/// @param _tokenId - ID of token on auction\r\n\tfunction cancelAuction(uint256 _tokenId)\r\n\texternal\r\n\t{\r\n\t\tAuction storage auction = tokenIdToAuction[_tokenId];\r\n\t\trequire(_isOnAuction(auction));\r\n\t\taddress seller = auction.seller;\r\n\t\trequire(msg.sender == seller);\r\n\t\t_cancelAuction(_tokenId, seller);\r\n\t}\r\n\r\n\t/// @dev Cancels an auction when the contract is paused.\r\n\t///  Only the owner may do this, and NFTs are returned to\r\n\t///  the seller. This should only be used in emergencies.\r\n\t/// @param _tokenId - ID of the NFT on auction to cancel.\r\n\tfunction cancelAuctionWhenPaused(uint256 _tokenId)\r\n\twhenPaused\r\n\tonlyOwner\r\n\texternal\r\n\t{\r\n\t\tAuction storage auction = tokenIdToAuction[_tokenId];\r\n\t\trequire(_isOnAuction(auction));\r\n\t\t_cancelAuction(_tokenId, auction.seller);\r\n\t}\r\n\r\n\t/// @dev Returns auction info for an NFT on auction.\r\n\t/// @param _tokenId - ID of NFT on auction.\r\n\tfunction getAuction(uint256 _tokenId)\r\n\texternal\r\n\tview\r\n\treturns\r\n\t(\r\n\t\taddress seller,\r\n\t\tuint256 startingPrice,\r\n\t\tuint256 endingPrice,\r\n\t\tuint256 duration,\r\n\t\tuint256 startedAt\r\n\t) {\r\n\t\tAuction storage auction = tokenIdToAuction[_tokenId];\r\n\t\trequire(_isOnAuction(auction));\r\n\t\treturn (\r\n\t\t\tauction.seller,\r\n\t\t\tauction.startingPrice,\r\n\t\t\tauction.endingPrice,\r\n\t\t\tauction.duration,\r\n\t\t\tauction.startedAt\r\n\t\t);\r\n\t}\r\n\r\n\t/// @dev Returns the current price of an auction.\r\n\t/// @param _tokenId - ID of the token price we are checking.\r\n\tfunction getCurrentPrice(uint256 _tokenId)\r\n\texternal\r\n\tview\r\n\treturns (uint256)\r\n\t{\r\n\t\tAuction storage auction = tokenIdToAuction[_tokenId];\r\n\t\trequire(_isOnAuction(auction));\r\n\t\treturn _currentPrice(auction);\r\n\t}\r\n}\r\n\r\n",
  "sourcePath": "D:\\Projects\\ETHBerlin\\TechnoDebit\\contracts\\auction\\CryptoKittiesAuctionSources.sol",
  "compiler": {
    "name": "solc",
    "version": "0.4.24+commit.e67f0147.Emscripten.clang"
  },
  "schemaVersion": "2.0.1",
  "updatedAt": "2018-09-09T07:34:55.754Z"
}