{
  "contractName": "DaoBase",
  "abi": [
    {
      "constant": true,
      "inputs": [],
      "name": "ALLOW_ACTION_BY_ADDRESS",
      "outputs": [
        {
          "name": "",
          "type": "bytes32"
        }
      ],
      "payable": false,
      "stateMutability": "view",
      "type": "function"
    },
    {
      "constant": true,
      "inputs": [],
      "name": "UPGRADE_DAO_CONTRACT",
      "outputs": [
        {
          "name": "",
          "type": "bytes32"
        }
      ],
      "payable": false,
      "stateMutability": "view",
      "type": "function"
    },
    {
      "constant": true,
      "inputs": [],
      "name": "ADD_NEW_PROPOSAL",
      "outputs": [
        {
          "name": "",
          "type": "bytes32"
        }
      ],
      "payable": false,
      "stateMutability": "view",
      "type": "function"
    },
    {
      "constant": true,
      "inputs": [],
      "name": "REMOVE_GROUP_MEMBER",
      "outputs": [
        {
          "name": "",
          "type": "bytes32"
        }
      ],
      "payable": false,
      "stateMutability": "view",
      "type": "function"
    },
    {
      "constant": true,
      "inputs": [],
      "name": "ALLOW_ACTION_BY_SHAREHOLDER",
      "outputs": [
        {
          "name": "",
          "type": "bytes32"
        }
      ],
      "payable": false,
      "stateMutability": "view",
      "type": "function"
    },
    {
      "constant": true,
      "inputs": [],
      "name": "MANAGE_GROUPS",
      "outputs": [
        {
          "name": "",
          "type": "bytes32"
        }
      ],
      "payable": false,
      "stateMutability": "view",
      "type": "function"
    },
    {
      "constant": true,
      "inputs": [],
      "name": "BURN_TOKENS",
      "outputs": [
        {
          "name": "",
          "type": "bytes32"
        }
      ],
      "payable": false,
      "stateMutability": "view",
      "type": "function"
    },
    {
      "constant": true,
      "inputs": [],
      "name": "ALLOW_ACTION_BY_VOTING",
      "outputs": [
        {
          "name": "",
          "type": "bytes32"
        }
      ],
      "payable": false,
      "stateMutability": "view",
      "type": "function"
    },
    {
      "constant": false,
      "inputs": [],
      "name": "renounceOwnership",
      "outputs": [],
      "payable": false,
      "stateMutability": "nonpayable",
      "type": "function"
    },
    {
      "constant": true,
      "inputs": [],
      "name": "WITHDRAW_DONATIONS",
      "outputs": [
        {
          "name": "",
          "type": "bytes32"
        }
      ],
      "payable": false,
      "stateMutability": "view",
      "type": "function"
    },
    {
      "constant": true,
      "inputs": [],
      "name": "owner",
      "outputs": [
        {
          "name": "",
          "type": "address"
        }
      ],
      "payable": false,
      "stateMutability": "view",
      "type": "function"
    },
    {
      "constant": true,
      "inputs": [],
      "name": "ISSUE_TOKENS",
      "outputs": [
        {
          "name": "",
          "type": "bytes32"
        }
      ],
      "payable": false,
      "stateMutability": "view",
      "type": "function"
    },
    {
      "constant": true,
      "inputs": [],
      "name": "ALLOW_ACTION_BY_ANY_MEMBER_OF_GROUP",
      "outputs": [
        {
          "name": "",
          "type": "bytes32"
        }
      ],
      "payable": false,
      "stateMutability": "view",
      "type": "function"
    },
    {
      "constant": false,
      "inputs": [
        {
          "name": "_newOwner",
          "type": "address"
        }
      ],
      "name": "transferOwnership",
      "outputs": [],
      "payable": false,
      "stateMutability": "nonpayable",
      "type": "function"
    },
    {
      "inputs": [
        {
          "name": "_daoStorage",
          "type": "address"
        }
      ],
      "payable": false,
      "stateMutability": "nonpayable",
      "type": "constructor"
    },
    {
      "anonymous": false,
      "inputs": [
        {
          "indexed": false,
          "name": "_new",
          "type": "address"
        }
      ],
      "name": "DaoBaseUpgradeDaoContract",
      "type": "event"
    },
    {
      "anonymous": false,
      "inputs": [
        {
          "indexed": false,
          "name": "_groupName",
          "type": "string"
        },
        {
          "indexed": false,
          "name": "_a",
          "type": "address"
        }
      ],
      "name": "DaoBaseAddGroupMember",
      "type": "event"
    },
    {
      "anonymous": false,
      "inputs": [
        {
          "indexed": false,
          "name": "_groupName",
          "type": "string"
        },
        {
          "indexed": false,
          "name": "_a",
          "type": "address"
        }
      ],
      "name": "DaoBaseRemoveGroupMember",
      "type": "event"
    },
    {
      "anonymous": false,
      "inputs": [
        {
          "indexed": false,
          "name": "_what",
          "type": "bytes32"
        },
        {
          "indexed": false,
          "name": "_tokenAddress",
          "type": "address"
        }
      ],
      "name": "DaoBaseAllowActionByShareholder",
      "type": "event"
    },
    {
      "anonymous": false,
      "inputs": [
        {
          "indexed": false,
          "name": "_what",
          "type": "bytes32"
        },
        {
          "indexed": false,
          "name": "_tokenAddress",
          "type": "address"
        }
      ],
      "name": "DaoBaseAllowActionByVoting",
      "type": "event"
    },
    {
      "anonymous": false,
      "inputs": [
        {
          "indexed": false,
          "name": "_what",
          "type": "bytes32"
        },
        {
          "indexed": false,
          "name": "_a",
          "type": "address"
        }
      ],
      "name": "DaoBaseAllowActionByAddress",
      "type": "event"
    },
    {
      "anonymous": false,
      "inputs": [
        {
          "indexed": false,
          "name": "_what",
          "type": "bytes32"
        },
        {
          "indexed": false,
          "name": "_groupName",
          "type": "string"
        }
      ],
      "name": "DaoBaseAllowActionByAnyMemberOfGroup",
      "type": "event"
    },
    {
      "anonymous": false,
      "inputs": [
        {
          "indexed": false,
          "name": "_proposal",
          "type": "address"
        }
      ],
      "name": "DaoBaseAddNewProposal",
      "type": "event"
    },
    {
      "anonymous": false,
      "inputs": [
        {
          "indexed": false,
          "name": "_tokenAddress",
          "type": "address"
        },
        {
          "indexed": false,
          "name": "_to",
          "type": "address"
        },
        {
          "indexed": false,
          "name": "_amount",
          "type": "uint256"
        }
      ],
      "name": "DaoBaseIssueTokens",
      "type": "event"
    },
    {
      "anonymous": false,
      "inputs": [
        {
          "indexed": false,
          "name": "_tokenAddress",
          "type": "address"
        },
        {
          "indexed": false,
          "name": "_who",
          "type": "address"
        },
        {
          "indexed": false,
          "name": "_amount",
          "type": "uint256"
        }
      ],
      "name": "DaoBaseBurnTokens",
      "type": "event"
    },
    {
      "anonymous": false,
      "inputs": [
        {
          "indexed": true,
          "name": "previousOwner",
          "type": "address"
        }
      ],
      "name": "OwnershipRenounced",
      "type": "event"
    },
    {
      "anonymous": false,
      "inputs": [
        {
          "indexed": true,
          "name": "previousOwner",
          "type": "address"
        },
        {
          "indexed": true,
          "name": "newOwner",
          "type": "address"
        }
      ],
      "name": "OwnershipTransferred",
      "type": "event"
    },
    {
      "constant": true,
      "inputs": [
        {
          "name": "_s",
          "type": "string"
        }
      ],
      "name": "stringHash",
      "outputs": [
        {
          "name": "",
          "type": "bytes32"
        }
      ],
      "payable": false,
      "stateMutability": "pure",
      "type": "function"
    },
    {
      "constant": true,
      "inputs": [],
      "name": "getObserversCount",
      "outputs": [
        {
          "name": "",
          "type": "uint256"
        }
      ],
      "payable": false,
      "stateMutability": "view",
      "type": "function"
    },
    {
      "constant": true,
      "inputs": [
        {
          "name": "_index",
          "type": "uint256"
        }
      ],
      "name": "getObserverAtIndex",
      "outputs": [
        {
          "name": "",
          "type": "address"
        }
      ],
      "payable": false,
      "stateMutability": "view",
      "type": "function"
    },
    {
      "constant": true,
      "inputs": [
        {
          "name": "_permissionName",
          "type": "bytes32"
        },
        {
          "name": "_a",
          "type": "address"
        }
      ],
      "name": "isCanDoByGroupMember",
      "outputs": [
        {
          "name": "",
          "type": "bool"
        }
      ],
      "payable": false,
      "stateMutability": "view",
      "type": "function"
    },
    {
      "constant": false,
      "inputs": [
        {
          "name": "_observer",
          "type": "address"
        }
      ],
      "name": "addObserver",
      "outputs": [],
      "payable": false,
      "stateMutability": "nonpayable",
      "type": "function"
    },
    {
      "constant": false,
      "inputs": [
        {
          "name": "_new",
          "type": "address"
        }
      ],
      "name": "upgradeDaoContract",
      "outputs": [],
      "payable": false,
      "stateMutability": "nonpayable",
      "type": "function"
    },
    {
      "constant": true,
      "inputs": [
        {
          "name": "_groupName",
          "type": "string"
        }
      ],
      "name": "getMembersCount",
      "outputs": [
        {
          "name": "",
          "type": "uint256"
        }
      ],
      "payable": false,
      "stateMutability": "view",
      "type": "function"
    },
    {
      "constant": false,
      "inputs": [
        {
          "name": "_groupName",
          "type": "string"
        },
        {
          "name": "_a",
          "type": "address"
        }
      ],
      "name": "addGroupMember",
      "outputs": [],
      "payable": false,
      "stateMutability": "nonpayable",
      "type": "function"
    },
    {
      "constant": true,
      "inputs": [
        {
          "name": "_groupName",
          "type": "string"
        }
      ],
      "name": "getGroupMembers",
      "outputs": [
        {
          "name": "",
          "type": "address[]"
        }
      ],
      "payable": false,
      "stateMutability": "view",
      "type": "function"
    },
    {
      "constant": false,
      "inputs": [
        {
          "name": "_groupName",
          "type": "string"
        },
        {
          "name": "_a",
          "type": "address"
        }
      ],
      "name": "removeGroupMember",
      "outputs": [],
      "payable": false,
      "stateMutability": "nonpayable",
      "type": "function"
    },
    {
      "constant": true,
      "inputs": [
        {
          "name": "_groupName",
          "type": "string"
        },
        {
          "name": "_a",
          "type": "address"
        }
      ],
      "name": "isGroupMember",
      "outputs": [
        {
          "name": "",
          "type": "bool"
        }
      ],
      "payable": false,
      "stateMutability": "view",
      "type": "function"
    },
    {
      "constant": true,
      "inputs": [
        {
          "name": "_groupName",
          "type": "string"
        },
        {
          "name": "_index",
          "type": "uint256"
        }
      ],
      "name": "getMemberByIndex",
      "outputs": [
        {
          "name": "",
          "type": "address"
        }
      ],
      "payable": false,
      "stateMutability": "view",
      "type": "function"
    },
    {
      "constant": false,
      "inputs": [
        {
          "name": "_permissionName",
          "type": "bytes32"
        },
        {
          "name": "_tokenAddress",
          "type": "address"
        }
      ],
      "name": "allowActionByShareholder",
      "outputs": [],
      "payable": false,
      "stateMutability": "nonpayable",
      "type": "function"
    },
    {
      "constant": false,
      "inputs": [
        {
          "name": "_permissionName",
          "type": "bytes32"
        },
        {
          "name": "_tokenAddress",
          "type": "address"
        }
      ],
      "name": "allowActionByVoting",
      "outputs": [],
      "payable": false,
      "stateMutability": "nonpayable",
      "type": "function"
    },
    {
      "constant": false,
      "inputs": [
        {
          "name": "_permissionName",
          "type": "bytes32"
        },
        {
          "name": "_a",
          "type": "address"
        }
      ],
      "name": "allowActionByAddress",
      "outputs": [],
      "payable": false,
      "stateMutability": "nonpayable",
      "type": "function"
    },
    {
      "constant": false,
      "inputs": [
        {
          "name": "_permissionName",
          "type": "bytes32"
        },
        {
          "name": "_groupName",
          "type": "string"
        }
      ],
      "name": "allowActionByAnyMemberOfGroup",
      "outputs": [],
      "payable": false,
      "stateMutability": "nonpayable",
      "type": "function"
    },
    {
      "constant": true,
      "inputs": [
        {
          "name": "_a",
          "type": "address"
        },
        {
          "name": "_permissionNameHash",
          "type": "bytes32"
        }
      ],
      "name": "isCanDoAction",
      "outputs": [
        {
          "name": "",
          "type": "bool"
        }
      ],
      "payable": false,
      "stateMutability": "view",
      "type": "function"
    },
    {
      "constant": false,
      "inputs": [
        {
          "name": "_proposal",
          "type": "address"
        }
      ],
      "name": "addNewProposal",
      "outputs": [],
      "payable": false,
      "stateMutability": "nonpayable",
      "type": "function"
    },
    {
      "constant": true,
      "inputs": [
        {
          "name": "_i",
          "type": "uint256"
        }
      ],
      "name": "getProposalAtIndex",
      "outputs": [
        {
          "name": "",
          "type": "address"
        }
      ],
      "payable": false,
      "stateMutability": "view",
      "type": "function"
    },
    {
      "constant": true,
      "inputs": [],
      "name": "getProposalsCount",
      "outputs": [
        {
          "name": "",
          "type": "uint256"
        }
      ],
      "payable": false,
      "stateMutability": "view",
      "type": "function"
    },
    {
      "constant": false,
      "inputs": [
        {
          "name": "_tokenAddress",
          "type": "address"
        },
        {
          "name": "_to",
          "type": "address"
        },
        {
          "name": "_amount",
          "type": "uint256"
        }
      ],
      "name": "issueTokens",
      "outputs": [],
      "payable": false,
      "stateMutability": "nonpayable",
      "type": "function"
    },
    {
      "constant": false,
      "inputs": [
        {
          "name": "_tokenAddress",
          "type": "address"
        },
        {
          "name": "_who",
          "type": "address"
        },
        {
          "name": "_amount",
          "type": "uint256"
        }
      ],
      "name": "burnTokens",
      "outputs": [],
      "payable": false,
      "stateMutability": "nonpayable",
      "type": "function"
    }
  ],
  "bytecode": "0x608060405234801561001057600080fd5b506040516020806124fc833981016040525160008054600160a060020a0319908116331790915560018054600160a060020a039093169290911691909117905561249d8061005f6000396000f3006080604052600436106101a85763ffffffff60e060020a60003504166301ef046881146101ad57806302750201146101d05780630b0e7f15146102795780630c955c28146102e45780631081f0d11461031c5780631176415f1461033157806315b3671d1461035557806318fa12aa146103b95780631955c0a4146103ce57806322e320f7146103e35780632459bac814610407578063415e86ce14610431578063423c3a481461044657806358974298146104705780635facc3dc14610485578063601fc8321461049a57806362ea7796146104ce578063644834be146104e3578063679f0681146104f85780636f3249191461050d578063715018a61461053157806374bb3d5414610546578063755ae05b146105a45780638b979f51146105b95780638da5cb5b146105d15780638faa37f1146105e657806396e608ba146105fb57806398e527d31461061c578063a08ce40914610631578063a450197c14610655578063a9759dfc146106b9578063ed28c035146106ce578063ef9c822614610729578063f2fde38b14610782578063fb02cfa8146107a3578063fb8ec97214610807575b600080fd5b3480156101b957600080fd5b506101ce600160a060020a0360043516610828565b005b3480156101dc57600080fd5b506040805160206004803580820135601f81018490048402850184019095528484526102299436949293602493928401919081908401838280828437509497506109b09650505050505050565b60408051602080825283518183015283519192839290830191858101910280838360005b8381101561026557818101518382015260200161024d565b505050509050019250505060405180910390f35b34801561028557600080fd5b506040805160206004803580820135601f81018490048402850184019095528484526102d2943694929360249392840191908190840183828082843750949750610a9a9650505050505050565b60408051918252519081900360200190f35b3480156102f057600080fd5b50610308600435600160a060020a0360243516610afe565b604080519115158252519081900360200190f35b34801561032857600080fd5b506102d2610ba3565b34801561033d57600080fd5b506101ce600435600160a060020a0360243516610bc7565b34801561036157600080fd5b506040805160206004803580820135601f810184900484028501840190955284845261030894369492936024939284019190819084018382808284375094975050509235600160a060020a03169350610d5e92505050565b3480156103c557600080fd5b506102d2610dc7565b3480156103da57600080fd5b506102d2610deb565b3480156103ef57600080fd5b50610308600160a060020a0360043516602435610e0f565b34801561041357600080fd5b506101ce600160a060020a0360043581169060243516604435610e96565b34801561043d57600080fd5b506102d2611054565b34801561045257600080fd5b506101ce600160a060020a0360043581169060243516604435611078565b34801561047c57600080fd5b506102d2611218565b34801561049157600080fd5b506102d261123c565b3480156104a657600080fd5b506104b260043561124e565b60408051600160a060020a039092168252519081900360200190f35b3480156104da57600080fd5b506102d26112e6565b3480156104ef57600080fd5b506102d2611376565b34801561050457600080fd5b506102d261139a565b34801561051957600080fd5b506101ce600435600160a060020a03602435166113be565b34801561053d57600080fd5b506101ce611538565b34801561055257600080fd5b5060408051602060046024803582810135601f81018590048502860185019096528585526101ce9583359536956044949193909101919081908401838280828437509497506115a49650505050505050565b3480156105b057600080fd5b506102d261176f565b3480156105c557600080fd5b506104b2600435611793565b3480156105dd57600080fd5b506104b26117f9565b3480156105f257600080fd5b506102d2611808565b34801561060757600080fd5b506101ce600160a060020a036004351661182c565b34801561062857600080fd5b506102d2611d00565b34801561063d57600080fd5b506101ce600435600160a060020a0360243516611d5f565b34801561066157600080fd5b506040805160206004803580820135601f81018490048402850184019095528484526101ce94369492936024939284019190819084018382808284375094975050509235600160a060020a03169350611ed992505050565b3480156106c557600080fd5b506102d26120ba565b3480156106da57600080fd5b506040805160206004803580820135601f81018490048402850184019095528484526104b294369492936024939284019190819084018382808284375094975050933594506120de9350505050565b34801561073557600080fd5b506040805160206004803580820135601f81018490048402850184019095528484526102d294369492936024939284019190819084018382808284375094975061213f9650505050505050565b34801561078e57600080fd5b506101ce600160a060020a0360043516612199565b3480156107af57600080fd5b506040805160206004803580820135601f81018490048402850184019095528484526101ce94369492936024939284019190819084018382808284375094975050509235600160a060020a031693506121bc92505050565b34801561081357600080fd5b506101ce600160a060020a0360043516612352565b6001546040805160e060020a63b456f94b028152600160a060020a0390921660048301523360248301527f55c7fa9eebcea37770fd33ec28acf7eacb6ea53052a9e9bc0a98169768578c5f604483018190529051909173__DaoBaseLib____________________________9163b456f94b91606480820192602092909190829003018186803b1580156108ba57600080fd5b505af41580156108ce573d6000803e3d6000fd5b505050506040513d60208110156108e457600080fd5b505115156108f157600080fd5b60408051600160a060020a038416815290517f94d7098d83d05e86914e00c8560894ad195f66f921f7967600f63fc059f24fa29181900360200190a1600154604080517f83920871000000000000000000000000000000000000000000000000000000008152600160a060020a03858116600483015291519190921691638392087191602480830192600092919082900301818387803b15801561099457600080fd5b505af11580156109a8573d6000803e3d6000fd5b505050505050565b600154606090600160a060020a0316636c052cd86109cd84610a9a565b6040805160e060020a63ffffffff8516028152600481019290925251602480830192600092919082900301818387803b158015610a0957600080fd5b505af1158015610a1d573d6000803e3d6000fd5b505050506040513d6000823e601f3d908101601f191682016040526020811015610a4657600080fd5b810190808051640100000000811115610a5e57600080fd5b82016020810184811115610a7157600080fd5b8151856020820283011164010000000082111715610a8e57600080fd5b50909695505050505050565b6000816040518082805190602001908083835b60208310610acc5780518252601f199092019160209182019101610aad565b5181516020939093036101000a6000190180199091169216919091179052604051920182900390912095945050505050565b600154604080517fda9c548800000000000000000000000000000000000000000000000000000000815260048101859052600160a060020a0384811660248301529151600093929092169163da9c54889160448082019260209290919082900301818787803b158015610b7057600080fd5b505af1158015610b84573d6000803e3d6000fd5b505050506040513d6020811015610b9a57600080fd5b50519392505050565b7f087dfe531c937a5cbe06c1240d8f791b240719b90fd2a4e453a201ce0f00c17681565b60005460008051602061245283398151915290600160a060020a0316331480610c8557506001546040805160e060020a63b456f94b028152600160a060020a039092166004830152336024830152604482018390525173__DaoBaseLib____________________________9163b456f94b916064808301926020929190829003018186803b158015610c5857600080fd5b505af4158015610c6c573d6000803e3d6000fd5b505050506040513d6020811015610c8257600080fd5b50515b1515610c9057600080fd5b60408051848152600160a060020a038416602082015281517fc178ac30ffd2511ba56b6c977bede07734548083934ffb38a1314afad1e3164b929181900390910190a1600154604080517f1176415f00000000000000000000000000000000000000000000000000000000815260048101869052600160a060020a03858116602483015291519190921691631176415f91604480830192600092919082900301818387803b158015610d4157600080fd5b505af1158015610d55573d6000803e3d6000fd5b50505050505050565b600154600090600160a060020a031663cb3022ff610d7b85610a9a565b6040805160e060020a63ffffffff85160281526004810192909252600160a060020a03861660248301525160448083019260209291908290030181600087803b158015610b7057600080fd5b7f3794eb44dffe1fc69d141df1b355cf30d543d8006634dd7a125d0e5f500b7fb181565b7f55c7fa9eebcea37770fd33ec28acf7eacb6ea53052a9e9bc0a98169768578c5f81565b6001546040805160e060020a63b456f94b028152600160a060020a0392831660048201529184166024830152604482018390525160009173__DaoBaseLib____________________________9163b456f94b91606480820192602092909190829003018186803b158015610e8257600080fd5b505af4158015610b84573d6000803e3d6000fd5b6001546040805160e060020a63b456f94b028152600160a060020a0390921660048301523360248301527fe003bf3bc29ae37598e0a6b52d6c5d94b0a53e4e52ae40c01a29cdd0e7816b71604483018190529051909173__DaoBaseLib____________________________9163b456f94b91606480820192602092909190829003018186803b158015610f2857600080fd5b505af4158015610f3c573d6000803e3d6000fd5b505050506040513d6020811015610f5257600080fd5b50511515610f5f57600080fd5b60408051600160a060020a0380871682528516602082015280820184905290517f136e1723f30fa9aa37c030a0ae5e8e072c16dffc5b969e5da2a19fc6fd30c3259181900360600190a1600154604080517f432600eb000000000000000000000000000000000000000000000000000000008152600160a060020a03928316600482015286831660248201529185166044830152606482018490525173__DaoBaseLib____________________________9163432600eb916084808301926000929190829003018186803b15801561103657600080fd5b505af415801561104a573d6000803e3d6000fd5b5050505050505050565b7f3a5165e670fb3632ad283cd3622bfca48f4c8202b504a023dafe70df3056707581565b6001546040805160e060020a63b456f94b028152600160a060020a0390921660048301523360248301527f324cd2c359ecbc6ad92db8d027aab5d643f27c3055619a49702576797bb41fe5604483018190529051909173__DaoBaseLib____________________________9163b456f94b91606480820192602092909190829003018186803b15801561110a57600080fd5b505af415801561111e573d6000803e3d6000fd5b505050506040513d602081101561113457600080fd5b5051151561114157600080fd5b60408051600160a060020a0380871682528516602082015280820184905290517f4f1b2ec57ac850d2d88d7bfd2216444bc8afc4644dd873311a4b01ef10389a849181900360600190a1600154604080517f9419fd34000000000000000000000000000000000000000000000000000000008152600160a060020a03928316600482015286831660248201529185166044830152606482018490525173__DaoBaseLib____________________________91639419fd34916084808301926000929190829003018186803b15801561103657600080fd5b7fbeaac974e61895532ee7d8efc953d378116d446667765b57f62c791c37b03c8d81565b60008051602061245283398151915281565b600154604080517f601fc832000000000000000000000000000000000000000000000000000000008152600481018490529051600092600160a060020a03169163601fc83291602480830192602092919082900301818787803b1580156112b457600080fd5b505af11580156112c8573d6000803e3d6000fd5b505050506040513d60208110156112de57600080fd5b505192915050565b600154604080517f62ea77960000000000000000000000000000000000000000000000000000000081529051600092600160a060020a0316916362ea779691600480830192602092919082900301818787803b15801561134557600080fd5b505af1158015611359573d6000803e3d6000fd5b505050506040513d602081101561136f57600080fd5b5051905090565b7f324cd2c359ecbc6ad92db8d027aab5d643f27c3055619a49702576797bb41fe581565b7f2e0b85549a7529dfca5fb20621fe76f393d05d7fc99be4dd3d996c8e1925ba0b81565b60005460008051602061245283398151915290600160a060020a031633148061147c57506001546040805160e060020a63b456f94b028152600160a060020a039092166004830152336024830152604482018390525173__DaoBaseLib____________________________9163b456f94b916064808301926020929190829003018186803b15801561144f57600080fd5b505af4158015611463573d6000803e3d6000fd5b505050506040513d602081101561147957600080fd5b50515b151561148757600080fd5b60408051848152600160a060020a038416602082015281517fb0984b31dce3098c0d0cc88c2c78728eb76b59050bad3ec637c353f9b0e59ff8929181900390910190a1600154604080517f6f32491900000000000000000000000000000000000000000000000000000000815260048101869052600160a060020a03858116602483015291519190921691636f32491991604480830192600092919082900301818387803b158015610d4157600080fd5b600054600160a060020a0316331461154f57600080fd5b60008054604051600160a060020a03909116917ff8df31144d9c2f0f6b59d69b8b98abd5459d07f2742c4df920b25aae33c6482091a26000805473ffffffffffffffffffffffffffffffffffffffff19169055565b60005460008051602061245283398151915290600160a060020a031633148061166257506001546040805160e060020a63b456f94b028152600160a060020a039092166004830152336024830152604482018390525173__DaoBaseLib____________________________9163b456f94b916064808301926020929190829003018186803b15801561163557600080fd5b505af4158015611649573d6000803e3d6000fd5b505050506040513d602081101561165f57600080fd5b50515b151561166d57600080fd5b60408051848152602080820183815285519383019390935284517f8be0d4c24897b1b44e6e6dde219e6ec06f6276c66db02bededc064f3fc9919c193879387939092606084019185019080838360005b838110156116d55781810151838201526020016116bd565b50505050905090810190601f1680156117025780820380516001836020036101000a031916815260200191505b50935050505060405180910390a1600154600160a060020a0316632cdd9cd68461172b85610a9a565b6040805160e060020a63ffffffff86160281526004810193909352602483019190915251604480830192600092919082900301818387803b158015610d4157600080fd5b7ffc685f51f68cb86aa29db19c2a8f4e85183375ba55b5e56fb2e89adc5f5e428581565b600154604080517f8b979f51000000000000000000000000000000000000000000000000000000008152600481018490529051600092600160a060020a031691638b979f5191602480830192602092919082900301818787803b1580156112b457600080fd5b600054600160a060020a031681565b7fe003bf3bc29ae37598e0a6b52d6c5d94b0a53e4e52ae40c01a29cdd0e7816b7181565b6001546040805160e060020a63b456f94b028152600160a060020a0390921660048301523360248301527f3794eb44dffe1fc69d141df1b355cf30d543d8006634dd7a125d0e5f500b7fb160448301819052905160009273__DaoBaseLib____________________________9163b456f94b91606480820192602092909190829003018186803b1580156118bf57600080fd5b505af41580156118d3573d6000803e3d6000fd5b505050506040513d60208110156118e957600080fd5b505115156118f657600080fd5b60408051600160a060020a038516815290517f2d1d7afeaa9cc7364d5437dec30ad5e42d63f942e79facfc7e9b5540407e7df29181900360200190a1600091505b600160009054906101000a9004600160a060020a0316600160a060020a03166362ea77966040518163ffffffff1660e060020a028152600401602060405180830381600087803b15801561198a57600080fd5b505af115801561199e573d6000803e3d6000fd5b505050506040513d60208110156119b457600080fd5b5051821015611ad757600154604080517f601fc832000000000000000000000000000000000000000000000000000000008152600481018590529051600160a060020a039092169163601fc832916024808201926020929091908290030181600087803b158015611a2457600080fd5b505af1158015611a38573d6000803e3d6000fd5b505050506040513d6020811015611a4e57600080fd5b5051604080517ffa34c84e000000000000000000000000000000000000000000000000000000008152600160a060020a0386811660048301529151919092169163fa34c84e91602480830192600092919082900301818387803b158015611ab457600080fd5b505af1158015611ac8573d6000803e3d6000fd5b50505050816001019150611937565b600154604080517ff2fde38b000000000000000000000000000000000000000000000000000000008152600160a060020a0386811660048301529151919092169163f2fde38b91602480830192600092919082900301818387803b158015611b3e57600080fd5b505af1158015611b52573d6000803e3d6000fd5b50505050600091505b600160009054906101000a9004600160a060020a0316600160a060020a0316633962f82d6040518163ffffffff1660e060020a028152600401602060405180830381600087803b158015611bae57600080fd5b505af1158015611bc2573d6000803e3d6000fd5b505050506040513d6020811015611bd857600080fd5b5051821015611cfb57600154604080517f97988dce000000000000000000000000000000000000000000000000000000008152600481018590529051600160a060020a03909216916397988dce916024808201926020929091908290030181600087803b158015611c4857600080fd5b505af1158015611c5c573d6000803e3d6000fd5b505050506040513d6020811015611c7257600080fd5b5051604080517ff2fde38b000000000000000000000000000000000000000000000000000000008152600160a060020a0386811660048301529151919092169163f2fde38b91602480830192600092919082900301818387803b158015611cd857600080fd5b505af1158015611cec573d6000803e3d6000fd5b50505050816001019150611b5b565b505050565b600154604080517f98e527d30000000000000000000000000000000000000000000000000000000081529051600092600160a060020a0316916398e527d391600480830192602092919082900301818787803b15801561134557600080fd5b60005460008051602061245283398151915290600160a060020a0316331480611e1d57506001546040805160e060020a63b456f94b028152600160a060020a039092166004830152336024830152604482018390525173__DaoBaseLib____________________________9163b456f94b916064808301926020929190829003018186803b158015611df057600080fd5b505af4158015611e04573d6000803e3d6000fd5b505050506040513d6020811015611e1a57600080fd5b50515b1515611e2857600080fd5b60408051848152600160a060020a038416602082015281517fbb0fd323caa33e6a1b61581c008bed9af26a4e63894653ec9ab44557dc464857929181900390910190a1600154604080517fa08ce40900000000000000000000000000000000000000000000000000000000815260048101869052600160a060020a0385811660248301529151919092169163a08ce40991604480830192600092919082900301818387803b158015610d4157600080fd5b60005460008051602061245283398151915290600160a060020a0316331480611f9757506001546040805160e060020a63b456f94b028152600160a060020a039092166004830152336024830152604482018390525173__DaoBaseLib____________________________9163b456f94b916064808301926020929190829003018186803b158015611f6a57600080fd5b505af4158015611f7e573d6000803e3d6000fd5b505050506040513d6020811015611f9457600080fd5b50515b1515611fa257600080fd5b7f0cd9995e4ce9e99fe086709a5ed10105b5a33379a56363b587be270f4aef053c8383604051808060200183600160a060020a0316600160a060020a03168152602001828103825284818151815260200191508051906020019080838360005b8381101561201a578181015183820152602001612002565b50505050905090810190601f1680156120475780820380516001836020036101000a031916815260200191505b50935050505060405180910390a1600154600160a060020a031663e1b73c8461206f85610a9a565b6040805160e060020a63ffffffff85160281526004810192909252600160a060020a038616602483015251604480830192600092919082900301818387803b158015610d4157600080fd5b7fa7889b6adda0a2270859e5c6327f82b987d24f5729de85a5746ce28eed9e0d0781565b600154600090600160a060020a0316639181f0fc6120fb85610a9a565b6040805160e060020a63ffffffff85160281526004810192909252602482018690525160448083019260209291908290030181600087803b158015610b7057600080fd5b600154600090600160a060020a0316632f24e89961215c84610a9a565b6040805160e060020a63ffffffff851602815260048101929092525160248083019260209291908290030181600087803b1580156112b457600080fd5b600054600160a060020a031633146121b057600080fd5b6121b9816123d4565b50565b60005460008051602061245283398151915290600160a060020a031633148061227a57506001546040805160e060020a63b456f94b028152600160a060020a039092166004830152336024830152604482018390525173__DaoBaseLib____________________________9163b456f94b916064808301926020929190829003018186803b15801561224d57600080fd5b505af4158015612261573d6000803e3d6000fd5b505050506040513d602081101561227757600080fd5b50515b151561228557600080fd5b7fb72d2dea8f3997e2295673f5ad32ffd0542bb161b12a7eddb5ab3152c5813a348383604051808060200183600160a060020a0316600160a060020a03168152602001828103825284818151815260200191508051906020019080838360005b838110156122fd5781810151838201526020016122e5565b50505050905090810190601f16801561232a5780820380516001836020036101000a031916815260200191505b50935050505060405180910390a1600154600160a060020a031663a99fa3e261206f85610a9a565b600154604080517ffb8ec972000000000000000000000000000000000000000000000000000000008152600160a060020a0384811660048301529151919092169163fb8ec97291602480830192600092919082900301818387803b1580156123b957600080fd5b505af11580156123cd573d6000803e3d6000fd5b5050505050565b600160a060020a03811615156123e957600080fd5b60008054604051600160a060020a03808516939216917f8be0079c531659141344cd1fd0a4f28419497f9722a3daafe3b4186f6b6457e091a36000805473ffffffffffffffffffffffffffffffffffffffff1916600160a060020a03929092169190911790555600060990aad7751fab616bf14cf6b68ac4c5cdc555f8f06bc9f15ba1b156e81b0ba165627a7a723058208082a7a3ccdb8acec1faeb10a0ae87c929a75672eab254fc9cc8b63927e228af0029",
  "source": "pragma solidity ^0.4.22;\n\nimport \"./IDaoBase.sol\";\nimport \"./DaoStorage.sol\";\nimport \"./DaoBaseLib.sol\";\n\n\n/**\n * @title DaoBase \n * @dev Main Thetta DAO Framework contract. \n * Usage scenarios:\n * 1) Preferred: become its client (derive your contract from DaoClient contract!)\n * 2) Optional: derive a contract directly from DaoBase  \n * \n */\ncontract DaoBase is IDaoBase, Ownable {\n\tevent DaoBaseUpgradeDaoContract(address _new);\n\tevent DaoBaseAddGroupMember(string _groupName, address _a);\n\tevent DaoBaseRemoveGroupMember(string _groupName, address _a);\n\tevent DaoBaseAllowActionByShareholder(bytes32 _what, address _tokenAddress);\n\tevent DaoBaseAllowActionByVoting(bytes32 _what, address _tokenAddress);\n\tevent DaoBaseAllowActionByAddress(bytes32 _what, address _a);\n\tevent DaoBaseAllowActionByAnyMemberOfGroup(bytes32 _what, string _groupName);\n\tevent DaoBaseAddNewProposal(address _proposal);\n\tevent DaoBaseIssueTokens(address _tokenAddress, address _to, uint _amount);\n\tevent DaoBaseBurnTokens(address _tokenAddress, address _who, uint _amount);\n\n\tDaoStorage daoStorage;\n\n\tmodifier isCanDo(bytes32 _permissionName){\n\t\trequire(DaoBaseLib.isCanDoAction(daoStorage, msg.sender, _permissionName)); \n\t\t_; \n\t}\n\n\tmodifier isCanDoOrByOwner(bytes32 _what) {\n\t\trequire(msg.sender==owner || DaoBaseLib.isCanDoAction(daoStorage, msg.sender, _what));\n\t\t_;\n\t}\n\n\tbytes32 public constant ISSUE_TOKENS = 0xe003bf3bc29ae37598e0a6b52d6c5d94b0a53e4e52ae40c01a29cdd0e7816b71;\n\tbytes32 public constant MANAGE_GROUPS = 0x060990aad7751fab616bf14cf6b68ac4c5cdc555f8f06bc9f15ba1b156e81b0b;\n\tbytes32 public constant ADD_NEW_PROPOSAL = 0x55c7fa9eebcea37770fd33ec28acf7eacb6ea53052a9e9bc0a98169768578c5f;\n\tbytes32 public constant BURN_TOKENS = 0x324cd2c359ecbc6ad92db8d027aab5d643f27c3055619a49702576797bb41fe5;\n\tbytes32 public constant UPGRADE_DAO_CONTRACT = 0x3794eb44dffe1fc69d141df1b355cf30d543d8006634dd7a125d0e5f500b7fb1;\n\tbytes32 public constant REMOVE_GROUP_MEMBER = 0x3a5165e670fb3632ad283cd3622bfca48f4c8202b504a023dafe70df30567075;\n\tbytes32 public constant WITHDRAW_DONATIONS = 0xfc685f51f68cb86aa29db19c2a8f4e85183375ba55b5e56fb2e89adc5f5e4285;\n\tbytes32 public constant ALLOW_ACTION_BY_SHAREHOLDER = 0xbeaac974e61895532ee7d8efc953d378116d446667765b57f62c791c37b03c8d;\n\tbytes32 public constant ALLOW_ACTION_BY_VOTING = 0x2e0b85549a7529dfca5fb20621fe76f393d05d7fc99be4dd3d996c8e1925ba0b;\n\tbytes32 public constant ALLOW_ACTION_BY_ADDRESS = 0x087dfe531c937a5cbe06c1240d8f791b240719b90fd2a4e453a201ce0f00c176;\n\tbytes32 public constant ALLOW_ACTION_BY_ANY_MEMBER_OF_GROUP = 0xa7889b6adda0a2270859e5c6327f82b987d24f5729de85a5746ce28eed9e0d07;\n\n\tconstructor(DaoStorage _daoStorage) public {\n\t\tdaoStorage = _daoStorage;\n\t}\n\n\t/**\n\t* @param _s String which will be converted to hash\n\t* @return hash of provided string \n\t* @dev Hash string\n\t*/\n\tfunction stringHash(string _s) public pure returns(bytes32) {\n\t\treturn keccak256(_s);\n\t}\n\n\t/**\n\t* @return observers amount in storage\n\t*/\n\tfunction getObserversCount() public view returns(uint) {\n\t\treturn daoStorage.getObserversCount();\n\t}\n\n\t/**\n\t* @param _index observer index in storage\n\t* @return address of the observer with provided index\n\t*/\n\tfunction getObserverAtIndex(uint _index) public view returns(address) {\n\t\treturn daoStorage.getObserverAtIndex(_index);\n\t}\t\n\n\t/**\n\t* @param _permissionName permission name in hash\n\t* @param _a address which will be checked for permissions\n\t* @return true if _a address have _permissionName permissions\n\t*/\n\tfunction isCanDoByGroupMember(bytes32 _permissionName, address _a) public view returns(bool) {\n\t\treturn daoStorage.isAllowedActionByMembership(_permissionName, _a);\n\t}\n\n\t/**\n\t* @param _observer observer address\n\t* @dev add observer to storage\n\t*/\n\tfunction addObserver(IDaoObserver _observer) public {\n\t\tdaoStorage.addObserver(_observer);\n\t}\n\n\t/**\n\t* @notice This function should be called only by account with UPGRADE_DAO_CONTRACT permissions\n\t* @param _new new DaoBase instance (address)\n\t* @dev this function upgrades DAO instance\n\t*/\n\tfunction upgradeDaoContract(IDaoBase _new) public isCanDo(UPGRADE_DAO_CONTRACT) {\n\t\temit DaoBaseUpgradeDaoContract(_new); // call observers.onUpgrade() for all observers\t\t\n\t\tfor(uint i=0; i<daoStorage.getObserversCount(); ++i) {\n\t\t\tIDaoObserver(daoStorage.getObserverAtIndex(i)).onUpgrade(_new);\n\t\t}\t\n\t\t\n\t\tdaoStorage.transferOwnership(_new);\n\n\t\tfor(i=0; i<daoStorage.getTokensCount(); ++i) { // transfer ownership of all tokens (this -> _new)\n\t\t\tdaoStorage.getTokenAtIndex(i).transferOwnership(_new);\n\t\t} \n\t}\n\n\t/**\n\t* @param _groupName name of the group in storage\n    * @return amount of the members of the group with name _groupName\n\t*/\n\tfunction getMembersCount(string _groupName) public view returns(uint) {\n\t\treturn daoStorage.getMembersCount(stringHash(_groupName));\n\t}\n\n\t/**\n\t* @notice This function should be called only by account with MANAGE_GROUPS permissions\n\t* @param _groupName name of the group in storage\n\t* @param _a address which will be added to the group with name _groupName\n\t* @dev this function add address _a to group na me with name _groupName into storage\n\t*/\n\tfunction addGroupMember(string _groupName, address _a) public isCanDoOrByOwner(MANAGE_GROUPS) {\n\t\temit DaoBaseAddGroupMember(_groupName, _a);\n\t\tdaoStorage.addGroupMember(stringHash(_groupName), _a);\n\t}\n\n\t/**\n\t* @param _groupName name of the group in storage\n    * @return array of addresses which in group name with name _groupName\n\t*/\n\tfunction getGroupMembers(string _groupName) public view returns(address[]) {\n\t\treturn daoStorage.getGroupMembers(stringHash(_groupName));\n\t}\n\n\t/**\n\t* @notice This function should be called only by account with MANAGE_GROUPS permissions\n\t* @param _groupName name of the group in storage\n\t* @param _a address which will be removed from the group with name _groupName\n\t* @dev this function remove address _a from group name with name _groupName in storage\n\t*/\n\tfunction removeGroupMember(string _groupName, address _a) public isCanDoOrByOwner(MANAGE_GROUPS) {\n\t\temit DaoBaseRemoveGroupMember(_groupName, _a);\n\t\tdaoStorage.removeGroupMember(stringHash(_groupName), _a);\n\t}\n\n\t/**\n\t* @param _groupName name of the group in storage\n\t* @param _a address which will be checked on presence in group with name _groupName\n\t* @return true if address _a is in group with name _groupName\n\t*/\n\tfunction isGroupMember(string _groupName, address _a) public view returns(bool) {\n\t\treturn daoStorage.isGroupMember(stringHash(_groupName), _a);\n\t}\n\n\t/**\n\t* @param _groupName name of the group in storage\n\t* @param _index address which will be added to the group with name _groupName\n\t* @return true if address corresponded to _index is group member of group with name _groupName\n\t*/\n\tfunction getMemberByIndex(string _groupName, uint _index) public view returns (address) {\n\t\treturn daoStorage.getGroupsMemberAtIndex(stringHash(_groupName), _index);\n\t}\n\n\t/**\n\t* @notice This function should be called only by account with MANAGE_GROUPS permissions\n\t* @param _permissionName permission name in hash\n\t* @param _tokenAddress address of the token\n\t* @dev this function allows action with name _permissionName for _tokenAddress\n\t*/\n\tfunction allowActionByShareholder(bytes32 _permissionName, address _tokenAddress) public isCanDoOrByOwner(MANAGE_GROUPS) {\n\t\temit DaoBaseAllowActionByShareholder(_permissionName, _tokenAddress);\n\t\tdaoStorage.allowActionByShareholder(_permissionName, _tokenAddress);\n\t}\n\n\t/**\n\t* @notice This function should be called only by account with MANAGE_GROUPS permissions\n\t* @param _permissionName permission name in hash\n\t* @param _tokenAddress address of the token\n\t* @dev this function allows action with name _permissionName for _tokenAddress\n\t*/\n\tfunction allowActionByVoting(bytes32 _permissionName, address _tokenAddress) public isCanDoOrByOwner(MANAGE_GROUPS) {\n\t\temit DaoBaseAllowActionByVoting(_permissionName, _tokenAddress);\n\t\tdaoStorage.allowActionByVoting(_permissionName,_tokenAddress);\n\t}\n\n\t/**\n\t* @notice This function should be called only by account with MANAGE_GROUPS permissions\n\t* @param _permissionName permission name in hash\n\t* @param _a address\n\t* @dev this function allows action with name _permissionName for _tokenAddress\n\t*/\n\tfunction allowActionByAddress(bytes32 _permissionName, address _a) public isCanDoOrByOwner(MANAGE_GROUPS) {\n\t\temit DaoBaseAllowActionByAddress(_permissionName, _a);\n\t\tdaoStorage.allowActionByAddress(_permissionName,_a);\n\t}\n\n\t/**\n\t* @notice This function should be called only by account with MANAGE_GROUPS permissions\n\t* @param _permissionName permission name in hash\n\t* @param _groupName name of the group in storage\n\t* @dev this function allows action with name _permissionName for _tokenAddress\n\t*/\n\tfunction allowActionByAnyMemberOfGroup(bytes32 _permissionName, string _groupName) public isCanDoOrByOwner(MANAGE_GROUPS) {\n\t\temit DaoBaseAllowActionByAnyMemberOfGroup(_permissionName, _groupName);\n\t\tdaoStorage.allowActionByAnyMemberOfGroup(_permissionName, stringHash(_groupName));\n\t}\n\n\t/**\n\t * @dev Function that will check if action is DIRECTLY callable by msg.sender (account or another contract)\n\t * How permissions works now:\n\t * 1. if caller is in the whitelist -> allow\n\t * 2. if caller is in the group and this action can be done by group members -> allow\n\t * 3. if caller is shareholder and this action can be done by a shareholder -> allow\n\t * 4. if this action requires voting \n\t *    a. caller is in the majority -> allow\n\t *    b. caller is voting and it is succeeded -> allow\n\t * 4. deny\n\t*/\n\tfunction isCanDoAction(address _a, bytes32 _permissionNameHash) public view returns(bool) {\n\t\treturn DaoBaseLib.isCanDoAction(daoStorage, _a, _permissionNameHash);\n\t}\n\n\t// Proposals:\n\t/**\n\t* @notice This function should be called only by account with ADD_NEW_PROPOSAL permissions\n\t* @param _proposal address of proposal\n\t* @dev this function adds proposal to storage\n\t*/\n\tfunction addNewProposal(IProposal _proposal) public isCanDo(ADD_NEW_PROPOSAL) { \n\t\temit DaoBaseAddNewProposal(_proposal); \n\t\tdaoStorage.addProposal(_proposal);\n\t}\n\n\t/**\n\t* @param _i index of the proposal in storage\n\t* @return proposal address\n\t*/\n\tfunction getProposalAtIndex(uint _i) public view returns(IProposal) {\n\t\treturn daoStorage.getProposalAtIndex(_i);\n\t}\n\n\t/**\n\t* @return proposals amount in storage\n\t*/\n\tfunction getProposalsCount() public view returns(uint) {\n\t\treturn daoStorage.getProposalsCount();\n\t}\n\n\t// Tokens:\n\t/**\n\t* @notice This function should be called only by account with ISSUE_TOKENS permissions\n\t* @param _tokenAddress address of token\n\t* @param _to address who gets issued tokens\n\t* @param _amount amount of tokens which will be issued\n\t* @dev this function issue tokens for address _to\n\t*/\n\tfunction issueTokens(address _tokenAddress, address _to, uint _amount) public isCanDo(ISSUE_TOKENS) {\n\t\temit DaoBaseIssueTokens(_tokenAddress, _to, _amount);\n\t\tDaoBaseLib.issueTokens(\n\t\t\tdaoStorage,\n\t\t\t_tokenAddress,\n\t\t\t_to,\n\t\t\t_amount\n\t\t);\n\t}\n\n\t/**\n\t* @notice This function should be called only by account with BURN_TOKENS permissions\n\t* @param _tokenAddress address of token\n\t* @param _who address whose tokens will be burned\n\t* @param _amount amount of tokens which will be burned\n\t* @dev this function burn tokens for address _who\n\t*/\n\tfunction burnTokens(address _tokenAddress, address _who, uint _amount) public isCanDo(BURN_TOKENS) {\n\t\temit DaoBaseBurnTokens(_tokenAddress, _who, _amount);\n\t\tDaoBaseLib.burnTokens(\n\t\t\tdaoStorage,\n\t\t\t_tokenAddress, \n\t\t\t_who, \n\t\t\t_amount\n\t\t);\t\n\t}\n}\n",
  "sourcePath": "@thetta/core/contracts/DaoBase.sol",
  "compiler": {
    "name": "solc",
    "version": "0.4.24+commit.e67f0147.Emscripten.clang"
  },
  "schemaVersion": "2.0.1",
  "updatedAt": "2018-09-08T22:00:56.400Z"
}