{
  "contractName": "DaoClient",
  "abi": [
    {
      "inputs": [
        {
          "name": "_dao",
          "type": "address"
        }
      ],
      "payable": false,
      "stateMutability": "nonpayable",
      "type": "constructor"
    },
    {
      "constant": false,
      "inputs": [
        {
          "name": "_newAddress",
          "type": "address"
        }
      ],
      "name": "onUpgrade",
      "outputs": [],
      "payable": false,
      "stateMutability": "nonpayable",
      "type": "function"
    }
  ],
  "bytecode": "0x608060405234801561001057600080fd5b506040516020806101b8833981016040818152915160008054600160a060020a031916600160a060020a03808416919091178083557ffb8ec97200000000000000000000000000000000000000000000000000000000855230600486015294519294169263fb8ec972926024808301939282900301818387803b15801561009657600080fd5b505af11580156100aa573d6000803e3d6000fd5b505050505060fb806100bd6000396000f300608060405260043610603e5763ffffffff7c0100000000000000000000000000000000000000000000000000000000600035041663fa34c84e81146043575b600080fd5b348015604e57600080fd5b50606e73ffffffffffffffffffffffffffffffffffffffff600435166070565b005b60005473ffffffffffffffffffffffffffffffffffffffff163314609357600080fd5b6000805473ffffffffffffffffffffffffffffffffffffffff191673ffffffffffffffffffffffffffffffffffffffff929092169190911790555600a165627a7a723058208748482480d128b8e6d2aae3d26cc018c4a540b345e568a249c446093bb1ad4b0029",
  "source": "pragma solidity ^0.4.23;\n\nimport \"./IDaoBase.sol\";\nimport \"./IDaoObserver.sol\";\n\n\n/**\n * @title DaoClient, just an easy-to-use wrapper.\n * @dev This contract provides you with internal 'dao' variable. \n * Once your DAO controller is upgraded -> all DaoClients will be notified and 'dao' var will be updated automatically.\n *\n * Some contracts like Votings or Auto-callers has 'dao' variable and don't use DaoClient.\n * In this case they will stop working if the controller (DAO) is upgraded (it is as inteded).\n */\ncontract DaoClient is IDaoObserver {\n\tIDaoBase dao;\n\n\tmodifier isCanDo(bytes32 _what) {\n\t\trequire(dao.isCanDoAction(msg.sender, _what)); \n\t\t_; \n\t}\n\n\tconstructor(IDaoBase _dao) public {\n\t\tdao = _dao;\n\t\tdao.addObserver(IDaoObserver(this));\n\t}\n\n\t/**\n\t * @dev If your company is upgraded -> then this will automatically update the current dao.\n\t * dao will point at NEW contract!\n\t * @param _newAddress New controller.\n\t */\n\tfunction onUpgrade(address _newAddress) public {\n\t\trequire(msg.sender == address(dao));\n\n\t\tdao = IDaoBase(_newAddress);\n\n\t\t// this is not needed because we are already in the list of observers (in the store) \n\t\t// and the controller is upgraded only\n\t\t//dao.addObserver(this);\n\t}\n}",
  "sourcePath": "@thetta/core/contracts/DaoClient.sol",
  "compiler": {
    "name": "solc",
    "version": "0.4.24+commit.e67f0147.Emscripten.clang"
  },
  "schemaVersion": "2.0.1",
  "updatedAt": "2018-09-08T22:00:56.405Z"
}