{
  "contractName": "DaoStorage",
  "abi": [
    {
      "constant": true,
      "inputs": [
        {
          "name": "",
          "type": "uint256"
        }
      ],
      "name": "proposals",
      "outputs": [
        {
          "name": "",
          "type": "address"
        }
      ],
      "payable": false,
      "stateMutability": "view",
      "type": "function"
    },
    {
      "constant": true,
      "inputs": [
        {
          "name": "",
          "type": "address"
        },
        {
          "name": "",
          "type": "bytes32"
        }
      ],
      "name": "actionAvailabilityByVoting",
      "outputs": [
        {
          "name": "",
          "type": "bool"
        }
      ],
      "payable": false,
      "stateMutability": "view",
      "type": "function"
    },
    {
      "constant": true,
      "inputs": [
        {
          "name": "",
          "type": "uint256"
        }
      ],
      "name": "tokens",
      "outputs": [
        {
          "name": "",
          "type": "address"
        }
      ],
      "payable": false,
      "stateMutability": "view",
      "type": "function"
    },
    {
      "constant": true,
      "inputs": [
        {
          "name": "",
          "type": "bytes32"
        },
        {
          "name": "",
          "type": "uint256"
        }
      ],
      "name": "groupToAddresses",
      "outputs": [
        {
          "name": "",
          "type": "address"
        }
      ],
      "payable": false,
      "stateMutability": "view",
      "type": "function"
    },
    {
      "constant": true,
      "inputs": [
        {
          "name": "",
          "type": "address"
        },
        {
          "name": "",
          "type": "bytes32"
        }
      ],
      "name": "actionAvailabilityByShareholder",
      "outputs": [
        {
          "name": "",
          "type": "bool"
        }
      ],
      "payable": false,
      "stateMutability": "view",
      "type": "function"
    },
    {
      "constant": true,
      "inputs": [
        {
          "name": "",
          "type": "uint256"
        }
      ],
      "name": "observers",
      "outputs": [
        {
          "name": "",
          "type": "address"
        }
      ],
      "payable": false,
      "stateMutability": "view",
      "type": "function"
    },
    {
      "constant": true,
      "inputs": [
        {
          "name": "",
          "type": "address"
        },
        {
          "name": "",
          "type": "bytes32"
        }
      ],
      "name": "actionAvailabilityByAddress",
      "outputs": [
        {
          "name": "",
          "type": "bool"
        }
      ],
      "payable": false,
      "stateMutability": "view",
      "type": "function"
    },
    {
      "constant": false,
      "inputs": [],
      "name": "renounceOwnership",
      "outputs": [],
      "payable": false,
      "stateMutability": "nonpayable",
      "type": "function"
    },
    {
      "constant": true,
      "inputs": [],
      "name": "owner",
      "outputs": [
        {
          "name": "",
          "type": "address"
        }
      ],
      "payable": false,
      "stateMutability": "view",
      "type": "function"
    },
    {
      "constant": true,
      "inputs": [
        {
          "name": "",
          "type": "address"
        },
        {
          "name": "",
          "type": "uint256"
        }
      ],
      "name": "addressToGroups",
      "outputs": [
        {
          "name": "",
          "type": "bytes32"
        }
      ],
      "payable": false,
      "stateMutability": "view",
      "type": "function"
    },
    {
      "constant": true,
      "inputs": [
        {
          "name": "",
          "type": "bytes32"
        },
        {
          "name": "",
          "type": "bytes32"
        }
      ],
      "name": "actionAvailabilityByMembership",
      "outputs": [
        {
          "name": "",
          "type": "bool"
        }
      ],
      "payable": false,
      "stateMutability": "view",
      "type": "function"
    },
    {
      "constant": false,
      "inputs": [
        {
          "name": "_newOwner",
          "type": "address"
        }
      ],
      "name": "transferOwnership",
      "outputs": [],
      "payable": false,
      "stateMutability": "nonpayable",
      "type": "function"
    },
    {
      "inputs": [
        {
          "name": "_tokens",
          "type": "address[]"
        }
      ],
      "payable": false,
      "stateMutability": "nonpayable",
      "type": "constructor"
    },
    {
      "anonymous": false,
      "inputs": [
        {
          "indexed": true,
          "name": "previousOwner",
          "type": "address"
        }
      ],
      "name": "OwnershipRenounced",
      "type": "event"
    },
    {
      "anonymous": false,
      "inputs": [
        {
          "indexed": true,
          "name": "previousOwner",
          "type": "address"
        },
        {
          "indexed": true,
          "name": "newOwner",
          "type": "address"
        }
      ],
      "name": "OwnershipTransferred",
      "type": "event"
    },
    {
      "constant": true,
      "inputs": [
        {
          "name": "_permissionHash",
          "type": "bytes32"
        },
        {
          "name": "_tokenAddress",
          "type": "address"
        }
      ],
      "name": "isAllowedActionByShareholder",
      "outputs": [
        {
          "name": "",
          "type": "bool"
        }
      ],
      "payable": false,
      "stateMutability": "view",
      "type": "function"
    },
    {
      "constant": true,
      "inputs": [
        {
          "name": "_permissionHash",
          "type": "bytes32"
        },
        {
          "name": "_tokenAddress",
          "type": "address"
        }
      ],
      "name": "isAllowedActionByVoting",
      "outputs": [
        {
          "name": "",
          "type": "bool"
        }
      ],
      "payable": false,
      "stateMutability": "view",
      "type": "function"
    },
    {
      "constant": true,
      "inputs": [
        {
          "name": "_permissionHash",
          "type": "bytes32"
        },
        {
          "name": "_targetAddress",
          "type": "address"
        }
      ],
      "name": "isAllowedActionByAddress",
      "outputs": [
        {
          "name": "",
          "type": "bool"
        }
      ],
      "payable": false,
      "stateMutability": "view",
      "type": "function"
    },
    {
      "constant": true,
      "inputs": [
        {
          "name": "_permissionHash",
          "type": "bytes32"
        },
        {
          "name": "_targetAddress",
          "type": "address"
        }
      ],
      "name": "isAllowedActionByMembership",
      "outputs": [
        {
          "name": "isAllowed",
          "type": "bool"
        }
      ],
      "payable": false,
      "stateMutability": "view",
      "type": "function"
    },
    {
      "constant": true,
      "inputs": [
        {
          "name": "_tokenIndex",
          "type": "uint256"
        }
      ],
      "name": "getTokenAtIndex",
      "outputs": [
        {
          "name": "",
          "type": "address"
        }
      ],
      "payable": false,
      "stateMutability": "view",
      "type": "function"
    },
    {
      "constant": true,
      "inputs": [
        {
          "name": "_proposalIndex",
          "type": "uint256"
        }
      ],
      "name": "getProposalAtIndex",
      "outputs": [
        {
          "name": "",
          "type": "address"
        }
      ],
      "payable": false,
      "stateMutability": "view",
      "type": "function"
    },
    {
      "constant": true,
      "inputs": [
        {
          "name": "_observerIndex",
          "type": "uint256"
        }
      ],
      "name": "getObserverAtIndex",
      "outputs": [
        {
          "name": "",
          "type": "address"
        }
      ],
      "payable": false,
      "stateMutability": "view",
      "type": "function"
    },
    {
      "constant": true,
      "inputs": [],
      "name": "getTokensCount",
      "outputs": [
        {
          "name": "",
          "type": "uint256"
        }
      ],
      "payable": false,
      "stateMutability": "view",
      "type": "function"
    },
    {
      "constant": true,
      "inputs": [],
      "name": "getProposalsCount",
      "outputs": [
        {
          "name": "",
          "type": "uint256"
        }
      ],
      "payable": false,
      "stateMutability": "view",
      "type": "function"
    },
    {
      "constant": true,
      "inputs": [],
      "name": "getObserversCount",
      "outputs": [
        {
          "name": "",
          "type": "uint256"
        }
      ],
      "payable": false,
      "stateMutability": "view",
      "type": "function"
    },
    {
      "constant": true,
      "inputs": [],
      "name": "getAllTokenAddresses",
      "outputs": [
        {
          "name": "",
          "type": "address[]"
        }
      ],
      "payable": false,
      "stateMutability": "view",
      "type": "function"
    },
    {
      "constant": true,
      "inputs": [],
      "name": "getAllProposals",
      "outputs": [
        {
          "name": "",
          "type": "address[]"
        }
      ],
      "payable": false,
      "stateMutability": "view",
      "type": "function"
    },
    {
      "constant": true,
      "inputs": [],
      "name": "getAllObservers",
      "outputs": [
        {
          "name": "",
          "type": "address[]"
        }
      ],
      "payable": false,
      "stateMutability": "view",
      "type": "function"
    },
    {
      "constant": true,
      "inputs": [
        {
          "name": "_groupHash",
          "type": "bytes32"
        },
        {
          "name": "_memberIndex",
          "type": "uint256"
        }
      ],
      "name": "getGroupsMemberAtIndex",
      "outputs": [
        {
          "name": "",
          "type": "address"
        }
      ],
      "payable": false,
      "stateMutability": "view",
      "type": "function"
    },
    {
      "constant": true,
      "inputs": [
        {
          "name": "_member",
          "type": "address"
        },
        {
          "name": "_groupIndex",
          "type": "uint256"
        }
      ],
      "name": "getMembersGroupAtIndex",
      "outputs": [
        {
          "name": "",
          "type": "bytes32"
        }
      ],
      "payable": false,
      "stateMutability": "view",
      "type": "function"
    },
    {
      "constant": true,
      "inputs": [
        {
          "name": "_groupHash",
          "type": "bytes32"
        }
      ],
      "name": "getMembersCount",
      "outputs": [
        {
          "name": "",
          "type": "uint256"
        }
      ],
      "payable": false,
      "stateMutability": "view",
      "type": "function"
    },
    {
      "constant": true,
      "inputs": [
        {
          "name": "_member",
          "type": "address"
        }
      ],
      "name": "getMembersGroupCount",
      "outputs": [
        {
          "name": "",
          "type": "uint256"
        }
      ],
      "payable": false,
      "stateMutability": "view",
      "type": "function"
    },
    {
      "constant": true,
      "inputs": [
        {
          "name": "_groupHash",
          "type": "bytes32"
        }
      ],
      "name": "getGroupMembers",
      "outputs": [
        {
          "name": "",
          "type": "address[]"
        }
      ],
      "payable": false,
      "stateMutability": "view",
      "type": "function"
    },
    {
      "constant": true,
      "inputs": [
        {
          "name": "_member",
          "type": "address"
        }
      ],
      "name": "getMemberGroups",
      "outputs": [
        {
          "name": "",
          "type": "bytes32[]"
        }
      ],
      "payable": false,
      "stateMutability": "view",
      "type": "function"
    },
    {
      "constant": true,
      "inputs": [
        {
          "name": "_groupHash",
          "type": "bytes32"
        },
        {
          "name": "_member",
          "type": "address"
        }
      ],
      "name": "isGroupMember",
      "outputs": [
        {
          "name": "",
          "type": "bool"
        }
      ],
      "payable": false,
      "stateMutability": "view",
      "type": "function"
    },
    {
      "constant": false,
      "inputs": [
        {
          "name": "_permissionHash",
          "type": "bytes32"
        },
        {
          "name": "_tokenAddress",
          "type": "address"
        }
      ],
      "name": "allowActionByShareholder",
      "outputs": [],
      "payable": false,
      "stateMutability": "nonpayable",
      "type": "function"
    },
    {
      "constant": false,
      "inputs": [
        {
          "name": "_permissionHash",
          "type": "bytes32"
        },
        {
          "name": "_tokenAddress",
          "type": "address"
        }
      ],
      "name": "allowActionByVoting",
      "outputs": [],
      "payable": false,
      "stateMutability": "nonpayable",
      "type": "function"
    },
    {
      "constant": false,
      "inputs": [
        {
          "name": "_permissionHash",
          "type": "bytes32"
        },
        {
          "name": "_targetAddress",
          "type": "address"
        }
      ],
      "name": "allowActionByAddress",
      "outputs": [],
      "payable": false,
      "stateMutability": "nonpayable",
      "type": "function"
    },
    {
      "constant": false,
      "inputs": [
        {
          "name": "_permissionHash",
          "type": "bytes32"
        },
        {
          "name": "_groupHash",
          "type": "bytes32"
        }
      ],
      "name": "allowActionByAnyMemberOfGroup",
      "outputs": [],
      "payable": false,
      "stateMutability": "nonpayable",
      "type": "function"
    },
    {
      "constant": false,
      "inputs": [
        {
          "name": "_token",
          "type": "address"
        }
      ],
      "name": "addToken",
      "outputs": [],
      "payable": false,
      "stateMutability": "nonpayable",
      "type": "function"
    },
    {
      "constant": false,
      "inputs": [
        {
          "name": "_proposal",
          "type": "address"
        }
      ],
      "name": "addProposal",
      "outputs": [],
      "payable": false,
      "stateMutability": "nonpayable",
      "type": "function"
    },
    {
      "constant": false,
      "inputs": [
        {
          "name": "_observer",
          "type": "address"
        }
      ],
      "name": "addObserver",
      "outputs": [],
      "payable": false,
      "stateMutability": "nonpayable",
      "type": "function"
    },
    {
      "constant": false,
      "inputs": [
        {
          "name": "_groupHash",
          "type": "bytes32"
        },
        {
          "name": "_newMember",
          "type": "address"
        }
      ],
      "name": "addGroupMember",
      "outputs": [],
      "payable": false,
      "stateMutability": "nonpayable",
      "type": "function"
    },
    {
      "constant": false,
      "inputs": [
        {
          "name": "_permissionHash",
          "type": "bytes32"
        },
        {
          "name": "_tokenAddress",
          "type": "address"
        }
      ],
      "name": "restrictActionByShareholder",
      "outputs": [],
      "payable": false,
      "stateMutability": "nonpayable",
      "type": "function"
    },
    {
      "constant": false,
      "inputs": [
        {
          "name": "_permissionHash",
          "type": "bytes32"
        },
        {
          "name": "_tokenAddress",
          "type": "address"
        }
      ],
      "name": "restrictActionByVoting",
      "outputs": [],
      "payable": false,
      "stateMutability": "nonpayable",
      "type": "function"
    },
    {
      "constant": false,
      "inputs": [
        {
          "name": "_permissionHash",
          "type": "bytes32"
        },
        {
          "name": "_targetAddress",
          "type": "address"
        }
      ],
      "name": "restrictActionByAddress",
      "outputs": [],
      "payable": false,
      "stateMutability": "nonpayable",
      "type": "function"
    },
    {
      "constant": false,
      "inputs": [
        {
          "name": "_permissionHash",
          "type": "bytes32"
        },
        {
          "name": "_groupHash",
          "type": "bytes32"
        }
      ],
      "name": "restrictActionByGroupMembership",
      "outputs": [],
      "payable": false,
      "stateMutability": "nonpayable",
      "type": "function"
    },
    {
      "constant": false,
      "inputs": [
        {
          "name": "_groupHash",
          "type": "bytes32"
        },
        {
          "name": "_member",
          "type": "address"
        }
      ],
      "name": "removeGroupMember",
      "outputs": [],
      "payable": false,
      "stateMutability": "nonpayable",
      "type": "function"
    },
    {
      "constant": false,
      "inputs": [
        {
          "name": "_proposal",
          "type": "address"
        }
      ],
      "name": "removeProposal",
      "outputs": [],
      "payable": false,
      "stateMutability": "nonpayable",
      "type": "function"
    },
    {
      "constant": false,
      "inputs": [
        {
          "name": "_observer",
          "type": "address"
        }
      ],
      "name": "removeObserver",
      "outputs": [],
      "payable": false,
      "stateMutability": "nonpayable",
      "type": "function"
    }
  ],
  "bytecode": "0x608060405234801561001057600080fd5b5060405161192c38038061192c83398101604052805160008054600160a060020a031916331781559101905b815181101561009a576001828281518110151561005557fe5b6020908102919091018101518254600180820185556000948552929093209092018054600160a060020a031916600160a060020a03909316929092179091550161003c565b5050611881806100ab6000396000f30060806040526004361061023a5763ffffffff7c0100000000000000000000000000000000000000000000000000000000600035041663013cf08b811461023f57806305d1a27414610273578063079e53df146102e45780630e8d06b51461031c5780631176415f1461034057806329056f59146103665780632cdd9cd61461038a5780632f24e899146103a55780633962f82d146103cf5780634f64b2be146103e4578063504fd24d146103fc57806352323367146104205780635526f934146104355780635879a62114610450578063599f6237146104745780635fd1bd9d14610498578063601fc832146104b057806362ea7796146104c857806366079d4e146104dd5780636c052cd8146105015780636d4ae680146105195780636f3249191461052e578063715018a61461055257806383920871146105675780638b979f51146105885780638da5cb5b146105a05780639181f0fc146105b557806397988dce146105d057806398899bd3146105e857806398e527d31461060c578063a08ce40914610621578063a99fa3e214610645578063be28cbb514610669578063c8fcb6981461068d578063cb2840c5146106a8578063cb3022ff146106c9578063cceb68f5146106ed578063d48bfca714610702578063da9c548814610723578063e1b73c8414610747578063e8e375221461076b578063ee5cdecd1461078c578063f12e24c4146107b0578063f19a6f0a146107cb578063f2fde38b146107ec578063f9e6579b1461080d578063fb8ec97214610831575b600080fd5b34801561024b57600080fd5b50610257600435610852565b60408051600160a060020a039092168252519081900360200190f35b34801561027f57600080fd5b50610294600160a060020a036004351661087a565b60408051602080825283518183015283519192839290830191858101910280838360005b838110156102d05781810151838201526020016102b8565b505050509050019250505060405180910390f35b3480156102f057600080fd5b50610308600435600160a060020a03602435166108e7565b604080519115158252519081900360200190f35b34801561032857600080fd5b50610308600160a060020a036004351660243561090f565b34801561034c57600080fd5b50610364600435600160a060020a036024351661092f565b005b34801561037257600080fd5b50610364600435600160a060020a0360243516610974565b34801561039657600080fd5b506103646004356024356109b6565b3480156103b157600080fd5b506103bd6004356109f2565b60408051918252519081900360200190f35b3480156103db57600080fd5b506103bd610a04565b3480156103f057600080fd5b50610257600435610a0a565b34801561040857600080fd5b506103bd600160a060020a0360043516602435610a18565b34801561042c57600080fd5b50610294610a73565b34801561044157600080fd5b50610257600435602435610ad5565b34801561045c57600080fd5b50610364600435600160a060020a0360243516610b0c565b34801561048057600080fd5b50610308600160a060020a0360043516602435610b4e565b3480156104a457600080fd5b50610257600435610b6e565b3480156104bc57600080fd5b50610257600435610b7c565b3480156104d457600080fd5b506103bd610bb6565b3480156104e957600080fd5b50610308600160a060020a0360043516602435610bbc565b34801561050d57600080fd5b50610294600435610bdc565b34801561052557600080fd5b50610294610c47565b34801561053a57600080fd5b50610364600435600160a060020a0360243516610ca7565b34801561055e57600080fd5b50610364610cec565b34801561057357600080fd5b50610364600160a060020a0360043516610d58565b34801561059457600080fd5b50610257600435610dce565b3480156105ac57600080fd5b50610257610ded565b3480156105c157600080fd5b50610257600435602435610dfc565b3480156105dc57600080fd5b50610257600435610e4c565b3480156105f457600080fd5b50610364600435600160a060020a0360243516610e6b565b34801561061857600080fd5b506103bd610ead565b34801561062d57600080fd5b50610364600435600160a060020a0360243516610eb3565b34801561065157600080fd5b50610364600435600160a060020a0360243516610ef8565b34801561067557600080fd5b506103bd600160a060020a0360043516602435611031565b34801561069957600080fd5b50610364600435602435611061565b3480156106b457600080fd5b50610364600160a060020a036004351661109a565b3480156106d557600080fd5b50610308600435600160a060020a0360243516611146565b3480156106f957600080fd5b506102946111ff565b34801561070e57600080fd5b50610364600160a060020a036004351661125f565b34801561072f57600080fd5b50610308600435600160a060020a03602435166112d4565b34801561075357600080fd5b50610364600435600160a060020a0360243516611363565b34801561077757600080fd5b506103bd600160a060020a036004351661163a565b34801561079857600080fd5b50610308600435600160a060020a0360243516611655565b3480156107bc57600080fd5b5061030860043560243561167d565b3480156107d757600080fd5b50610364600160a060020a036004351661169d565b3480156107f857600080fd5b50610364600160a060020a036004351661172e565b34801561081957600080fd5b50610308600435600160a060020a0360243516611751565b34801561083d57600080fd5b50610364600160a060020a0360043516611779565b600280548290811061086057fe5b600091825260209091200154600160a060020a0316905081565b600160a060020a0381166000908152600860209081526040918290208054835181840281018401909452808452606093928301828280156108db57602002820191906000526020600020905b815481526001909101906020018083116108c6575b50505050509050919050565b600160a060020a03166000908152600660209081526040808320938352929052205460ff1690565b600560209081526000928352604080842090915290825290205460ff1681565b600054600160a060020a0316331461094657600080fd5b600160a060020a0316600090815260046020908152604080832093835292905220805460ff19166001179055565b600054600160a060020a0316331461098b57600080fd5b600160a060020a0316600090815260056020908152604080832093835292905220805460ff19169055565b600054600160a060020a031633146109cd57600080fd5b600090815260076020908152604080832093835292905220805460ff19166001179055565b60009081526009602052604090205490565b60015490565b600180548290811061086057fe5b600160a060020a0382166000908152600860205260408120548210610a3c57600080fd5b600160a060020a0383166000908152600860205260409020805483908110610a6057fe5b9060005260206000200154905092915050565b60606003805480602002602001604051908101604052809291908181526020018280548015610acb57602002820191906000526020600020905b8154600160a060020a03168152600190910190602001808311610aad575b5050505050905090565b600960205281600052604060002081815481101515610af057fe5b600091825260209091200154600160a060020a03169150829050565b600054600160a060020a03163314610b2357600080fd5b600160a060020a0316600090815260066020908152604080832093835292905220805460ff19169055565b600460209081526000928352604080842090915290825290205460ff1681565b600380548290811061086057fe5b6003546000908210610b8d57600080fd5b6003805483908110610b9b57fe5b600091825260209091200154600160a060020a031692915050565b60035490565b600660209081526000928352604080842090915290825290205460ff1681565b6000818152600960209081526040918290208054835181840281018401909452808452606093928301828280156108db57602002820191906000526020600020905b8154600160a060020a03168152600190910190602001808311610c1e5750505050509050919050565b60606001805480602002602001604051908101604052809291908181526020018280548015610acb57602002820191906000526020600020908154600160a060020a03168152600190910190602001808311610aad575050505050905090565b600054600160a060020a03163314610cbe57600080fd5b600160a060020a0316600090815260066020908152604080832093835292905220805460ff19166001179055565b600054600160a060020a03163314610d0357600080fd5b60008054604051600160a060020a03909116917ff8df31144d9c2f0f6b59d69b8b98abd5459d07f2742c4df920b25aae33c6482091a26000805473ffffffffffffffffffffffffffffffffffffffff19169055565b600054600160a060020a03163314610d6f57600080fd5b600280546001810182556000919091527f405787fa12a823e0f2b7631cc41b3ba8828b3321ca811111fa75cd3aa3bb5ace01805473ffffffffffffffffffffffffffffffffffffffff1916600160a060020a0392909216919091179055565b6002546000908210610ddf57600080fd5b6002805483908110610b9b57fe5b600054600160a060020a031681565b6000828152600960205260408120548210610e1657600080fd5b6000838152600960205260409020805483908110610e3057fe5b600091825260209091200154600160a060020a03169392505050565b6001546000908210610e5d57600080fd5b6001805483908110610b9b57fe5b600054600160a060020a03163314610e8257600080fd5b600160a060020a0316600090815260046020908152604080832093835292905220805460ff19169055565b60025490565b600054600160a060020a03163314610eca57600080fd5b600160a060020a0316600090815260056020908152604080832093835292905220805460ff19166001179055565b600054600160a060020a03163314610f0f57600080fd5b60008281526009602090815260409182902082517f47d01e590000000000000000000000000000000000000000000000000000000081526004810191909152600160a060020a0384166024820152915173__UtilsLib______________________________926347d01e59926044808301939192829003018186803b158015610f9757600080fd5b505af4158015610fab573d6000803e3d6000fd5b505050506040513d6020811015610fc157600080fd5b505115610fcd57600080fd5b600160a060020a03166000818152600860209081526040808320805460018181018355918552838520018690559483526009825282208054948501815582529020909101805473ffffffffffffffffffffffffffffffffffffffff19169091179055565b60086020528160005260406000208181548110151561104c57fe5b90600052602060002001600091509150505481565b600054600160a060020a0316331461107857600080fd5b600090815260076020908152604080832093835292905220805460ff19169055565b600054600160a060020a031633146110b157600080fd5b604080517ff6db8c8100000000000000000000000000000000000000000000000000000000815260036004820152600160a060020a0383166024820152905173__UtilsLib______________________________9163f6db8c81916044808301926000929190829003018186803b15801561112b57600080fd5b505af415801561113f573d6000803e3d6000fd5b5050505050565b600082815260096020908152604080832081517f47d01e590000000000000000000000000000000000000000000000000000000081526004810191909152600160a060020a0385166024820152905173__UtilsLib______________________________926347d01e599260448082019391829003018186803b1580156111cc57600080fd5b505af41580156111e0573d6000803e3d6000fd5b505050506040513d60208110156111f657600080fd5b50519392505050565b60606002805480602002602001604051908101604052809291908181526020018280548015610acb57602002820191906000526020600020908154600160a060020a03168152600190910190602001808311610aad575050505050905090565b600054600160a060020a0316331461127657600080fd5b6001805480820182556000919091527fb10e2d527612073b26eecdfd717e6a320cf44b4afac2b0732d9fcbe2b7fa0cf601805473ffffffffffffffffffffffffffffffffffffffff1916600160a060020a0392909216919091179055565b600080805b600160a060020a03841660009081526008602052604090205482101561135b57600160a060020a038416600090815260086020526040902080548390811061131d57fe5b600091825260208083209091015480835260078252604080842089855290925291205490915060ff161561135057600192505b8160010191506112d9565b505092915050565b600054600160a060020a0316331461137a57600080fd5b60008281526009602090815260409182902082517f47d01e590000000000000000000000000000000000000000000000000000000081526004810191909152600160a060020a0384166024820152915173__UtilsLib______________________________926347d01e59926044808301939192829003018186803b15801561140257600080fd5b505af4158015611416573d6000803e3d6000fd5b505050506040513d602081101561142c57600080fd5b5051151561143957600080fd5b600160a060020a03811660009081526008602090815260409182902082517fc3722527000000000000000000000000000000000000000000000000000000008152600481019190915260248101859052915173__UtilsLib______________________________9263c3722527926044808301939192829003018186803b1580156114c357600080fd5b505af41580156114d7573d6000803e3d6000fd5b505050506040513d60208110156114ed57600080fd5b505115156114fa57600080fd5b600160a060020a03811660009081526008602052604080822081517fdbd862e0000000000000000000000000000000000000000000000000000000008152600481019190915260248101859052905173__UtilsLib______________________________9263dbd862e09260448082019391829003018186803b15801561158057600080fd5b505af4158015611594573d6000803e3d6000fd5b50505060008381526009602052604080822081517f3a9cec900000000000000000000000000000000000000000000000000000000081526004810191909152600160a060020a0385166024820152905173__UtilsLib______________________________9350633a9cec9092604480840193919291829003018186803b15801561161e57600080fd5b505af4158015611632573d6000803e3d6000fd5b505050505050565b600160a060020a031660009081526008602052604090205490565b600160a060020a03166000908152600560209081526040808320938352929052205460ff1690565b600760209081526000928352604080842090915290825290205460ff1681565b600054600160a060020a031633146116b457600080fd5b604080517f4d25d0da00000000000000000000000000000000000000000000000000000000815260026004820152600160a060020a0383166024820152905173__UtilsLib______________________________91634d25d0da916044808301926000929190829003018186803b15801561112b57600080fd5b600054600160a060020a0316331461174557600080fd5b61174e816117d8565b50565b600160a060020a03166000908152600460209081526040808320938352929052205460ff1690565b600380546001810182556000919091527fc2575a0e9e593c00f959f8c92f12db2869c3395a3b0502d05e2516446f71f85b01805473ffffffffffffffffffffffffffffffffffffffff1916600160a060020a0392909216919091179055565b600160a060020a03811615156117ed57600080fd5b60008054604051600160a060020a03808516939216917f8be0079c531659141344cd1fd0a4f28419497f9722a3daafe3b4186f6b6457e091a36000805473ffffffffffffffffffffffffffffffffffffffff1916600160a060020a03929092169190911790555600a165627a7a723058200cd8501fce412bb03c9bf7c49cfbd30ea79230e58ecd064214713e662cace4ff0029",
  "source": "pragma solidity ^0.4.22;\n\nimport \"./IDaoBase.sol\";\nimport \"./utils/UtilsLib.sol\";\n\nimport \"./tokens/StdDaoToken.sol\";\n\n\n/**\n * @title DaoStorage \n * @dev Used by DaoBase to keep all data. DaoBase (controller) can be updated \n * while keeping intact the DaoStorage.\n */\ncontract DaoStorage is Ownable {\n\tStdDaoToken[] public tokens;\n\tIProposal[] public proposals;\n\tIDaoObserver[] public observers;\n\n\tmapping (address=>mapping(bytes32=>bool)) public actionAvailabilityByShareholder; // token -> permission -> flag\n\tmapping (address=>mapping(bytes32=>bool)) public actionAvailabilityByVoting; // token -> permission -> flag\n\tmapping (address=>mapping(bytes32=>bool)) public actionAvailabilityByAddress; // address -> permission -> flag\n\tmapping (bytes32=>mapping(bytes32=>bool)) public actionAvailabilityByMembership; // group name -> permission -> flag\n\tmapping (address=>bytes32[]) public addressToGroups; // member -> group names\n\tmapping (bytes32=>address[]) public groupToAddresses; // group name -> members\n\n\tconstructor(address[] _tokens) public {\n\t\tfor(uint i = 0; i < _tokens.length; ++i) {\n\t\t\ttokens.push(StdDaoToken(_tokens[i]));\n\t\t}\n\t}\n\n// ------------------ GETTERS\n\tfunction isAllowedActionByShareholder(bytes32 _permissionHash, address _tokenAddress) external view returns(bool) {\n\t\treturn actionAvailabilityByShareholder[_tokenAddress][_permissionHash];\t\n\t}\n\n\tfunction isAllowedActionByVoting(bytes32 _permissionHash, address _tokenAddress) external view returns(bool) {\n\t\treturn actionAvailabilityByVoting[_tokenAddress][_permissionHash];\n\t}\n\n\tfunction isAllowedActionByAddress(bytes32 _permissionHash, address _targetAddress) external view returns(bool) {\n\t\treturn actionAvailabilityByAddress[_targetAddress][_permissionHash];\n\t}\n\n\tfunction isAllowedActionByMembership(bytes32 _permissionHash, address _targetAddress) external view returns(bool isAllowed) {\n\t\tisAllowed = false;\n\t\tfor(uint i = 0; i < addressToGroups[_targetAddress].length; ++i) {\n\t\t\tbytes32 groupHash = addressToGroups[_targetAddress][i];\n\t\t\tif(actionAvailabilityByMembership[groupHash][_permissionHash]) {\n\t\t\t\tisAllowed = true;\n\t\t\t}\n\t\t}\n\t}\n\n\tfunction getTokenAtIndex(uint _tokenIndex) external view returns(StdDaoToken) {\n\t\trequire(_tokenIndex < tokens.length);\n\t\treturn tokens[_tokenIndex];\n\t}\n\n\tfunction getProposalAtIndex(uint _proposalIndex) external view returns(IProposal) {\n\t\trequire(_proposalIndex < proposals.length);\n\t\treturn proposals[_proposalIndex];\n\t}\n\n\tfunction getObserverAtIndex(uint _observerIndex) external view returns(IDaoObserver) {\n\t\trequire(_observerIndex < observers.length);\n\t\treturn observers[_observerIndex];\n\t}\n\n\tfunction getTokensCount() external view returns(uint) {\n\t\treturn tokens.length;\n\t}\n\n\tfunction getProposalsCount() external view returns(uint) {\n\t\treturn proposals.length;\n\t}\n\n\tfunction getObserversCount() external view returns(uint) {\n\t\treturn observers.length;\n\t}\n\n\tfunction getAllTokenAddresses() external view returns(StdDaoToken[]) {\n\t\treturn tokens;\n\t}\n\n\tfunction getAllProposals() external view returns(IProposal[]) {\n\t\treturn proposals;\n\t}\n\n\tfunction getAllObservers() external view returns(IDaoObserver[]) {\n\t\treturn observers;\n\t}\n\n\tfunction getGroupsMemberAtIndex(bytes32 _groupHash, uint _memberIndex) public view returns(address) {\n\t\trequire(_memberIndex < groupToAddresses[_groupHash].length);\n\t\treturn groupToAddresses[_groupHash][_memberIndex];\n\t}\n\n\tfunction getMembersGroupAtIndex(address _member, uint _groupIndex) public view returns(bytes32) {\n\t\trequire(_groupIndex < addressToGroups[_member].length);\n\t\treturn addressToGroups[_member][_groupIndex];\n\t}\n\n\tfunction getMembersCount(bytes32 _groupHash) public view returns(uint) {\n\t\treturn groupToAddresses[_groupHash].length;\n\t}\n\n\tfunction getMembersGroupCount(address _member) public view returns(uint) {\n\t\treturn addressToGroups[_member].length;\n\t}\t\n\n\tfunction getGroupMembers(bytes32 _groupHash) public view returns(address[]) {\n\t\treturn groupToAddresses[_groupHash];\n\t}\n\n\tfunction getMemberGroups(address _member) public view returns(bytes32[]) {\n\t\treturn addressToGroups[_member];\n\t}\n\n\tfunction isGroupMember(bytes32 _groupHash, address _member) public view returns(bool) {\n\t\treturn UtilsLib.isAddressInArray(groupToAddresses[_groupHash], _member);\n\t}\n\n// ------------------ SETTERS\n\tfunction allowActionByShareholder(bytes32 _permissionHash, address _tokenAddress) external onlyOwner {\n\t\tactionAvailabilityByShareholder[_tokenAddress][_permissionHash] = true;\n\t}\n\n\tfunction allowActionByVoting(bytes32 _permissionHash, address _tokenAddress) external onlyOwner {\n\t\tactionAvailabilityByVoting[_tokenAddress][_permissionHash] = true;\n\t}\n\n\tfunction allowActionByAddress(bytes32 _permissionHash, address _targetAddress) external onlyOwner {\n\t\tactionAvailabilityByAddress[_targetAddress][_permissionHash] = true;\n\t}\n\n\tfunction allowActionByAnyMemberOfGroup(bytes32 _permissionHash, bytes32 _groupHash) external onlyOwner {\n\t\tactionAvailabilityByMembership[_groupHash][_permissionHash] = true;\n\t}\n\n\tfunction addToken(address _token) external onlyOwner {\n\t\ttokens.push(StdDaoToken(_token));\n\t}\n\n\tfunction addProposal(IProposal _proposal) external onlyOwner {\n\t\tproposals.push(_proposal);\n\t}\n\n\tfunction addObserver(IDaoObserver _observer) external {\n\t\tobservers.push(_observer);\n\t}\n\n\tfunction addGroupMember(bytes32 _groupHash, address _newMember) external onlyOwner {\n\t\trequire(!UtilsLib.isAddressInArray(groupToAddresses[_groupHash], _newMember));\n\t\taddressToGroups[_newMember].push(_groupHash);\n\t\tgroupToAddresses[_groupHash].push(_newMember);\n\t}\n\n//------------------ RESTRICT/REMOVE\t\n\tfunction restrictActionByShareholder(bytes32 _permissionHash, address _tokenAddress) external onlyOwner {\n\t\tactionAvailabilityByShareholder[_tokenAddress][_permissionHash] = false;\n\t}\n\n\tfunction restrictActionByVoting(bytes32 _permissionHash, address _tokenAddress) external onlyOwner {\n\t\tactionAvailabilityByVoting[_tokenAddress][_permissionHash] = false;\n\t}\n\n\tfunction restrictActionByAddress(bytes32 _permissionHash, address _targetAddress) external onlyOwner {\n\t\tactionAvailabilityByAddress[_targetAddress][_permissionHash] = false;\n\t}\n\n\tfunction restrictActionByGroupMembership(bytes32 _permissionHash, bytes32 _groupHash) external onlyOwner {\n\t\tactionAvailabilityByMembership[_groupHash][_permissionHash] = false;\n\t}\n\n\tfunction removeGroupMember(bytes32 _groupHash, address _member) external onlyOwner {\n\t\trequire(UtilsLib.isAddressInArray(groupToAddresses[_groupHash], _member));\n\t\trequire(UtilsLib.isBytes32InArray(addressToGroups[_member], _groupHash));\n\t\tUtilsLib.removeBytes32FromArray(addressToGroups[_member], _groupHash);\n\t\tUtilsLib.removeAddressFromArray(groupToAddresses[_groupHash], _member);\n\t}\n\n\tfunction removeProposal(IProposal _proposal) external onlyOwner {\n\t\tUtilsLib.removeProposalFromArray(proposals, _proposal);\n\t}\n\n\tfunction removeObserver(IDaoObserver _observer) external onlyOwner {\n\t\tUtilsLib.removeDaoObserverFromArray(observers, _observer);\n\t}\n}\n",
  "sourcePath": "@thetta/core/contracts/DaoStorage.sol",
  "compiler": {
    "name": "solc",
    "version": "0.4.24+commit.e67f0147.Emscripten.clang"
  },
  "schemaVersion": "2.0.1",
  "updatedAt": "2018-09-08T22:00:56.403Z"
}