{
  "contractName": "Ledger",
  "abi": [
    {
      "constant": true,
      "inputs": [
        {
          "name": "_interfaceId",
          "type": "bytes4"
        }
      ],
      "name": "supportsInterface",
      "outputs": [
        {
          "name": "",
          "type": "bool"
        }
      ],
      "payable": false,
      "stateMutability": "view",
      "type": "function"
    },
    {
      "constant": true,
      "inputs": [],
      "name": "name",
      "outputs": [
        {
          "name": "",
          "type": "string"
        }
      ],
      "payable": false,
      "stateMutability": "view",
      "type": "function"
    },
    {
      "constant": true,
      "inputs": [
        {
          "name": "_tokenId",
          "type": "uint256"
        }
      ],
      "name": "getApproved",
      "outputs": [
        {
          "name": "",
          "type": "address"
        }
      ],
      "payable": false,
      "stateMutability": "view",
      "type": "function"
    },
    {
      "constant": false,
      "inputs": [
        {
          "name": "_to",
          "type": "address"
        },
        {
          "name": "_tokenId",
          "type": "uint256"
        }
      ],
      "name": "approve",
      "outputs": [],
      "payable": false,
      "stateMutability": "nonpayable",
      "type": "function"
    },
    {
      "constant": true,
      "inputs": [],
      "name": "totalSupply",
      "outputs": [
        {
          "name": "",
          "type": "uint256"
        }
      ],
      "payable": false,
      "stateMutability": "view",
      "type": "function"
    },
    {
      "constant": true,
      "inputs": [],
      "name": "InterfaceId_ERC165",
      "outputs": [
        {
          "name": "",
          "type": "bytes4"
        }
      ],
      "payable": false,
      "stateMutability": "view",
      "type": "function"
    },
    {
      "constant": false,
      "inputs": [
        {
          "name": "_from",
          "type": "address"
        },
        {
          "name": "_to",
          "type": "address"
        },
        {
          "name": "_tokenId",
          "type": "uint256"
        }
      ],
      "name": "transferFrom",
      "outputs": [],
      "payable": false,
      "stateMutability": "nonpayable",
      "type": "function"
    },
    {
      "constant": true,
      "inputs": [
        {
          "name": "_owner",
          "type": "address"
        },
        {
          "name": "_index",
          "type": "uint256"
        }
      ],
      "name": "tokenOfOwnerByIndex",
      "outputs": [
        {
          "name": "",
          "type": "uint256"
        }
      ],
      "payable": false,
      "stateMutability": "view",
      "type": "function"
    },
    {
      "constant": false,
      "inputs": [
        {
          "name": "_from",
          "type": "address"
        },
        {
          "name": "_to",
          "type": "address"
        },
        {
          "name": "_tokenId",
          "type": "uint256"
        }
      ],
      "name": "safeTransferFrom",
      "outputs": [],
      "payable": false,
      "stateMutability": "nonpayable",
      "type": "function"
    },
    {
      "constant": true,
      "inputs": [
        {
          "name": "_tokenId",
          "type": "uint256"
        }
      ],
      "name": "exists",
      "outputs": [
        {
          "name": "",
          "type": "bool"
        }
      ],
      "payable": false,
      "stateMutability": "view",
      "type": "function"
    },
    {
      "constant": true,
      "inputs": [
        {
          "name": "_index",
          "type": "uint256"
        }
      ],
      "name": "tokenByIndex",
      "outputs": [
        {
          "name": "",
          "type": "uint256"
        }
      ],
      "payable": false,
      "stateMutability": "view",
      "type": "function"
    },
    {
      "constant": true,
      "inputs": [
        {
          "name": "_tokenId",
          "type": "uint256"
        }
      ],
      "name": "ownerOf",
      "outputs": [
        {
          "name": "",
          "type": "address"
        }
      ],
      "payable": false,
      "stateMutability": "view",
      "type": "function"
    },
    {
      "constant": true,
      "inputs": [
        {
          "name": "_owner",
          "type": "address"
        }
      ],
      "name": "balanceOf",
      "outputs": [
        {
          "name": "",
          "type": "uint256"
        }
      ],
      "payable": false,
      "stateMutability": "view",
      "type": "function"
    },
    {
      "constant": true,
      "inputs": [],
      "name": "symbol",
      "outputs": [
        {
          "name": "",
          "type": "string"
        }
      ],
      "payable": false,
      "stateMutability": "view",
      "type": "function"
    },
    {
      "constant": false,
      "inputs": [
        {
          "name": "_to",
          "type": "address"
        },
        {
          "name": "_approved",
          "type": "bool"
        }
      ],
      "name": "setApprovalForAll",
      "outputs": [],
      "payable": false,
      "stateMutability": "nonpayable",
      "type": "function"
    },
    {
      "constant": false,
      "inputs": [
        {
          "name": "_from",
          "type": "address"
        },
        {
          "name": "_to",
          "type": "address"
        },
        {
          "name": "_tokenId",
          "type": "uint256"
        },
        {
          "name": "_data",
          "type": "bytes"
        }
      ],
      "name": "safeTransferFrom",
      "outputs": [],
      "payable": false,
      "stateMutability": "nonpayable",
      "type": "function"
    },
    {
      "constant": true,
      "inputs": [
        {
          "name": "_tokenId",
          "type": "uint256"
        }
      ],
      "name": "tokenURI",
      "outputs": [
        {
          "name": "",
          "type": "string"
        }
      ],
      "payable": false,
      "stateMutability": "view",
      "type": "function"
    },
    {
      "constant": true,
      "inputs": [
        {
          "name": "_owner",
          "type": "address"
        },
        {
          "name": "_operator",
          "type": "address"
        }
      ],
      "name": "isApprovedForAll",
      "outputs": [
        {
          "name": "",
          "type": "bool"
        }
      ],
      "payable": false,
      "stateMutability": "view",
      "type": "function"
    },
    {
      "inputs": [],
      "payable": false,
      "stateMutability": "nonpayable",
      "type": "constructor"
    },
    {
      "anonymous": false,
      "inputs": [
        {
          "indexed": true,
          "name": "_from",
          "type": "address"
        },
        {
          "indexed": true,
          "name": "_to",
          "type": "address"
        },
        {
          "indexed": true,
          "name": "_tokenId",
          "type": "uint256"
        }
      ],
      "name": "Transfer",
      "type": "event"
    },
    {
      "anonymous": false,
      "inputs": [
        {
          "indexed": true,
          "name": "_owner",
          "type": "address"
        },
        {
          "indexed": true,
          "name": "_approved",
          "type": "address"
        },
        {
          "indexed": true,
          "name": "_tokenId",
          "type": "uint256"
        }
      ],
      "name": "Approval",
      "type": "event"
    },
    {
      "anonymous": false,
      "inputs": [
        {
          "indexed": true,
          "name": "_owner",
          "type": "address"
        },
        {
          "indexed": true,
          "name": "_operator",
          "type": "address"
        },
        {
          "indexed": false,
          "name": "_approved",
          "type": "bool"
        }
      ],
      "name": "ApprovalForAll",
      "type": "event"
    },
    {
      "constant": false,
      "inputs": [],
      "name": "deposit",
      "outputs": [],
      "payable": true,
      "stateMutability": "payable",
      "type": "function"
    },
    {
      "constant": true,
      "inputs": [],
      "name": "getDepositBalance",
      "outputs": [
        {
          "name": "",
          "type": "uint256"
        }
      ],
      "payable": false,
      "stateMutability": "view",
      "type": "function"
    },
    {
      "constant": false,
      "inputs": [
        {
          "name": "_amountWei",
          "type": "uint256"
        }
      ],
      "name": "withdraw",
      "outputs": [],
      "payable": false,
      "stateMutability": "nonpayable",
      "type": "function"
    },
    {
      "constant": false,
      "inputs": [
        {
          "name": "_sideB",
          "type": "address"
        },
        {
          "name": "_amountWei",
          "type": "uint256"
        },
        {
          "name": "_overdraftPpm",
          "type": "uint256"
        },
        {
          "name": "_interestRatePpm",
          "type": "uint256"
        },
        {
          "name": "_numberOfPeriods",
          "type": "uint256"
        },
        {
          "name": "_periodSeconds",
          "type": "uint256"
        },
        {
          "name": "_startingDate",
          "type": "uint256"
        }
      ],
      "name": "allowAndDeposit",
      "outputs": [],
      "payable": true,
      "stateMutability": "payable",
      "type": "function"
    },
    {
      "constant": true,
      "inputs": [],
      "name": "getMyAllowancesCount",
      "outputs": [
        {
          "name": "",
          "type": "uint256"
        }
      ],
      "payable": false,
      "stateMutability": "view",
      "type": "function"
    },
    {
      "constant": true,
      "inputs": [
        {
          "name": "_index",
          "type": "uint256"
        }
      ],
      "name": "getMyAllowanceInfo",
      "outputs": [
        {
          "name": "sideB",
          "type": "address"
        },
        {
          "name": "amountWei",
          "type": "uint256"
        },
        {
          "name": "overdraftPpm",
          "type": "uint256"
        },
        {
          "name": "interestRatePpm",
          "type": "uint256"
        },
        {
          "name": "periodSeconds",
          "type": "uint256"
        },
        {
          "name": "startingDate",
          "type": "uint256"
        }
      ],
      "payable": false,
      "stateMutability": "view",
      "type": "function"
    },
    {
      "constant": false,
      "inputs": [
        {
          "name": "_index",
          "type": "uint256"
        },
        {
          "name": "_amountWei",
          "type": "uint256"
        },
        {
          "name": "_overdraftPpm",
          "type": "uint256"
        },
        {
          "name": "_interestRatePpm",
          "type": "uint256"
        },
        {
          "name": "_periodSeconds",
          "type": "uint256"
        },
        {
          "name": "_startingDate",
          "type": "uint256"
        }
      ],
      "name": "editMyAllowance",
      "outputs": [],
      "payable": false,
      "stateMutability": "nonpayable",
      "type": "function"
    },
    {
      "constant": true,
      "inputs": [
        {
          "name": "_sideA",
          "type": "address"
        },
        {
          "name": "_sideB",
          "type": "address"
        }
      ],
      "name": "isOverdrafted",
      "outputs": [
        {
          "name": "",
          "type": "bool"
        }
      ],
      "payable": false,
      "stateMutability": "view",
      "type": "function"
    },
    {
      "constant": false,
      "inputs": [
        {
          "name": "_sideB",
          "type": "address"
        }
      ],
      "name": "clearOverdraftedFlag",
      "outputs": [],
      "payable": false,
      "stateMutability": "nonpayable",
      "type": "function"
    },
    {
      "constant": true,
      "inputs": [],
      "name": "getAllowancesCount",
      "outputs": [
        {
          "name": "",
          "type": "uint256"
        }
      ],
      "payable": false,
      "stateMutability": "view",
      "type": "function"
    },
    {
      "constant": true,
      "inputs": [
        {
          "name": "_index",
          "type": "uint256"
        }
      ],
      "name": "getAllowanceInfo",
      "outputs": [
        {
          "name": "sideA",
          "type": "address"
        },
        {
          "name": "amountWei",
          "type": "uint256"
        },
        {
          "name": "overdraftPpm",
          "type": "uint256"
        },
        {
          "name": "interestRatePpm",
          "type": "uint256"
        },
        {
          "name": "periodSeconds",
          "type": "uint256"
        },
        {
          "name": "startingDate",
          "type": "uint256"
        }
      ],
      "payable": false,
      "stateMutability": "view",
      "type": "function"
    },
    {
      "constant": false,
      "inputs": [
        {
          "name": "_index",
          "type": "uint256"
        },
        {
          "name": "_to",
          "type": "address"
        }
      ],
      "name": "transferAllowance",
      "outputs": [],
      "payable": false,
      "stateMutability": "nonpayable",
      "type": "function"
    },
    {
      "constant": false,
      "inputs": [
        {
          "name": "_index",
          "type": "uint256"
        },
        {
          "name": "_amountWei",
          "type": "uint256"
        }
      ],
      "name": "charge",
      "outputs": [],
      "payable": false,
      "stateMutability": "nonpayable",
      "type": "function"
    },
    {
      "constant": true,
      "inputs": [
        {
          "name": "_index",
          "type": "uint256"
        }
      ],
      "name": "calculateAllowedPlusOverdraft",
      "outputs": [
        {
          "name": "",
          "type": "uint256"
        }
      ],
      "payable": false,
      "stateMutability": "view",
      "type": "function"
    }
  ],
  "bytecode": "0x60806040523480156200001157600080fd5b50604080518082018252600581527f50756c6c790000000000000000000000000000000000000000000000000000006020808301919091528251808401909352600483527f50554c4c000000000000000000000000000000000000000000000000000000009083015290620000af7f01ffc9a700000000000000000000000000000000000000000000000000000000640100000000620001b3810204565b620000e37f80ac58cd00000000000000000000000000000000000000000000000000000000640100000000620001b3810204565b620001177f4f558e7900000000000000000000000000000000000000000000000000000000640100000000620001b3810204565b81516200012c90600590602085019062000220565b5080516200014290600690602084019062000220565b50620001777f780e9d6300000000000000000000000000000000000000000000000000000000640100000000620001b3810204565b620001ab7f5b5e139f00000000000000000000000000000000000000000000000000000000640100000000620001b3810204565b5050620002c5565b7fffffffff000000000000000000000000000000000000000000000000000000008082161415620001e357600080fd5b7fffffffff00000000000000000000000000000000000000000000000000000000166000908152602081905260409020805460ff19166001179055565b828054600181600116156101000203166002900490600052602060002090601f016020900481019282601f106200026357805160ff191683800117855562000293565b8280016001018555821562000293579182015b828111156200029357825182559160200191906001019062000276565b50620002a1929150620002a5565b5090565b620002c291905b80821115620002a15760008155600101620002ac565b90565b611e0a80620002d56000396000f3006080604052600436106101955763ffffffff7c010000000000000000000000000000000000000000000000000000000060003504166301ffc9a7811461019a5780630497de4a146101d057806306fdde03146101f7578063081812fc14610281578063095ea7b3146102b557806312eb6f79146102db57806318160ddd1461030257806319fa8f501461031757806323b872dd146103495780632cc5af88146103735780632e1a7d4d1461038e5780632f745c59146103a65780632f984d95146103ca5780633d280261146103df57806342842e0e146103f757806344e1bd2c146104215780634b5f5e8b146104485780634f558e791461046c5780634f6ccce7146104845780636352211e1461049c57806370a08231146104b457806395d89b41146104d5578063a22cb465146104ea578063a499aad014610510578063b88d4fde14610565578063bbfc7454146105d4578063c87b56dd146105ec578063d0e30db014610604578063d6137fa21461060c578063e985e9c51461062d578063f3ff898414610654578063f586df401461067a575b600080fd5b3480156101a657600080fd5b506101bc600160e060020a03196004351661068f565b604080519115158252519081900360200190f35b3480156101dc57600080fd5b506101e56106ae565b60408051918252519081900360200190f35b34801561020357600080fd5b5061020c6106c2565b6040805160208082528351818301528351919283929083019185019080838360005b8381101561024657818101518382015260200161022e565b50505050905090810190601f1680156102735780820380516001836020036101000a031916815260200191505b509250505060405180910390f35b34801561028d57600080fd5b50610299600435610758565b60408051600160a060020a039092168252519081900360200190f35b3480156102c157600080fd5b506102d9600160a060020a0360043516602435610773565b005b3480156102e757600080fd5b506101bc600160a060020a0360043581169060243516610829565b34801561030e57600080fd5b506101e5610857565b34801561032357600080fd5b5061032c61085d565b60408051600160e060020a03199092168252519081900360200190f35b34801561035557600080fd5b506102d9600160a060020a0360043581169060243516604435610881565b34801561037f57600080fd5b506102d9600435602435610924565b34801561039a57600080fd5b506102d9600435610b2d565b3480156103b257600080fd5b506101e5600160a060020a0360043516602435610b84565b3480156103d657600080fd5b506101e5610bd1565b3480156103eb57600080fd5b506101e5600435610be7565b34801561040357600080fd5b506102d9600160a060020a0360043581169060243516604435610c67565b34801561042d57600080fd5b506102d960043560243560443560643560843560a435610c88565b34801561045457600080fd5b506102d9600435600160a060020a0360243516610c90565b34801561047857600080fd5b506101bc600435610f0e565b34801561049057600080fd5b506101e5600435610f2b565b3480156104a857600080fd5b50610299600435610f60565b3480156104c057600080fd5b506101e5600160a060020a0360043516610f8a565b3480156104e157600080fd5b5061020c610fbd565b3480156104f657600080fd5b506102d9600160a060020a0360043516602435151561101e565b34801561051c57600080fd5b506105286004356110a2565b60408051600160a060020a0390971687526020870195909552858501939093526060850191909152608084015260a0830152519081900360c00190f35b34801561057157600080fd5b50604080516020601f6064356004818101359283018490048402850184019095528184526102d994600160a060020a0381358116956024803590921695604435953695608494019181908401838280828437509497506111269650505050505050565b3480156105e057600080fd5b5061052860043561114e565b3480156105f857600080fd5b5061020c6004356111e2565b6102d9611297565b34801561061857600080fd5b506102d9600160a060020a03600435166112ae565b34801561063957600080fd5b506101bc600160a060020a03600435811690602435166112dc565b6102d9600160a060020a036004351660243560443560643560843560a43560c43561130a565b34801561068657600080fd5b506101e5611352565b600160e060020a03191660009081526020819052604090205460ff1690565b336000908152600c60205260409020545b90565b60058054604080516020601f600260001961010060018816150201909516949094049384018190048102820181019092528281526060939092909183018282801561074e5780601f106107235761010080835404028352916020019161074e565b820191906000526020600020905b81548152906001019060200180831161073157829003601f168201915b5050505050905090565b600090815260026020526040902054600160a060020a031690565b600061077e82610f60565b9050600160a060020a03838116908216141561079957600080fd5b33600160a060020a03821614806107b557506107b581336112dc565b15156107c057600080fd5b600082815260026020526040808220805473ffffffffffffffffffffffffffffffffffffffff1916600160a060020a0387811691821790925591518593918516917f8c5be1e5ebec7d5bd14f71427d1e84f3dd0314c0f7b2291e5b200ac8c7c3b92591a4505050565b600160a060020a039182166000908152600d6020908152604080832093909416825291909152205460ff1690565b60095490565b7f01ffc9a70000000000000000000000000000000000000000000000000000000081565b61088b3382611368565b151561089657600080fd5b600160a060020a03831615156108ab57600080fd5b600160a060020a03821615156108c057600080fd5b6108ca83826113c7565b6108d48382611436565b6108de828261153d565b8082600160a060020a031684600160a060020a03167fddf252ad1be2c89b69c2b068fc378daa952ba7f163c4a11628f55a4df523b3ef60405160405180910390a4505050565b6000806000610931611352565b851061093c57600080fd5b336000908152600c6020526040902060030180548690811061095a57fe5b90600052602060002001549250600e6000848152602001908152602001600020915061098585610be7565b90508084111561099457600080fd5b60078201544210156109a557600080fd5b600682015460078301540142106109bb57600080fd5b60038201548411610a605760408051610120810182528354600160a060020a0380821683527401000000000000000000000000000000000000000090910460ff161515602083015260018501548116928201929092526002840154909116606082015260038301546080820152600483015460a0820152600583015460c0820152600683015460e08201526007830154610100820152610a5b9085611586565b610b26565b60018281018054600160a060020a039081166000908152600d602090815260408083206002890180548616855290835292819020805460ff19169096179095558451610120810186528754808516825274010000000000000000000000000000000000000000900460ff1615159181019190915292548216938301939093529154909116606082015260038301546080820152600483015460a0820152600583015460c0820152600683015460e08201526007830154610100820152610b269085611586565b5050505050565b610b356106ae565b811115610b4157600080fd5b336000818152600c6020526040808220805485900390555183156108fc0291849190818181858888f19350505050158015610b80573d6000803e3d6000fd5b5050565b6000610b8f83610f8a565b8210610b9a57600080fd5b600160a060020a0383166000908152600760205260409020805483908110610bbe57fe5b9060005260206000200154905092915050565b336000908152600c602052604090206002015490565b6000806000610bf4611352565b8410610bff57600080fd5b336000908152600c60205260409020600301805485908110610c1d57fe5b90600052602060002001549150600e60008381526020019081526020016000209050629896808160040154826003015402811515610c5757fe5b0481600301540192505050919050565b610c838383836020604051908101604052806000815250611126565b505050565b505050505050565b6000806000610c9d611352565b8510610ca857600080fd5b336000908152600c60205260409020600301805486908110610cc657fe5b6000918252602080832090910154808352600e90915260409091208054919450925060ff74010000000000000000000000000000000000000000909104161515610d0f57600080fd5b610d1a338585610c67565b506000828152600e60205260408120600201805473ffffffffffffffffffffffffffffffffffffffff1916600160a060020a0386161790555b336000908152600c6020526040902060030154811015610dd257336000908152600c60205260409020600301805484919083908110610d8e57fe5b90600052602060002001541415610dca57336000908152600c60205260408120600301805483908110610dbd57fe5b6000918252602090912001555b600101610d53565b50600160a060020a0383166000908152600c6020908152604082206003018054600181018255908352908220018390555b600180830154600160a060020a03166000908152600d6020908152604080832033845290915290200154811015610ec957600180830154600160a060020a03166000908152600d60209081526040808320338452909152902001805484919083908110610e6c57fe5b90600052602060002001541415610ec157600180830154600160a060020a03166000908152600d602090815260408083203384529091528120909101805483908110610eb457fe5b6000918252602090912001555b600101610e03565b50600190810154600160a060020a039081166000908152600d602090815260408083209690931682529485529081208201805492830181558152929092209091015550565b600090815260016020526040902054600160a060020a0316151590565b6000610f35610857565b8210610f4057600080fd5b6009805483908110610f4e57fe5b90600052602060002001549050919050565b600081815260016020526040812054600160a060020a0316801515610f8457600080fd5b92915050565b6000600160a060020a0382161515610fa157600080fd5b50600160a060020a031660009081526003602052604090205490565b60068054604080516020601f600260001961010060018816150201909516949094049384018190048102820181019092528281526060939092909183018282801561074e5780601f106107235761010080835404028352916020019161074e565b600160a060020a03821633141561103457600080fd5b336000818152600460209081526040808320600160a060020a03871680855290835292819020805460ff1916861515908117909155815190815290519293927f17307eab39ab6107e8899845ad3d59bd9653f200f220920489ca2b5937696c31929181900390910190a35050565b336000908152600c6020526040812060020180548291829182918291829182918291908a9081106110cf57fe5b60009182526020808320909101548252600e90526040902060028101546003820154600483015460058401546006850154600790950154600160a060020a039094169e929d50909b50995091975095509350505050565b611131848484610881565b61113d848484846116c4565b151561114857600080fd5b50505050565b600080600080600080600080611162611352565b891061116d57600080fd5b336000908152600c6020526040902060030180548a90811061118b57fe5b60009182526020808320909101548252600e90526040902060018101546003820154600483015460058401546006850154600790950154600160a060020a039094169e929d50909b50995091975095509350505050565b60606111ed82610f0e565b15156111f857600080fd5b6000828152600b602090815260409182902080548351601f60026000196101006001861615020190931692909204918201849004840281018401909452808452909183018282801561128b5780601f106112605761010080835404028352916020019161128b565b820191906000526020600020905b81548152906001019060200180831161126e57829003601f168201915b50505050509050919050565b336000908152600c60205260409020805434019055565b336000908152600d60209081526040808320600160a060020a0394909416835292905220805460ff19169055565b600160a060020a03918216600090815260046020908152604080832093909416825291909152205460ff1690565b336000908152600c6020526040812080543401905581905b848110156113475761133b338a8a8a8a89886000611831565b90830190600101611322565b505050505050505050565b336000908152600c602052604090206003015490565b60008061137483610f60565b905080600160a060020a031684600160a060020a031614806113af575083600160a060020a03166113a484610758565b600160a060020a0316145b806113bf57506113bf81856112dc565b949350505050565b81600160a060020a03166113da82610f60565b600160a060020a0316146113ed57600080fd5b600081815260026020526040902054600160a060020a031615610b80576000908152600260205260409020805473ffffffffffffffffffffffffffffffffffffffff1916905550565b60008060006114458585611b3b565b600084815260086020908152604080832054600160a060020a038916845260079092529091205490935061148090600163ffffffff611bd116565b600160a060020a0386166000908152600760205260409020805491935090839081106114a857fe5b90600052602060002001549050806007600087600160a060020a0316600160a060020a03168152602001908152602001600020848154811015156114e857fe5b6000918252602080832090910192909255600160a060020a038716815260079091526040902080549061151f906000198301611d32565b50600093845260086020526040808520859055908452909220555050565b60006115498383611be3565b50600160a060020a039091166000908152600760209081526040808320805460018101825590845282842081018590559383526008909152902055565b604080830151600160a060020a03166000908152600c602052908120549081831161160f578360600151600160a060020a03166108fc849081150290604051600060405180830381858888f193505050501580156115e8573d6000803e3d6000fd5b50604080850151600160a060020a03166000908152600c6020522080548490039055611148565b8360600151600160a060020a03166108fc839081150290604051600060405180830381858888f1935050505015801561164c573d6000803e3d6000fd5b5061165d838363ffffffff611bd116565b60408581018051600160a060020a03166000908152600c6020529182209190915551606086015160c087015160a088015160e08901516101008a015195965061114895620f42408885020488019391906116bd908263ffffffff611c7316565b6001611831565b6000806116d985600160a060020a0316611c80565b15156116e85760019150611828565b6040517f150b7a020000000000000000000000000000000000000000000000000000000081523360048201818152600160a060020a03898116602485015260448401889052608060648501908152875160848601528751918a169463150b7a0294938c938b938b93909160a490910190602085019080838360005b8381101561177b578181015183820152602001611763565b50505050905090810190601f1680156117a85780820380516001836020036101000a031916815260200191505b5095505050505050602060405180830381600087803b1580156117ca57600080fd5b505af11580156117de573d6000803e3d6000fd5b505050506040513d60208110156117f457600080fd5b5051600160e060020a031981167f150b7a020000000000000000000000000000000000000000000000000000000014925090505b50949350505050565b600061183b611d56565b604080516c010000000000000000000000003381028252600160a060020a038c160260148201526028810186905260488101879052905190819003606801902091506118878983611c88565b60008160000190600160a060020a03169081600160a060020a03168152505082816020019015159081151581525050898160400190600160a060020a03169081600160a060020a031681525050888160600190600160a060020a03169081600160a060020a03168152505087816080018181525050868160a0018181525050858160c0018181525050848160e0018181525050838161010001818152505080600e600084815260200190815260200160002060008201518160000160006101000a815481600160a060020a030219169083600160a060020a0316021790555060208201518160000160146101000a81548160ff02191690831515021790555060408201518160010160006101000a815481600160a060020a030219169083600160a060020a0316021790555060608201518160020160006101000a815481600160a060020a030219169083600160a060020a031602179055506080820151816003015560a0820151816004015560c0820151816005015560e082015181600601556101008201518160070155905050600c600033600160a060020a0316600160a060020a03168152602001908152602001600020600201829080600181540180825580915050906001820390600052602060002001600090919290919091505550600c60008a600160a060020a0316600160a060020a03168152602001908152602001600020600301829080600181540180825580915050906001820390600052602060002001600090919290919091505550600d600033600160a060020a0316600160a060020a0316815260200190815260200160002060008a600160a060020a0316600160a060020a0316815260200190815260200160002060010182908060018154018082558091505090600182039060005260206000200160009091929091909150555050505050505050505050565b81600160a060020a0316611b4e82610f60565b600160a060020a031614611b6157600080fd5b600160a060020a038216600090815260036020526040902054611b8b90600163ffffffff611bd116565b600160a060020a03909216600090815260036020908152604080832094909455918152600190915220805473ffffffffffffffffffffffffffffffffffffffff19169055565b600082821115611bdd57fe5b50900390565b600081815260016020526040902054600160a060020a031615611c0557600080fd5b6000818152600160208181526040808420805473ffffffffffffffffffffffffffffffffffffffff1916600160a060020a0388169081179091558452600390915290912054611c5391611c73565b600160a060020a0390921660009081526003602052604090209190915550565b81810182811015610f8457fe5b6000903b1190565b611c928282611cd7565b600980546000838152600a60205260408120829055600182018355919091527f6e1540171b6c0c960b71a7020d9f60077f6af931a8bbf590da0223dacf75c7af015550565b600160a060020a0382161515611cec57600080fd5b611cf6828261153d565b6040518190600160a060020a038416906000907fddf252ad1be2c89b69c2b068fc378daa952ba7f163c4a11628f55a4df523b3ef908290a45050565b815481835581811115610c8357600083815260209020610c83918101908301611dc0565b610120604051908101604052806000600160a060020a031681526020016000151581526020016000600160a060020a031681526020016000600160a060020a0316815260200160008152602001600081526020016000815260200160008152602001600081525090565b6106bf91905b80821115611dda5760008155600101611dc6565b50905600a165627a7a72305820fcb71217c00c8148761f61077566336b00105038a4f54f15633b3d23a1579e8a0029",
  "source": "pragma solidity ^0.4.24;\r\n\r\nimport \"./ILedger.sol\";\r\n\r\nimport \"zeppelin-solidity/contracts/token/ERC721/ERC721Token.sol\";\r\nimport \"zeppelin-solidity/contracts/math/SafeMath.sol\";\r\n\r\ncontract Ledger is ISideA, ISideB, ERC721Token(\"Pully\",\"PULL\") {\r\n\tusing SafeMath for uint256;\r\n\r\n\tstruct UserState {\r\n\t\tuint currentBalance;\r\n\r\n\t\t// TODO: not used right now\r\n\t\taddress currentUnderwriter;\t\r\n\r\n\t\t// uint256 IDs\r\n\t\tuint256[] allAllowances;\r\n\t\tuint256[] allAllowancesFrom;\r\n\t}\r\n\r\n\tstruct Allowance {\r\n\t\t// by default we set the userState.currentUnderwriter\r\n\t\t// can be ZERO!\r\n\t\taddress underwriter;\r\n\r\n\t\t// if Allowance is generated because of overdraft -> i should be able to trasnfer it \r\n\t\t// (sell it or put into collateral)\r\n\t\tbool transferrable;\r\n\r\n\t\t// TODO: transfering ERC721 should update THIS !!!\r\n\t\taddress sideA;\r\n\t\taddress sideB;\r\n\t\tuint amountWei;\r\n\t\tuint overdraftPpm;\r\n\t\tuint interestRatePpm;\r\n\t\tuint periodSeconds;\r\n\t\tuint startingDate;\r\n\t}\r\n\r\n\tstruct UserToUserState {\r\n\t\t// TODO - write good comment here...\r\n\t\tbool isOverdrafted;\r\n\r\n\t\t// each allowance is connected with Allowance struct in the allowancesMetainfo\r\n\t\tuint256[] allowances;\r\n\t}\r\n\r\n\t// UserA -> UserState\r\n\tmapping (address=>UserState) userState;\r\n\t// UserA -> UserB -> UserToUserState\r\n\tmapping (address=>mapping(address=>UserToUserState)) user2userState;\r\n\t// ERC721 id -> Allowance (main storage of all allowances)\r\n\tmapping (uint256=>Allowance) allowancesMetainfo;\r\n\r\n////////////////////////////////////////////////////////////////////////////////////\r\n\tconstructor() public {\r\n\t}\r\n\r\n\tfunction deposit() public payable{\r\n\t\tuserState[msg.sender].currentBalance += msg.value;\r\n\t}\r\n\r\n\tfunction getDepositBalance() public view returns(uint) {\r\n\t\treturn userState[msg.sender].currentBalance;\r\n\t}\r\n\r\n\tfunction withdraw(uint _amountWei) public {\r\n\t\trequire(_amountWei <= getDepositBalance());\r\n\t\tuserState[msg.sender].currentBalance-=_amountWei;\r\n\t\tmsg.sender.transfer(_amountWei);\r\n\t}\r\n\r\n\tfunction allowAndDeposit(\r\n\t\taddress _sideB, \r\n\t\tuint _amountWei, \r\n\t\tuint _overdraftPpm, \r\n\t\tuint _interestRatePpm, \r\n\t\tuint _numberOfPeriods, \r\n\t\tuint _periodSeconds, \r\n\t\tuint _startingDate) public payable \r\n\t{\r\n\t\t// 1 - deposit (can be null!)\r\n\t\tuserState[msg.sender].currentBalance += msg.value;\r\n\r\n\t\t// 2 - create N allowances ...\r\n\t\tuint date = _startingDate;\r\n\t\tfor(uint i=0; i<_numberOfPeriods; ++i){\r\n\t\t\t_createNewAllowance(msg.sender, _sideB,\r\n\t\t\t\t\t\t\t_amountWei, \r\n\t\t\t\t\t\t\t_overdraftPpm, \r\n\t\t\t\t\t\t\t_interestRatePpm, \r\n\t\t\t\t\t\t\t_periodSeconds, \r\n\t\t\t\t\t\t\tdate,\r\n\t\t\t\t\t\t\tfalse);\r\n\r\n\t\t\tdate += _periodSeconds;\r\n\t\t}\r\n\t}\r\n\r\n\tfunction getMyAllowancesCount() public view returns(uint){\r\n\t\treturn userState[msg.sender].allAllowances.length;\r\n\t}\r\n\r\n\tfunction getMyAllowanceInfo(uint _index) public \r\n\t\tview returns(address sideB, uint amountWei, uint overdraftPpm, uint interestRatePpm, uint periodSeconds, uint startingDate)\r\n\t{\r\n\t\tuint256 erc721id = userState[msg.sender].allAllowances[_index];\r\n\t\tAllowance a = allowancesMetainfo[erc721id];\r\n\r\n\t\tsideB = a.sideB;\r\n\t\tamountWei = a.amountWei;\r\n\t\toverdraftPpm = a.overdraftPpm;\r\n\t\tinterestRatePpm = a.interestRatePpm;\r\n\t\tperiodSeconds = a.periodSeconds;\r\n\t\tstartingDate = a.startingDate;\r\n\t}\r\n\r\n\t// edit each allowance manually \r\n\tfunction editMyAllowance(\r\n\t\tuint _index, \r\n\t\tuint _amountWei, \r\n\t\tuint _overdraftPpm, \r\n\t\tuint _interestRatePpm,\r\n\t\tuint _periodSeconds, \r\n\t\tuint _startingDate) public \r\n\t{\r\n\t\t// TODO: left for the future version\r\n\t}\r\n\r\n// 3 - overdrafted flag\r\n\t// if you have asked for more than current AllowedAmount and less than AllowedAmount + overdraft\r\n\tfunction isOverdrafted(address _sideA, address _sideB) public view returns(bool){\r\n\t\treturn user2userState[_sideA][_sideB].isOverdrafted;\r\n\t}\r\n\r\n\t// should be called by the SideA for the SideB\r\n\tfunction clearOverdraftedFlag(address _sideB) public {\r\n\t\tuser2userState[msg.sender][_sideB].isOverdrafted = false;\r\n\t}\r\n\r\n// SideB\r\n\tfunction getAllowancesCount() public view returns(uint){\r\n\t\treturn userState[msg.sender].allAllowancesFrom.length;\r\n\t}\r\n\r\n\tfunction getAllowanceInfo(uint _index) public \r\n\t\tview returns(address sideA, uint amountWei, uint overdraftPpm, uint interestRatePpm, uint periodSeconds, uint startingDate)\r\n\t{\r\n\t\trequire(_index < getAllowancesCount());\r\n\r\n\t\tuint256 erc721id = userState[msg.sender].allAllowancesFrom[_index];\r\n\t\tAllowance a = allowancesMetainfo[erc721id];\r\n\r\n\t\tsideA = a.sideA;\r\n\t\tamountWei = a.amountWei;\r\n\t\toverdraftPpm = a.overdraftPpm;\r\n\t\tinterestRatePpm = a.interestRatePpm;\r\n\t\tperiodSeconds = a.periodSeconds;\r\n\t\tstartingDate = a.startingDate;\r\n\t}\r\n\r\n\t// only for 'transferrable allowances' that were generated automatically in case of overdraft\r\n\tfunction transferAllowance(uint _index, address _to) public {\r\n\t\trequire(_index < getAllowancesCount());\r\n\r\n\t\tuint256 erc721id = userState[msg.sender].allAllowancesFrom[_index];\r\n\t\tAllowance a = allowancesMetainfo[erc721id];\r\n\t\trequire(a.transferrable);\r\n\r\n\t\t// 1 - move ERC721 token to _to address \r\n\t\tsafeTransferFrom(msg.sender, _to, erc721id);\r\n\r\n\t\t// 2 - change all internal structs \r\n\t\t// 2.1 allowancesMetainfo \r\n\t\tallowancesMetainfo[erc721id].sideB = _to;\r\n\r\n\t\t// 2.2 userState \r\n\t\t// remove allowance from msg.sender \r\n\t\t// TODO: very shitty loop!\r\n\t\tfor(uint i=0; i<userState[msg.sender].allAllowancesFrom.length; ++i){\r\n\t\t\tif(userState[msg.sender].allAllowancesFrom[i]==erc721id){\r\n\t\t\t\tuserState[msg.sender].allAllowancesFrom[i] = 0;\r\n\t\t\t}\r\n\t\t}\r\n\r\n\t\t// add allowance to _to\r\n\t\tuserState[_to].allAllowancesFrom.push(erc721id);\r\n\r\n\t\t// 2.3 user2userState \r\n\t\t// TODO: very shitty loop!\r\n\t\tfor(i=0; i<user2userState[a.sideA][msg.sender].allowances.length; ++i){\r\n\t\t\tif(user2userState[a.sideA][msg.sender].allowances[i]==erc721id){\r\n\t\t\t\t// remove it from A -> B\r\n\t\t\t\tuser2userState[a.sideA][msg.sender].allowances[i] = 0;\r\n\t\t\t}\r\n\t\t}\r\n\r\n\t\t// connect it A -> TO\r\n\t\tuser2userState[a.sideA][_to].allowances.push(erc721id);\r\n\t}\r\n\r\n\t// will either return money OR \r\n\t// will return money + generate new allowance (plus interested) to the SideB (me)\r\n\t// _index is index in the SideB's allowances\r\n\tfunction charge(uint _index, uint _amountWei) public {\r\n\t\trequire(_index < getAllowancesCount());\r\n\r\n\t\t// 1 - calc everything\r\n\t\tuint256 erc721id = userState[msg.sender].allAllowancesFrom[_index];\r\n\t\tAllowance a = allowancesMetainfo[erc721id];\r\n\r\n\t\t// overdraft is in PPM\r\n\t\t// 1% is 10000 PPMs\r\n\t\tuint AA_with_OD = calculateAllowedPlusOverdraft(_index);\r\n\t\trequire(_amountWei <= AA_with_OD);\r\n\r\n\t\t// 2 - check that startingDate is OK\r\n\t\trequire(block.timestamp >= a.startingDate);\r\n\t\trequire(block.timestamp < (a.startingDate + a.periodSeconds));\r\n\r\n\t\t// 3 - go charge SideA!\r\n\t\tif(_amountWei <= a.amountWei){\r\n\t\t\t// if we are asking less than AA\r\n\t\t\t_charge(a, _amountWei);\r\n\t\t} else {\r\n\t\t\t// if we are asking more than AA but less than AA + OD \r\n\t\t\t// set special flag\r\n\t\t\tuser2userState[a.sideA][a.sideB].isOverdrafted = true;\t\r\n\t\t\t_charge(a, _amountWei);\r\n\t\t}\r\n\t}\r\n\r\n\t// _index is a SideB's allowance index\r\n\tfunction calculateAllowedPlusOverdraft(uint _index) public view returns(uint){\r\n\t\trequire(_index < getAllowancesCount());\r\n\r\n\t\tuint256 erc721id = userState[msg.sender].allAllowancesFrom[_index];\r\n\t\tAllowance a = allowancesMetainfo[erc721id];\r\n\t\treturn a.amountWei + ((a.amountWei * a.overdraftPpm) / 10000000);\r\n\t}\r\n\r\n//////// Internal stuff\r\n\tfunction _createNewAllowance(address _from, address _to,\r\n\t\t\t\t\t\t\tuint _amountWei, \r\n\t\t\t\t\t\t\tuint _overdraftPpm, \r\n\t\t\t\t\t\t\tuint _interestRatePpm, \r\n\t\t\t\t\t\t\tuint _periodSeconds, \r\n\t\t\t\t\t\t\tuint _startingDate,\r\n\t\t\t\t\t\t\tbool _transferable) internal \r\n\t{\r\n\t\t// 1 - issue new ERC721 token \r\n\t\tuint256 newErc721Id = uint(keccak256(msg.sender, _to, _startingDate, _periodSeconds ));\t\t// TODO: generate new ID\r\n\t\tERC721Token._mint(_to, newErc721Id);\r\n\r\n\t\t// 2 - push Allowance struct to allowancesMetainfo\r\n\t\tAllowance memory a;\r\n\t\ta.underwriter = address(0); // Set address 0 for V0\r\n\t\ta.transferrable = _transferable;\r\n\t\ta.sideA = _from;\r\n\t\ta.sideB = _to;\r\n\t\ta.amountWei = _amountWei;\r\n\t\ta.overdraftPpm = _overdraftPpm;\r\n\t\ta.interestRatePpm = _interestRatePpm;\r\n\t\ta.periodSeconds = _periodSeconds;\r\n\t\ta.startingDate = _startingDate;\r\n\t\tallowancesMetainfo[newErc721Id] = a;\r\n\r\n\t\tuserState[msg.sender].allAllowances.push(newErc721Id);\r\n\t\tuserState[_to].allAllowancesFrom.push(newErc721Id);\r\n\t\t\r\n\t\tuser2userState[msg.sender][_to].allowances.push(newErc721Id);\r\n\t}\r\n\r\n\t// send money from SideA -> SideB\r\n\tfunction _charge(Allowance _a, uint _amountWanted) internal {\r\n\t\t// get current sideA balance \r\n\t\tuint balance = userState[_a.sideA].currentBalance;\r\n\r\n\t\tif(_amountWanted <= balance){\r\n\t\t\t// just send money \r\n\t\t\t_a.sideB.transfer(_amountWanted);\r\n\t\t\tuserState[_a.sideA].currentBalance -= _amountWanted;\r\n\t\t} else {\r\n\t\t\t// special outcome: if SideA has LESS money than SideB wants (and was allowed)\r\n\t\t\t// 1 - send all avail money\r\n\t\t\t_a.sideB.transfer(balance);\r\n\t\t\tuint remainder = _amountWanted.sub(balance);\r\n\t\t\tuserState[_a.sideA].currentBalance = 0;\r\n\r\n\t\t\t// 2 - create new allowance (plus interest!!!) and transfer it to SideB \r\n\t\t\t_createNewAllowance(\r\n\t\t\t\t\t\t\t_a.sideA,\r\n\t\t\t\t\t\t\t_a.sideB,\r\n\t\t\t\t\t\t\tremainder + remainder * _a.interestRatePpm/1000000, \r\n\t\t\t\t\t\t\t_a.overdraftPpm, \r\n\t\t\t\t\t\t\t_a.interestRatePpm, \r\n\t\t\t\t\t\t\t_a.periodSeconds, \r\n\t\t\t\t\t\t\t_a.startingDate.add(_a.periodSeconds),\r\n\t\t\t\t\t\t\ttrue);\r\n\t\t}\r\n\t}\r\n}\r\n",
  "sourcePath": "D:\\Projects\\ETHBerlin\\TechnoDebit\\contracts\\Ledger.sol",
  "compiler": {
    "name": "solc",
    "version": "0.4.24+commit.e67f0147.Emscripten.clang"
  },
  "schemaVersion": "2.0.1",
  "updatedAt": "2018-09-08T16:32:59.424Z"
}