{
  "contractName": "Ledger",
  "abi": [
    {
      "inputs": [],
      "payable": false,
      "stateMutability": "nonpayable",
      "type": "constructor"
    },
    {
      "constant": false,
      "inputs": [],
      "name": "deposit",
      "outputs": [],
      "payable": true,
      "stateMutability": "payable",
      "type": "function"
    },
    {
      "constant": true,
      "inputs": [],
      "name": "getDepositBalance",
      "outputs": [
        {
          "name": "",
          "type": "uint256"
        }
      ],
      "payable": false,
      "stateMutability": "view",
      "type": "function"
    },
    {
      "constant": false,
      "inputs": [
        {
          "name": "_amountWei",
          "type": "uint256"
        }
      ],
      "name": "withdraw",
      "outputs": [],
      "payable": false,
      "stateMutability": "nonpayable",
      "type": "function"
    },
    {
      "constant": false,
      "inputs": [
        {
          "name": "_sideB",
          "type": "address"
        },
        {
          "name": "_amountWei",
          "type": "uint256"
        },
        {
          "name": "_overdraftPpm",
          "type": "uint256"
        },
        {
          "name": "_interestRatePpm",
          "type": "uint256"
        },
        {
          "name": "_numberOfPeriods",
          "type": "uint256"
        },
        {
          "name": "_periodSeconds",
          "type": "uint256"
        },
        {
          "name": "_startingDate",
          "type": "uint256"
        }
      ],
      "name": "allowAndDeposit",
      "outputs": [],
      "payable": true,
      "stateMutability": "payable",
      "type": "function"
    },
    {
      "constant": true,
      "inputs": [],
      "name": "getMyAllowancesCount",
      "outputs": [
        {
          "name": "",
          "type": "uint256"
        }
      ],
      "payable": false,
      "stateMutability": "view",
      "type": "function"
    },
    {
      "constant": true,
      "inputs": [
        {
          "name": "_index",
          "type": "uint256"
        }
      ],
      "name": "getMyAllowanceInfo",
      "outputs": [
        {
          "name": "sideB",
          "type": "address"
        },
        {
          "name": "amountWei",
          "type": "uint256"
        },
        {
          "name": "overdraftPpm",
          "type": "uint256"
        },
        {
          "name": "interestRatePpm",
          "type": "uint256"
        },
        {
          "name": "periodSeconds",
          "type": "uint256"
        },
        {
          "name": "startingDate",
          "type": "uint256"
        }
      ],
      "payable": false,
      "stateMutability": "view",
      "type": "function"
    },
    {
      "constant": false,
      "inputs": [
        {
          "name": "_index",
          "type": "uint256"
        },
        {
          "name": "_amountWei",
          "type": "uint256"
        },
        {
          "name": "_overdraftPpm",
          "type": "uint256"
        },
        {
          "name": "_interestRatePpm",
          "type": "uint256"
        },
        {
          "name": "_periodSeconds",
          "type": "uint256"
        },
        {
          "name": "_startingDate",
          "type": "uint256"
        }
      ],
      "name": "editMyAllowance",
      "outputs": [],
      "payable": false,
      "stateMutability": "nonpayable",
      "type": "function"
    },
    {
      "constant": true,
      "inputs": [
        {
          "name": "_sideA",
          "type": "address"
        },
        {
          "name": "_sideB",
          "type": "address"
        }
      ],
      "name": "isOverdrafted",
      "outputs": [
        {
          "name": "",
          "type": "bool"
        }
      ],
      "payable": false,
      "stateMutability": "view",
      "type": "function"
    },
    {
      "constant": false,
      "inputs": [
        {
          "name": "_sideB",
          "type": "address"
        }
      ],
      "name": "clearOverdraftedFlag",
      "outputs": [],
      "payable": false,
      "stateMutability": "nonpayable",
      "type": "function"
    },
    {
      "constant": true,
      "inputs": [],
      "name": "getAllowancesCount",
      "outputs": [
        {
          "name": "",
          "type": "uint256"
        }
      ],
      "payable": false,
      "stateMutability": "view",
      "type": "function"
    },
    {
      "constant": true,
      "inputs": [
        {
          "name": "_index",
          "type": "uint256"
        }
      ],
      "name": "getAllowanceInfo",
      "outputs": [
        {
          "name": "sideA",
          "type": "address"
        },
        {
          "name": "amountWei",
          "type": "uint256"
        },
        {
          "name": "overdraftPpm",
          "type": "uint256"
        },
        {
          "name": "interestRatePpm",
          "type": "uint256"
        },
        {
          "name": "periodSeconds",
          "type": "uint256"
        },
        {
          "name": "startingDate",
          "type": "uint256"
        }
      ],
      "payable": false,
      "stateMutability": "view",
      "type": "function"
    },
    {
      "constant": false,
      "inputs": [
        {
          "name": "_index",
          "type": "uint256"
        },
        {
          "name": "_to",
          "type": "address"
        }
      ],
      "name": "transferAllowance",
      "outputs": [],
      "payable": false,
      "stateMutability": "nonpayable",
      "type": "function"
    },
    {
      "constant": false,
      "inputs": [
        {
          "name": "_index",
          "type": "uint256"
        },
        {
          "name": "_amountWei",
          "type": "uint256"
        }
      ],
      "name": "charge",
      "outputs": [],
      "payable": false,
      "stateMutability": "nonpayable",
      "type": "function"
    }
  ],
  "bytecode": "0x608060405234801561001057600080fd5b506107ec806100206000396000f3006080604052600436106100c45763ffffffff7c01000000000000000000000000000000000000000000000000000000006000350416630497de4a81146100c957806312eb6f79146100f05780632cc5af881461012b5780632e1a7d4d146101485780632f984d951461016057806344e1bd2c146101755780634b5f5e8b1461019c578063a499aad0146101c0578063bbfc745414610215578063d0e30db01461022d578063d6137fa214610235578063f3ff898414610256578063f586df401461027c575b600080fd5b3480156100d557600080fd5b506100de610291565b60408051918252519081900360200190f35b3480156100fc57600080fd5b50610117600160a060020a03600435811690602435166102a4565b604080519115158252519081900360200190f35b34801561013757600080fd5b506101466004356024356102d2565b005b34801561015457600080fd5b506101466004356102d6565b34801561016c57600080fd5b506100de610329565b34801561018157600080fd5b5061014660043560243560443560643560843560a43561033f565b3480156101a857600080fd5b50610146600435600160a060020a0360243516610347565b3480156101cc57600080fd5b506101d86004356103b7565b60408051600160a060020a0390971687526020870195909552858501939093526060850191909152608084015260a0830152519081900360c00190f35b34801561022157600080fd5b506101d8600435610450565b6101466104e7565b34801561024157600080fd5b50610146600160a060020a03600435166104fe565b610146600160a060020a036004351660243560443560643560843560a43560c43561052c565b34801561028857600080fd5b506100de610571565b3360009081526020819052604090205490565b600160a060020a03918216600090815260016020908152604080832093909416825291909152205460ff1690565b5050565b6102de610291565b8111156102ea57600080fd5b33600081815260208190526040808220805485900390555183156108fc0291849190818181858888f193505050501580156102d2573d6000803e3d6000fd5b3360009081526020819052604090206002015490565b505050505050565b33600090815260208190526040812060030180548291908590811061036857fe5b6000918252602080832090910154808352600290915260409091208054919350915060ff740100000000000000000000000000000000000000009091041615156103b157600080fd5b50505050565b60008060008060008060008060008033600160a060020a0316600160a060020a03168152602001908152602001600020600201898154811015156103f757fe5b600091825260208083209091015482526002908190526040909120908101546003820154600483015460058401546006850154600790950154600160a060020a039094169e929d50909b50995091975095509350505050565b60008060008060008060008060008033600160a060020a0316600160a060020a031681526020019081526020016000206003018981548110151561049057fe5b60009182526020808320909101548252600290526040902060018101546003820154600483015460058401546006850154600790950154600160a060020a039094169e929d50909b50995091975095509350505050565b336000908152602081905260409020805434019055565b336000908152600160209081526040808320600160a060020a0394909416835292905220805460ff19169055565b33600090815260208190526040812080543401905581905b848110156105665761055a898989898887610587565b90830190600101610544565b505050505050505050565b3360009081526020819052604090206003015490565b5050600080547fac33ff75c19e70fe83507db0d683fd3465c996598dc972688b7ace676c89077b805460ff740100000000000000000000000000000000000000008085049190911615150274ff00000000000000000000000000000000000000001973ffffffffffffffffffffffffffffffffffffffff19928316600160a060020a03958616171617909155600180547fac33ff75c19e70fe83507db0d683fd3465c996598dc972688b7ace676c89077c80548416918516919091179055600280547fac33ff75c19e70fe83507db0d683fd3465c996598dc972688b7ace676c89077d805490941690851617909255600380547fac33ff75c19e70fe83507db0d683fd3465c996598dc972688b7ace676c89077e556004547fac33ff75c19e70fe83507db0d683fd3465c996598dc972688b7ace676c89077f556005547fac33ff75c19e70fe83507db0d683fd3465c996598dc972688b7ace676c890780556006547fac33ff75c19e70fe83507db0d683fd3465c996598dc972688b7ace676c890781556007547fac33ff75c19e70fe83507db0d683fd3465c996598dc972688b7ace676c890782556008547fac33ff75c19e70fe83507db0d683fd3465c996598dc972688b7ace676c890783553380865260208681526040808820909501805480860182559088528188200187905599909416808652838620909101805480840182559086528986200185905592845280885281842092845291875282208101805491820181558252948120909401939093555050505600a165627a7a7230582036854e3611a1a5694c63069456ba9adef262d3adb7405e3e6ad2fd03895624b40029",
  "source": "pragma solidity ^0.4.24;\r\n\r\nimport \"./ILedger.sol\";\r\n\r\n/*\r\ncontract NFT is ERC721Token {\r\n\tconstructor NFT() public ERC721Token(\"MTDA\", \"MTD\"){\r\n\r\n\t}\r\n}\r\n*/\r\n\r\ncontract Ledger is ISideA, ISideB {\r\n\t//NFT nft;\r\n\r\n\tstruct UserState {\r\n\t\tuint currentBalance;\r\n\r\n\t\t// TODO: not used right now\r\n\t\taddress currentUnderwriter;\t\r\n\r\n\t\t// uint256 IDs\r\n\t\tuint256[] allAllowances;\r\n\t\tuint256[] allAllowancesFrom;\r\n\t}\r\n\r\n\tstruct Allowance {\r\n\t\t// by default we set the userState.currentUnderwriter\r\n\t\t// can be ZERO!\r\n\t\taddress underwriter;\r\n\r\n\t\t// if Allowance is generated because of overdraft -> i should be able to trasnfer it \r\n\t\t// (sell it or put into collateral)\r\n\t\tbool transferrable;\r\n\r\n\t\t// TODO: transfering ERC721 should update THIS !!!\r\n\t\taddress sideA;\r\n\t\taddress sideB;\r\n\t\tuint amountWei;\r\n\t\tuint overdraftPpm;\r\n\t\tuint interestRatePpm;\r\n\t\tuint periodSeconds;\r\n\t\tuint startingDate;\r\n\r\n\t\tuint erc721tokenId;\r\n\t}\r\n\r\n\tstruct UserToUserState {\r\n\t\t// TODO - write good comment here...\r\n\t\tbool isOverdrafted;\r\n\r\n\t\t// each allowance is connected with Allowance struct in the allowancesMetainfo\r\n\t\tuint256[] allowances;\r\n\t}\r\n\r\n\t// UserA -> UserState\r\n\tmapping (address=>UserState) userState;\r\n\t// UserA -> UserB -> UserToUserState\r\n\tmapping (address=>mapping(address=>UserToUserState)) user2userState;\r\n\t// ERC721 id -> Allowance (main storage of all allowances)\r\n\tmapping (uint256=>Allowance) allowancesMetainfo;\r\n\r\n////////////////////////////////////////////////////////////////////////////////////\r\n\tconstructor() public {\r\n\t}\r\n\r\n\tfunction deposit() public payable{\r\n\t\tuserState[msg.sender].currentBalance += msg.value;\r\n\t}\r\n\r\n\tfunction getDepositBalance() public view returns(uint) {\r\n\t\treturn userState[msg.sender].currentBalance;\r\n\t}\r\n\r\n\tfunction withdraw(uint _amountWei) public {\r\n\t\trequire(_amountWei <= getDepositBalance());\r\n\t\t// TODO: use Safemath here\r\n\t\tuserState[msg.sender].currentBalance-=_amountWei;\r\n\t\tmsg.sender.transfer(_amountWei);\r\n\t}\r\n\r\n\tfunction allowAndDeposit(\r\n\t\taddress _sideB, \r\n\t\tuint _amountWei, \r\n\t\tuint _overdraftPpm, \r\n\t\tuint _interestRatePpm, \r\n\t\tuint _numberOfPeriods, \r\n\t\tuint _periodSeconds, \r\n\t\tuint _startingDate) public payable \r\n\t{\r\n\t\t// 1 - deposit (can be null!)\r\n\t\tuserState[msg.sender].currentBalance += msg.value;\r\n\r\n\t\t// 2 - create N allowances ...\r\n\t\tuint date = _startingDate;\r\n\t\tfor(uint i=0; i<_numberOfPeriods; ++i){\r\n\t\t\t_createNewAllowance(_sideB,\r\n\t\t\t\t\t\t\t_amountWei, \r\n\t\t\t\t\t\t\t_overdraftPpm, \r\n\t\t\t\t\t\t\t_interestRatePpm, \r\n\t\t\t\t\t\t\t_periodSeconds, \r\n\t\t\t\t\t\t\tdate);\r\n\r\n\t\t\tdate += _periodSeconds;\r\n\t\t}\r\n\t}\r\n\r\n\tfunction getMyAllowancesCount() public view returns(uint){\r\n\t\treturn userState[msg.sender].allAllowances.length;\r\n\t}\r\n\r\n\tfunction getMyAllowanceInfo(uint _index) public \r\n\t\tview returns(address sideB, uint amountWei, uint overdraftPpm, uint interestRatePpm, uint periodSeconds, uint startingDate)\r\n\t{\r\n\t\tuint256 erc721id = userState[msg.sender].allAllowances[_index];\r\n\t\tAllowance a = allowancesMetainfo[erc721id];\r\n\r\n\t\tsideB = a.sideB;\r\n\t\tamountWei = a.amountWei;\r\n\t\toverdraftPpm = a.overdraftPpm;\r\n\t\tinterestRatePpm = a.interestRatePpm;\r\n\t\tperiodSeconds = a.periodSeconds;\r\n\t\tstartingDate = a.startingDate;\r\n\t}\r\n\r\n\t// edit each allowance manually \r\n\tfunction editMyAllowance(\r\n\t\tuint _index, \r\n\t\tuint _amountWei, \r\n\t\tuint _overdraftPpm, \r\n\t\tuint _interestRatePpm,\r\n\t\tuint _periodSeconds, \r\n\t\tuint _startingDate) public \r\n\t{\r\n\t\t// TODO: left for the future version\r\n\t}\r\n\r\n// 3 - overdrafted flag\r\n\t// if you have asked for more than current AllowedAmount and less than AllowedAmount + overdraft\r\n\tfunction isOverdrafted(address _sideA, address _sideB) public view returns(bool){\r\n\t\treturn user2userState[_sideA][_sideB].isOverdrafted;\r\n\t}\r\n\r\n\t// should be called by the SideA for the SideB\r\n\tfunction clearOverdraftedFlag(address _sideB) public {\r\n\t\tuser2userState[msg.sender][_sideB].isOverdrafted = false;\r\n\t}\r\n\r\n// SideB\r\n\tfunction getAllowancesCount() public view returns(uint){\r\n\t\treturn userState[msg.sender].allAllowancesFrom.length;\r\n\t}\r\n\r\n\tfunction getAllowanceInfo(uint _index) public \r\n\t\tview returns(address sideA, uint amountWei, uint overdraftPpm, uint interestRatePpm, uint periodSeconds, uint startingDate){\r\n\t\tuint256 erc721id = userState[msg.sender].allAllowancesFrom[_index];\r\n\t\tAllowance a = allowancesMetainfo[erc721id];\r\n\r\n\t\tsideA = a.sideA;\r\n\t\tamountWei = a.amountWei;\r\n\t\toverdraftPpm = a.overdraftPpm;\r\n\t\tinterestRatePpm = a.interestRatePpm;\r\n\t\tperiodSeconds = a.periodSeconds;\r\n\t\tstartingDate = a.startingDate;\r\n\t}\r\n\r\n\t// only for 'transferrable allowances' that were generated automatically in case of overdraft\r\n\tfunction transferAllowance(uint _index, address _to) public {\r\n\t\tuint256 erc721id = userState[msg.sender].allAllowancesFrom[_index];\r\n\t\tAllowance a = allowancesMetainfo[erc721id];\r\n\t\trequire(a.transferrable);\r\n\r\n\t\t// TODO:\r\n\t\t// 1 - move ERC721 token to _to address \r\n\r\n\t\t// 2 - change all internal structs \r\n\t}\r\n\r\n\t// will either return money OR \r\n\t// will return money + generate new allowance (plus interested) to the SideB (me)\r\n\tfunction charge(uint _index, uint _amountWei) public {\r\n\t\t// TODO: \r\n\t}\r\n\r\n//////// Internal stuff\r\n\tfunction _createNewAllowance(address _to,\r\n\t\t\t\t\t\t\tuint _amountWei, \r\n\t\t\t\t\t\t\tuint _overdraftPpm, \r\n\t\t\t\t\t\t\tuint _interestRatePpm, \r\n\t\t\t\t\t\t\tuint _periodSeconds, \r\n\t\t\t\t\t\t\tuint _startingDate) internal \r\n\t{\r\n\t\t// TODO:\r\n\t\t// 1 - issue new ERC721 token \r\n\t\tuint256 newErc721Id = 0x0;\t\t// TODO: generate new ID\r\n\t\t//nft.mint(_to, newId);\r\n\r\n\t\t// 2 - push Allowance struct to allowancesMetainfo\r\n\t\tAllowance a;\r\n\t\tallowancesMetainfo[newErc721Id] = a;\r\n\r\n\t\tuserState[msg.sender].allAllowances.push(newErc721Id);\r\n\t\tuserState[_to].allAllowancesFrom.push(newErc721Id);\r\n\t\t\r\n\t\tuser2userState[msg.sender][_to].allowances.push(newErc721Id);\r\n\t}\r\n}\r\n",
  "sourcePath": "D:\\Projects\\ETHBerlin\\TechnoDebit\\contracts\\Ledger.sol",
  "compiler": {
    "name": "solc",
    "version": "0.4.24+commit.e67f0147.Emscripten.clang"
  },
  "schemaVersion": "2.0.1",
  "updatedAt": "2018-09-08T02:30:38.994Z"
}