{
  "contractName": "StdDaoToken",
  "abi": [
    {
      "constant": true,
      "inputs": [],
      "name": "mintingFinished",
      "outputs": [
        {
          "name": "",
          "type": "bool"
        }
      ],
      "payable": false,
      "stateMutability": "view",
      "type": "function"
    },
    {
      "constant": true,
      "inputs": [],
      "name": "name",
      "outputs": [
        {
          "name": "",
          "type": "string"
        }
      ],
      "payable": false,
      "stateMutability": "view",
      "type": "function"
    },
    {
      "constant": false,
      "inputs": [
        {
          "name": "_spender",
          "type": "address"
        },
        {
          "name": "_value",
          "type": "uint256"
        }
      ],
      "name": "approve",
      "outputs": [
        {
          "name": "",
          "type": "bool"
        }
      ],
      "payable": false,
      "stateMutability": "nonpayable",
      "type": "function"
    },
    {
      "constant": true,
      "inputs": [
        {
          "name": "_eventID",
          "type": "uint256"
        },
        {
          "name": "_for",
          "type": "address"
        }
      ],
      "name": "getBalanceAtEventStart",
      "outputs": [
        {
          "name": "",
          "type": "uint256"
        }
      ],
      "payable": false,
      "stateMutability": "view",
      "type": "function"
    },
    {
      "constant": true,
      "inputs": [],
      "name": "totalSupply",
      "outputs": [
        {
          "name": "",
          "type": "uint256"
        }
      ],
      "payable": false,
      "stateMutability": "view",
      "type": "function"
    },
    {
      "constant": true,
      "inputs": [
        {
          "name": "",
          "type": "uint256"
        }
      ],
      "name": "holders",
      "outputs": [
        {
          "name": "",
          "type": "address"
        }
      ],
      "payable": false,
      "stateMutability": "view",
      "type": "function"
    },
    {
      "constant": true,
      "inputs": [],
      "name": "decimals",
      "outputs": [
        {
          "name": "",
          "type": "uint8"
        }
      ],
      "payable": false,
      "stateMutability": "view",
      "type": "function"
    },
    {
      "constant": true,
      "inputs": [],
      "name": "cap",
      "outputs": [
        {
          "name": "",
          "type": "uint256"
        }
      ],
      "payable": false,
      "stateMutability": "view",
      "type": "function"
    },
    {
      "constant": true,
      "inputs": [],
      "name": "paused",
      "outputs": [
        {
          "name": "",
          "type": "bool"
        }
      ],
      "payable": false,
      "stateMutability": "view",
      "type": "function"
    },
    {
      "constant": false,
      "inputs": [
        {
          "name": "_spender",
          "type": "address"
        },
        {
          "name": "_subtractedValue",
          "type": "uint256"
        }
      ],
      "name": "decreaseApproval",
      "outputs": [
        {
          "name": "success",
          "type": "bool"
        }
      ],
      "payable": false,
      "stateMutability": "nonpayable",
      "type": "function"
    },
    {
      "constant": true,
      "inputs": [
        {
          "name": "_owner",
          "type": "address"
        }
      ],
      "name": "balanceOf",
      "outputs": [
        {
          "name": "",
          "type": "uint256"
        }
      ],
      "payable": false,
      "stateMutability": "view",
      "type": "function"
    },
    {
      "constant": false,
      "inputs": [],
      "name": "renounceOwnership",
      "outputs": [],
      "payable": false,
      "stateMutability": "nonpayable",
      "type": "function"
    },
    {
      "constant": false,
      "inputs": [],
      "name": "startNewEvent",
      "outputs": [
        {
          "name": "",
          "type": "uint256"
        }
      ],
      "payable": false,
      "stateMutability": "nonpayable",
      "type": "function"
    },
    {
      "constant": false,
      "inputs": [],
      "name": "finishMinting",
      "outputs": [
        {
          "name": "",
          "type": "bool"
        }
      ],
      "payable": false,
      "stateMutability": "nonpayable",
      "type": "function"
    },
    {
      "constant": true,
      "inputs": [],
      "name": "owner",
      "outputs": [
        {
          "name": "",
          "type": "address"
        }
      ],
      "payable": false,
      "stateMutability": "view",
      "type": "function"
    },
    {
      "constant": true,
      "inputs": [],
      "name": "symbol",
      "outputs": [
        {
          "name": "",
          "type": "string"
        }
      ],
      "payable": false,
      "stateMutability": "view",
      "type": "function"
    },
    {
      "constant": false,
      "inputs": [
        {
          "name": "_eventID",
          "type": "uint256"
        }
      ],
      "name": "finishEvent",
      "outputs": [],
      "payable": false,
      "stateMutability": "nonpayable",
      "type": "function"
    },
    {
      "constant": false,
      "inputs": [
        {
          "name": "_spender",
          "type": "address"
        },
        {
          "name": "_addedValue",
          "type": "uint256"
        }
      ],
      "name": "increaseApproval",
      "outputs": [
        {
          "name": "success",
          "type": "bool"
        }
      ],
      "payable": false,
      "stateMutability": "nonpayable",
      "type": "function"
    },
    {
      "constant": true,
      "inputs": [
        {
          "name": "_owner",
          "type": "address"
        },
        {
          "name": "_spender",
          "type": "address"
        }
      ],
      "name": "allowance",
      "outputs": [
        {
          "name": "",
          "type": "uint256"
        }
      ],
      "payable": false,
      "stateMutability": "view",
      "type": "function"
    },
    {
      "constant": false,
      "inputs": [
        {
          "name": "_newOwner",
          "type": "address"
        }
      ],
      "name": "transferOwnership",
      "outputs": [],
      "payable": false,
      "stateMutability": "nonpayable",
      "type": "function"
    },
    {
      "inputs": [
        {
          "name": "_name",
          "type": "string"
        },
        {
          "name": "_symbol",
          "type": "string"
        },
        {
          "name": "_decimals",
          "type": "uint8"
        },
        {
          "name": "_isBurnable",
          "type": "bool"
        },
        {
          "name": "_isPausable",
          "type": "bool"
        },
        {
          "name": "_cap",
          "type": "uint256"
        }
      ],
      "payable": false,
      "stateMutability": "nonpayable",
      "type": "constructor"
    },
    {
      "anonymous": false,
      "inputs": [
        {
          "indexed": true,
          "name": "_address",
          "type": "address"
        },
        {
          "indexed": false,
          "name": "_votingID",
          "type": "uint256"
        }
      ],
      "name": "VotingStarted",
      "type": "event"
    },
    {
      "anonymous": false,
      "inputs": [
        {
          "indexed": true,
          "name": "_address",
          "type": "address"
        },
        {
          "indexed": false,
          "name": "_votingID",
          "type": "uint256"
        }
      ],
      "name": "VotingFinished",
      "type": "event"
    },
    {
      "anonymous": false,
      "inputs": [
        {
          "indexed": true,
          "name": "_address",
          "type": "address"
        },
        {
          "indexed": false,
          "name": "_eventID",
          "type": "uint256"
        }
      ],
      "name": "EventStarted",
      "type": "event"
    },
    {
      "anonymous": false,
      "inputs": [
        {
          "indexed": true,
          "name": "_address",
          "type": "address"
        },
        {
          "indexed": false,
          "name": "_eventID",
          "type": "uint256"
        }
      ],
      "name": "EventFinished",
      "type": "event"
    },
    {
      "anonymous": false,
      "inputs": [
        {
          "indexed": true,
          "name": "burner",
          "type": "address"
        },
        {
          "indexed": false,
          "name": "value",
          "type": "uint256"
        }
      ],
      "name": "Burn",
      "type": "event"
    },
    {
      "anonymous": false,
      "inputs": [
        {
          "indexed": true,
          "name": "to",
          "type": "address"
        },
        {
          "indexed": false,
          "name": "amount",
          "type": "uint256"
        }
      ],
      "name": "Mint",
      "type": "event"
    },
    {
      "anonymous": false,
      "inputs": [],
      "name": "MintFinished",
      "type": "event"
    },
    {
      "anonymous": false,
      "inputs": [],
      "name": "Pause",
      "type": "event"
    },
    {
      "anonymous": false,
      "inputs": [],
      "name": "Unpause",
      "type": "event"
    },
    {
      "anonymous": false,
      "inputs": [
        {
          "indexed": true,
          "name": "previousOwner",
          "type": "address"
        }
      ],
      "name": "OwnershipRenounced",
      "type": "event"
    },
    {
      "anonymous": false,
      "inputs": [
        {
          "indexed": true,
          "name": "previousOwner",
          "type": "address"
        },
        {
          "indexed": true,
          "name": "newOwner",
          "type": "address"
        }
      ],
      "name": "OwnershipTransferred",
      "type": "event"
    },
    {
      "anonymous": false,
      "inputs": [
        {
          "indexed": true,
          "name": "owner",
          "type": "address"
        },
        {
          "indexed": true,
          "name": "spender",
          "type": "address"
        },
        {
          "indexed": false,
          "name": "value",
          "type": "uint256"
        }
      ],
      "name": "Approval",
      "type": "event"
    },
    {
      "anonymous": false,
      "inputs": [
        {
          "indexed": true,
          "name": "from",
          "type": "address"
        },
        {
          "indexed": true,
          "name": "to",
          "type": "address"
        },
        {
          "indexed": false,
          "name": "value",
          "type": "uint256"
        }
      ],
      "name": "Transfer",
      "type": "event"
    },
    {
      "constant": false,
      "inputs": [],
      "name": "startNewVoting",
      "outputs": [
        {
          "name": "",
          "type": "uint256"
        }
      ],
      "payable": false,
      "stateMutability": "nonpayable",
      "type": "function"
    },
    {
      "constant": false,
      "inputs": [
        {
          "name": "_votingID",
          "type": "uint256"
        }
      ],
      "name": "finishVoting",
      "outputs": [],
      "payable": false,
      "stateMutability": "nonpayable",
      "type": "function"
    },
    {
      "constant": true,
      "inputs": [
        {
          "name": "_votingID",
          "type": "uint256"
        },
        {
          "name": "_owner",
          "type": "address"
        }
      ],
      "name": "getBalanceAtVoting",
      "outputs": [
        {
          "name": "",
          "type": "uint256"
        }
      ],
      "payable": false,
      "stateMutability": "view",
      "type": "function"
    },
    {
      "constant": false,
      "inputs": [
        {
          "name": "_to",
          "type": "address"
        },
        {
          "name": "_value",
          "type": "uint256"
        }
      ],
      "name": "transfer",
      "outputs": [
        {
          "name": "",
          "type": "bool"
        }
      ],
      "payable": false,
      "stateMutability": "nonpayable",
      "type": "function"
    },
    {
      "constant": false,
      "inputs": [
        {
          "name": "_from",
          "type": "address"
        },
        {
          "name": "_to",
          "type": "address"
        },
        {
          "name": "_value",
          "type": "uint256"
        }
      ],
      "name": "transferFrom",
      "outputs": [
        {
          "name": "",
          "type": "bool"
        }
      ],
      "payable": false,
      "stateMutability": "nonpayable",
      "type": "function"
    },
    {
      "constant": true,
      "inputs": [],
      "name": "getVotingTotalForQuadraticVoting",
      "outputs": [
        {
          "name": "",
          "type": "uint256"
        }
      ],
      "payable": false,
      "stateMutability": "view",
      "type": "function"
    },
    {
      "constant": false,
      "inputs": [
        {
          "name": "_to",
          "type": "address"
        },
        {
          "name": "_amount",
          "type": "uint256"
        }
      ],
      "name": "mint",
      "outputs": [
        {
          "name": "",
          "type": "bool"
        }
      ],
      "payable": false,
      "stateMutability": "nonpayable",
      "type": "function"
    },
    {
      "constant": false,
      "inputs": [
        {
          "name": "_to",
          "type": "address"
        },
        {
          "name": "_amount",
          "type": "uint256"
        }
      ],
      "name": "mintFor",
      "outputs": [
        {
          "name": "",
          "type": "bool"
        }
      ],
      "payable": false,
      "stateMutability": "nonpayable",
      "type": "function"
    },
    {
      "constant": false,
      "inputs": [
        {
          "name": "_value",
          "type": "uint256"
        }
      ],
      "name": "burn",
      "outputs": [],
      "payable": false,
      "stateMutability": "nonpayable",
      "type": "function"
    },
    {
      "constant": false,
      "inputs": [
        {
          "name": "_who",
          "type": "address"
        },
        {
          "name": "_value",
          "type": "uint256"
        }
      ],
      "name": "burnFor",
      "outputs": [],
      "payable": false,
      "stateMutability": "nonpayable",
      "type": "function"
    },
    {
      "constant": false,
      "inputs": [],
      "name": "pause",
      "outputs": [],
      "payable": false,
      "stateMutability": "nonpayable",
      "type": "function"
    },
    {
      "constant": false,
      "inputs": [],
      "name": "unpause",
      "outputs": [],
      "payable": false,
      "stateMutability": "nonpayable",
      "type": "function"
    }
  ],
  "bytecode": "0x60806040526006805460a060020a61ffff02191690553480156200002257600080fd5b5060405162001b2838038062001b288339810160409081528151602080840151928401516060850151608086015160a08701519487018051909796909601959294919390928791879187916200007e916000918601906200013d565b508151620000949060019060208501906200013d565b506002805460ff90921660ff19909216919091179055505060068054600160a060020a0319163317905560008111620000cc57600080fd5b600855600980549115156101000261ff001993151560ff1990931692909217929092161790555050600a80546001810182556000919091527fc65a7bb8d6351c1cf70c95a316cc6a92839c986682d98bc35f958f4883f9d2a8018054600160a060020a0319163017905550620001e2565b828054600181600116156101000203166002900490600052602060002090601f016020900481019282601f106200018057805160ff1916838001178555620001b0565b82800160010185558215620001b0579182015b82811115620001b057825182559160200191906001019062000193565b50620001be929150620001c2565b5090565b620001df91905b80821115620001be5760008155600101620001c9565b90565b61193680620001f26000396000f30060806040526004361061017c5763ffffffff60e060020a60003504166305d2035b811461018157806306fdde03146101aa578063095ea7b314610234578063154b850b1461025857806318160ddd1461028e5780631dd319cb146102a357806323b872dd146102c95780632a11ced0146102f3578063313ce56714610327578063355274ea146103525780633f4ba83a1461036757806340c10f191461037c57806342966c68146103a057806357005109146103b85780635c975abb146103cd57806362b5aff6146103e2578063661884631461040657806370a082311461042a578063715018a61461044b5780637984cd4a146104605780637d64bcb4146104755780638456cb591461048a5780638da5cb5b1461049f57806395d89b41146104b4578063982fb7b8146104c9578063a9059cbb146104e1578063abe7c08e14610505578063c6d30d9c1461051d578063d73dd62314610532578063da1919b314610556578063dd62ed3e1461057a578063f2fde38b146105a1575b600080fd5b34801561018d57600080fd5b506101966105c2565b604080519115158252519081900360200190f35b3480156101b657600080fd5b506101bf6105d2565b6040805160208082528351818301528351919283929083019185019080838360005b838110156101f95781810151838201526020016101e1565b50505050905090810190601f1680156102265780820380516001836020036101000a031916815260200191505b509250505060405180910390f35b34801561024057600080fd5b50610196600160a060020a0360043516602435610660565b34801561026457600080fd5b5061027c600435600160a060020a036024351661068d565b60408051918252519081900360200190f35b34801561029a57600080fd5b5061027c610705565b3480156102af57600080fd5b506102c7600160a060020a036004351660243561070b565b005b3480156102d557600080fd5b50610196600160a060020a0360043581169060243516604435610741565b3480156102ff57600080fd5b5061030b600435610801565b60408051600160a060020a039092168252519081900360200190f35b34801561033357600080fd5b5061033c610829565b6040805160ff9092168252519081900360200190f35b34801561035e57600080fd5b5061027c610832565b34801561037357600080fd5b506102c7610838565b34801561038857600080fd5b50610196600160a060020a036004351660243561086f565b3480156103ac57600080fd5b506102c760043561017c565b3480156103c457600080fd5b5061027c6108a0565b3480156103d957600080fd5b506101966109dd565b3480156103ee57600080fd5b5061027c600435600160a060020a03602435166109ed565b34801561041257600080fd5b50610196600160a060020a03600435166024356109f9565b34801561043657600080fd5b5061027c600160a060020a0360043516610a1d565b34801561045757600080fd5b506102c7610a38565b34801561046c57600080fd5b5061027c610aa6565b34801561048157600080fd5b50610196610b3d565b34801561049657600080fd5b506102c7610bc2565b3480156104ab57600080fd5b5061030b610bf7565b3480156104c057600080fd5b506101bf610c06565b3480156104d557600080fd5b506102c7600435610c60565b3480156104ed57600080fd5b50610196600160a060020a0360043516602435610cd2565b34801561051157600080fd5b506102c7600435610d89565b34801561052957600080fd5b5061027c610de2565b34801561053e57600080fd5b50610196600160a060020a0360043516602435610e43565b34801561056257600080fd5b50610196600160a060020a0360043516602435610e67565b34801561058657600080fd5b5061027c600160a060020a0360043581169060243516610f56565b3480156105ad57600080fd5b506102c7600160a060020a0360043516610f81565b60065460a860020a900460ff1681565b6000805460408051602060026001851615610100026000190190941693909304601f810184900484028201840190925281815292918301828280156106585780601f1061062d57610100808354040283529160200191610658565b820191906000526020600020905b81548152906001019060200180831161063b57829003601f168201915b505050505081565b60065460009060a060020a900460ff161561067a57600080fd5b6106848383610fa4565b90505b92915050565b60008281526007602052604081206001015460ff1615156106ad57600080fd5b6106b7838361100a565b15156106dc5750600160a060020a038116600090815260036020526040902054610687565b506000918252600760209081526040808420600160a060020a0393909316845291905290205490565b60045490565b60095460ff16151561071c57600080fd5b600654600160a060020a0316331461073357600080fd5b61073d828261103d565b5050565b60065460009060a060020a900460ff161561075b57600080fd5b600160a060020a0383166000908152600b602052604090205460ff1615156107ee57600a805460018082019092557fc65a7bb8d6351c1cf70c95a316cc6a92839c986682d98bc35f958f4883f9d2a801805473ffffffffffffffffffffffffffffffffffffffff1916600160a060020a0386169081179091556000908152600b60205260409020805460ff191690911790555b6107f9848484611050565b949350505050565b600a80548290811061080f57fe5b600091825260209091200154600160a060020a0316905081565b60025460ff1681565b60085481565b600954610100900460ff16151561084e57600080fd5b600654600160a060020a0316331461086557600080fd5b61086d611067565b565b60065460009060a860020a900460ff161561088957600080fd5b600654600160a060020a0316331461017c57600080fd5b600080805b600a548110156109d75773__UtilsLib______________________________63677342ce30600160a060020a03166370a08231600a858154811015156108e757fe5b60009182526020808320909101546040805160e060020a63ffffffff8716028152600160a060020a0390921660048301525160248083019491928390030190829087803b15801561093757600080fd5b505af115801561094b573d6000803e3d6000fd5b505050506040513d602081101561096157600080fd5b50516040805160e060020a63ffffffff85160281526004810192909252516024808301926020929190829003018186803b15801561099e57600080fd5b505af41580156109b2573d6000803e3d6000fd5b505050506040513d60208110156109c857600080fd5b505191909101906001016108a5565b50919050565b60065460a060020a900460ff1681565b6000610684838361068d565b60065460009060a060020a900460ff1615610a1357600080fd5b61068483836110df565b600160a060020a031660009081526003602052604090205490565b600654600160a060020a03163314610a4f57600080fd5b600654604051600160a060020a03909116907ff8df31144d9c2f0f6b59d69b8b98abd5459d07f2742c4df920b25aae33c6482090600090a26006805473ffffffffffffffffffffffffffffffffffffffff19169055565b6000805b601481101561017c5760008181526007602052604090206001015460ff161515610b31576000818152600760209081526040918290206001818101805460ff19169091179055426002909101558151838152915133927ff77c6f27499b698205f54058c2914a340e1300c2bc0d9a819e7aebfbaabbbb9392908290030190a2809150610b39565b600101610aaa565b5090565b600654600090600160a060020a03163314610b5757600080fd5b60065460a860020a900460ff1615610b6e57600080fd5b6006805475ff000000000000000000000000000000000000000000191660a860020a1790556040517fae5184fba832cb2b1f702aca6117b8d265eaf03ad33eb133f19dde0f5920fa0890600090a150600190565b600954610100900460ff161515610bd857600080fd5b600654600160a060020a03163314610bef57600080fd5b61086d6111ce565b600654600160a060020a031681565b60018054604080516020600284861615610100026000190190941693909304601f810184900484028201840190925281815292918301828280156106585780601f1061062d57610100808354040283529160200191610658565b60008181526007602052604090206001015460ff161515610c8057600080fd5b600081815260076020908152604091829020600101805460ff191690558151838152915133927ff49d881e799e402df6d3d88bdea3729b3cc3f4f46bb9a70f9be9435f41d8185792908290030190a250565b60065460009060a060020a900460ff1615610cec57600080fd5b600160a060020a0383166000908152600b602052604090205460ff161515610d7f57600a805460018082019092557fc65a7bb8d6351c1cf70c95a316cc6a92839c986682d98bc35f958f4883f9d2a801805473ffffffffffffffffffffffffffffffffffffffff1916600160a060020a0386169081179091556000908152600b60205260409020805460ff191690911790555b610684838361124b565b60065460a060020a900460ff1615610da057600080fd5b610da981610c60565b60408051828152905133917f5b60b15f9c22e96a79775262f4be0afac0552bb88abc5ec341b10f708aa366cf919081900360200190a250565b600654600090819060a060020a900460ff1615610dfe57600080fd5b610e06610aa6565b60408051828152905191925033917ff318b16025413645144ed83c64d2d30f089c10bc263cab68a036c00f011827be9181900360200190a2919050565b60065460009060a060020a900460ff1615610e5d57600080fd5b6106848383611261565b60065460009060a860020a900460ff1615610e8157600080fd5b600654600160a060020a03163314610e9857600080fd5b600854600454610eae908463ffffffff6112fa16565b1115610eb957600080fd5b600160a060020a0383166000908152600b602052604090205460ff161515610f4c57600a805460018082019092557fc65a7bb8d6351c1cf70c95a316cc6a92839c986682d98bc35f958f4883f9d2a801805473ffffffffffffffffffffffffffffffffffffffff1916600160a060020a0386169081179091556000908152600b60205260409020805460ff191690911790555b6106848383611307565b600160a060020a03918216600090815260056020908152604080832093909416825291909152205490565b600654600160a060020a03163314610f9857600080fd5b610fa18161134b565b50565b336000818152600560209081526040808320600160a060020a038716808552908352818420869055815186815291519394909390927f8c5be1e5ebec7d5bd14f71427d1e84f3dd0314c0f7b2291e5b200ac8c7c3b925928290030190a350600192915050565b60008281526007602090815260408083206002810154600160a060020a0386168552925290912060010154101592915050565b611046826113c9565b61073d8282611432565b600061105c8484611521565b6107f9848484611533565b600654600160a060020a0316331461107e57600080fd5b60065460a060020a900460ff16151561109657600080fd5b6006805474ff0000000000000000000000000000000000000000191690556040517f7805862f689e2f13df9f062ff482ad3ad112aca9e0847911ed832e158c525b3390600090a1565b336000908152600560209081526040808320600160a060020a038616845290915281205480831061113357336000908152600560209081526040808320600160a060020a0388168452909152812055611168565b611143818463ffffffff61155816565b336000908152600560209081526040808320600160a060020a03891684529091529020555b336000818152600560209081526040808320600160a060020a0389168085529083529281902054815190815290519293927f8c5be1e5ebec7d5bd14f71427d1e84f3dd0314c0f7b2291e5b200ac8c7c3b925929181900390910190a35060019392505050565b600654600160a060020a031633146111e557600080fd5b60065460a060020a900460ff16156111fc57600080fd5b6006805474ff0000000000000000000000000000000000000000191660a060020a1790556040517f6985a02210a168e66602d3235cb6db0e70f92b3ba4d376a33c0f3d9434bff62590600090a1565b60006112573384611521565b610684838361156a565b336000908152600560209081526040808320600160a060020a0386168452909152812054611295908363ffffffff6112fa16565b336000818152600560209081526040808320600160a060020a0389168085529083529281902085905580519485525191937f8c5be1e5ebec7d5bd14f71427d1e84f3dd0314c0f7b2291e5b200ac8c7c3b925929081900390910190a350600192915050565b8181018281101561068757fe5b60065460009060a860020a900460ff161561132157600080fd5b600654600160a060020a0316331461133857600080fd5b611341836113c9565b610684838361158e565b600160a060020a038116151561136057600080fd5b600654604051600160a060020a038084169216907f8be0079c531659141344cd1fd0a4f28419497f9722a3daafe3b4186f6b6457e090600090a36006805473ffffffffffffffffffffffffffffffffffffffff1916600160a060020a0392909216919091179055565b6000805b601482101561142d576113e08284611688565b9050801561142257600160a060020a03831660008181526003602090815260408083205486845260078352818420948452939091529020908155426001909101555b6001909101906113cd565b505050565b600160a060020a03821660009081526003602052604090205481111561145757600080fd5b600160a060020a038216600090815260036020526040902054611480908263ffffffff61155816565b600160a060020a0383166000908152600360205260409020556004546114ac908263ffffffff61155816565b600455604080518281529051600160a060020a038416917fcc16f5dbb4873280815c1ee09dbd06736cffcc184412cf7a71a0fdb75d397ca5919081900360200190a2604080518281529051600091600160a060020a038516916000805160206118eb8339815191529181900360200190a35050565b61152a816113c9565b61073d826113c9565b60065460009060a060020a900460ff161561154d57600080fd5b6107f98484846116b6565b60008282111561156457fe5b50900390565b60065460009060a060020a900460ff161561158457600080fd5b610684838361181b565b600654600090600160a060020a031633146115a857600080fd5b60065460a860020a900460ff16156115bf57600080fd5b6004546115d2908363ffffffff6112fa16565b600455600160a060020a0383166000908152600360205260409020546115fe908363ffffffff6112fa16565b600160a060020a038416600081815260036020908152604091829020939093558051858152905191927f0f6798a560793a54c3bcfe86a93cde1e73087d944c0ea20544137d412139688592918290030190a2604080518381529051600160a060020a038516916000916000805160206118eb8339815191529181900360200190a350600192915050565b60008281526007602052604081206001015460ff16801561068457506116ae838361100a565b159392505050565b600160a060020a0383166000908152600360205260408120548211156116db57600080fd5b600160a060020a038416600090815260056020908152604080832033845290915290205482111561170b57600080fd5b600160a060020a038316151561172057600080fd5b600160a060020a038416600090815260036020526040902054611749908363ffffffff61155816565b600160a060020a03808616600090815260036020526040808220939093559085168152205461177e908363ffffffff6112fa16565b600160a060020a0380851660009081526003602090815260408083209490945591871681526005825282812033825290915220546117c2908363ffffffff61155816565b600160a060020a03808616600081815260056020908152604080832033845282529182902094909455805186815290519287169391926000805160206118eb833981519152929181900390910190a35060019392505050565b3360009081526003602052604081205482111561183757600080fd5b600160a060020a038316151561184c57600080fd5b3360009081526003602052604090205461186c908363ffffffff61155816565b3360009081526003602052604080822092909255600160a060020a0385168152205461189e908363ffffffff6112fa16565b600160a060020a0384166000818152600360209081526040918290209390935580518581529051919233926000805160206118eb8339815191529281900390910190a3506001929150505600ddf252ad1be2c89b69c2b068fc378daa952ba7f163c4a11628f55a4df523b3efa165627a7a72305820f470a96bf9bb0e6fa7f679f7878f82955ba14ef28301d3cd027ddf2ff7500d570029",
  "source": "pragma solidity ^0.4.22;\n\nimport \"zeppelin-solidity/contracts/token/ERC20/PausableToken.sol\";\nimport \"zeppelin-solidity/contracts/token/ERC20/DetailedERC20.sol\";\n\nimport \"./CopyOnWriteToken.sol\";\nimport \"./ITokenVotingSupport.sol\";\nimport \"../utils/UtilsLib.sol\";\n\n\n/**\n * @title StdDaoToken \n * @dev Currently DaoBase works only with StdDaoToken. It does not support working with \n * plain ERC20 tokens because we need some extra features like mint(), burn() and transferOwnership()\n *\n * EVERY token that is used on Thetta should support these operations:\n * ERC20:\n *\t\tbalanceOf() \n *\t\ttransfer() \n *\n * Non ERC20:\n *\t\ttransferOwnership()\n *\t\tmintFor()\n *\t\tburnFor()\n *    startNewVoting()\n *    finishVoting()\n *    getBalanceAtVoting() \n*/\ncontract StdDaoToken is DetailedERC20, PausableToken, CopyOnWriteToken, ITokenVotingSupport {\n\tuint256 public cap;\n\tbool isBurnable;\n\tbool isPausable;\n\n\taddress[] public holders;\n\tmapping (address => bool) isHolder;\n\n\tmodifier isBurnable_() { \n\t\trequire (isBurnable); \n\t\t_; \n\t}\n\n\tmodifier isPausable_() { \n\t\trequire (isPausable);\n\t\t_; \n\t}\n\n\tevent VotingStarted(address indexed _address, uint _votingID);\n\tevent VotingFinished(address indexed _address, uint _votingID);\n\t\n\tconstructor(string _name, string _symbol, uint8 _decimals, bool _isBurnable, bool _isPausable, uint256 _cap) public\n\t\tDetailedERC20(_name, _symbol, _decimals)\n\t{\n\t\trequire(_cap > 0);\n\t\tcap = _cap;\n\t\tisBurnable = _isBurnable;\n\t\tisPausable = _isPausable;\n\n\t\tholders.push(this);\n\t}\n\n// ITokenVotingSupport implementation\n\t// TODO: VULNERABILITY! no onlyOwner!\n\t/**\n\t* @notice This function should be called only when token not paused\n\t* @return index of the new voting\n\t* @dev should be called when voting started for conservation balances during this voting\n\t*/\n\tfunction startNewVoting() public whenNotPaused returns(uint) {\n\t\tuint idOut = super.startNewEvent();\n\t\temit VotingStarted(msg.sender, idOut);\n\t\treturn idOut;\n\t}\n\n\t// TODO: VULNERABILITY! no onlyOwner!\n\t// update balances from conservation after voting finish\n\t/**\n\t* @notice This function should be called only when token not paused\n\t* @param _votingID id of voting\n\t* @dev update balances from conservation after voting finish\n\t*/\n\tfunction finishVoting(uint _votingID) whenNotPaused public {\n\t\tsuper.finishEvent(_votingID);\n\t\temit VotingFinished(msg.sender, _votingID);\n\t}\n\n\t/**\n\t* @param _votingID id of voting\n\t* @param _owner account\n\t* @return balance of voting for account _owner\n\t*/\n\tfunction getBalanceAtVoting(uint _votingID, address _owner) public view returns (uint256) {\n\t\treturn super.getBalanceAtEventStart(_votingID, _owner);\n\t}\n\n\t/**\n\t* @notice This function should be called only when token not paused\n\t* @param _to address\n\t* @param _value amount of tokens which will be transfered\n\t* @return true\n\t*/\n\tfunction transfer(address _to, uint256 _value) public whenNotPaused returns (bool) {\n\t\tif(!isHolder[_to]) {\n\t\t\tholders.push(_to);\n\t\t\tisHolder[_to] = true;\n\t\t}\n\t\treturn super.transfer(_to, _value);\n\t}\n\n\t// transfer tokens from _from to _to address\n\t/**\n\t* @notice This function should be called only when token not paused\n\t* @param _from address\n\t* @param _to address\n\t* @param _value amount of tokens which will be transfered\n\t* @return true\n\t*/\n\tfunction transferFrom(address _from, address _to, uint256 _value) public whenNotPaused returns (bool) {\n\t\tif(!isHolder[_to]) {\n\t\t\tholders.push(_to);\n\t\t\tisHolder[_to] = true;\n\t\t}\n\t\treturn super.transferFrom(_from, _to, _value);\n\t}\n\n\t/**\n\t* @return amount of total voters\n\t*/\n\tfunction getVotingTotalForQuadraticVoting() public view returns(uint) {\n\t\tuint votersTotal = 0;\n\t\tfor(uint k=0; k<holders.length; k++) {\n\t\t\tvotersTotal += UtilsLib.sqrt(this.balanceOf(holders[k]));\n\t\t}\n\t\treturn votersTotal;\n\t}\n\t\n// MintableToken override\n\t// @dev do not call this method. Instead use mintFor()\n\tfunction mint(address _to, uint256 _amount) canMint onlyOwner public returns(bool) {\n\t\trevert();\n\t}\n\n\t/**\n\t* @notice This function should be called only by owner\n\t* @param _to address\n\t* @param _amount amount of tokens which will be minted\n\t* @return true\n\t*/\n\tfunction mintFor(address _to, uint256 _amount) canMint onlyOwner public returns(bool) {\n\t\trequire(totalSupply_.add(_amount) <= cap);\n\n\t\tif(!isHolder[_to]) {\n\t\t\tholders.push(_to);\n\t\t\tisHolder[_to] = true;\n\t\t}\n\t\treturn super.mint(_to, _amount);\n\t}\n\n// BurnableToken override\n\t// @dev do not call this method. Instead use burnFor()\n\tfunction burn(uint256 _value) public {\n\t\trevert();\n\t}\n\n\t/**\n\t* @notice This function should be called only by owner\n\t* @param _who address\n\t* @param _value amount of tokens which will be burned\n\t*/\n\tfunction burnFor(address _who, uint256 _value) isBurnable_ onlyOwner public {\n\t\tsuper._burn(_who, _value);\n\t}\n\n\t// this is an override of PausableToken method\n\t/**\n\t* @notice This function should be called only by owner\n\t* @dev pause the token\n\t*/\n\tfunction pause() isPausable_ onlyOwner public {\n\t\tsuper.pause();\n\t}\n\n\t// this is an override of PausableToken method\n\t/**\n\t* @notice This function should be called only by owner\n\t* @dev unpause the token\n\t*/\n\tfunction unpause() isPausable_ onlyOwner  public {\n\t\tsuper.unpause();\n\t}\n}\n",
  "sourcePath": "@thetta/core/contracts/tokens/StdDaoToken.sol",
  "compiler": {
    "name": "solc",
    "version": "0.4.24+commit.e67f0147.Emscripten.clang"
  },
  "schemaVersion": "2.0.1",
  "updatedAt": "2018-09-09T07:34:55.778Z"
}