{
  "contractName": "UnderwriterSubsystem",
  "abi": [
    {
      "constant": true,
      "inputs": [],
      "name": "BECOME_UNDERWRITER",
      "outputs": [
        {
          "name": "",
          "type": "bytes32"
        }
      ],
      "payable": false,
      "stateMutability": "view",
      "type": "function"
    },
    {
      "constant": false,
      "inputs": [
        {
          "name": "_newAddress",
          "type": "address"
        }
      ],
      "name": "onUpgrade",
      "outputs": [],
      "payable": false,
      "stateMutability": "nonpayable",
      "type": "function"
    },
    {
      "inputs": [
        {
          "name": "_dao",
          "type": "address"
        }
      ],
      "payable": false,
      "stateMutability": "nonpayable",
      "type": "constructor"
    },
    {
      "anonymous": false,
      "inputs": [
        {
          "indexed": false,
          "name": "_underwriter",
          "type": "address"
        }
      ],
      "name": "BecomeAnUnderwriter",
      "type": "event"
    },
    {
      "anonymous": false,
      "inputs": [
        {
          "indexed": false,
          "name": "_indexInArray",
          "type": "uint256"
        },
        {
          "indexed": false,
          "name": "_underwriterAddress",
          "type": "address"
        },
        {
          "indexed": false,
          "name": "_infoIpfsHash",
          "type": "uint256"
        },
        {
          "indexed": false,
          "name": "_requestIndex",
          "type": "uint256"
        }
      ],
      "name": "RequestedUnderwriter",
      "type": "event"
    },
    {
      "constant": false,
      "inputs": [
        {
          "name": "_a",
          "type": "address"
        }
      ],
      "name": "becomeAnUnderwriter",
      "outputs": [],
      "payable": false,
      "stateMutability": "nonpayable",
      "type": "function"
    },
    {
      "constant": true,
      "inputs": [],
      "name": "getUnderwritersCount",
      "outputs": [
        {
          "name": "count",
          "type": "uint256"
        }
      ],
      "payable": false,
      "stateMutability": "view",
      "type": "function"
    },
    {
      "constant": false,
      "inputs": [
        {
          "name": "_index",
          "type": "uint256"
        }
      ],
      "name": "getUnderwriters",
      "outputs": [
        {
          "name": "underwriter",
          "type": "address"
        }
      ],
      "payable": false,
      "stateMutability": "nonpayable",
      "type": "function"
    },
    {
      "constant": false,
      "inputs": [
        {
          "name": "_underwriterIndex",
          "type": "uint256"
        },
        {
          "name": "_infoIpfsHash",
          "type": "uint256"
        }
      ],
      "name": "wantToSelectUnderwriter",
      "outputs": [],
      "payable": false,
      "stateMutability": "nonpayable",
      "type": "function"
    },
    {
      "constant": true,
      "inputs": [
        {
          "name": "_index",
          "type": "uint256"
        }
      ],
      "name": "getUnderwriterRequestInfo",
      "outputs": [
        {
          "name": "infoIpfsHash",
          "type": "uint256"
        },
        {
          "name": "isAccepted",
          "type": "bool"
        }
      ],
      "payable": false,
      "stateMutability": "view",
      "type": "function"
    },
    {
      "constant": false,
      "inputs": [
        {
          "name": "_index",
          "type": "uint256"
        }
      ],
      "name": "acceptUnderwriterRequest",
      "outputs": [],
      "payable": false,
      "stateMutability": "nonpayable",
      "type": "function"
    }
  ],
  "bytecode": "0x608060405234801561001057600080fd5b506040516020806106c3833981016040818152915160008054600160a060020a031916600160a060020a03808416919091178083557ffb8ec97200000000000000000000000000000000000000000000000000000000855230600486015294519294859491169263fb8ec9729260248084019391929182900301818387803b15801561009b57600080fd5b505af11580156100af573d6000803e3d6000fd5b5050505050506105ff806100c46000396000f30060806040526004361061008d5763ffffffff7c010000000000000000000000000000000000000000000000000000000060003504166307d6c05a8114610092578063544394f2146100c3578063620d4fc9146100ea57806370241b6b1461010d578063b7e1694e14610128578063d4f8edf71461015c578063fa34c84e14610171578063fcce76b714610192575b600080fd5b34801561009e57600080fd5b506100aa6004356101aa565b6040805192835290151560208301528051918290030190f35b3480156100cf57600080fd5b506100d861020e565b60408051918252519081900360200190f35b3480156100f657600080fd5b5061010b600160a060020a0360043516610214565b005b34801561011957600080fd5b5061010b600435602435610377565b34801561013457600080fd5b50610140600435610495565b60408051600160a060020a039092168252519081900360200190f35b34801561016857600080fd5b506100d86104c1565b34801561017d57600080fd5b5061010b600160a060020a03600435166104f6565b34801561019e57600080fd5b5061010b60043561053c565b600254600090819083106101bd57600080fd5b60028054849081106101cb57fe5b90600052602060002090600302016001015491506002838154811015156101ee57fe5b6000918252602090912060026003909202010154919360ff909216925050565b60015490565b604080517f4245434f4d455f554e444552575249544552000000000000000000000000000081528151908190036012018120600080547f22e320f70000000000000000000000000000000000000000000000000000000084523360048501526024840183905293519193600160a060020a0316926322e320f79260448083019360209383900390910190829087803b1580156102af57600080fd5b505af11580156102c3573d6000803e3d6000fd5b505050506040513d60208110156102d957600080fd5b505115156102e657600080fd5b6001805480820182556000919091527fb10e2d527612073b26eecdfd717e6a320cf44b4afac2b0732d9fcbe2b7fa0cf6018054600160a060020a03841673ffffffffffffffffffffffffffffffffffffffff19909116811790915560408051918252517f9c04bb45a27380f83656ea58eaf9ba4e95299855e08e92e0f8543efdf2284a869181900360200190a15050565b600082815560018281556002805460ff1990811680840183558285526003027f405787fa12a823e0f2b7631cc41b3ba8828b3321ca811111fa75cd3aa3bb5ace810187905583547f405787fa12a823e0f2b7631cc41b3ba8828b3321ca811111fa75cd3aa3bb5acf82015591547f405787fa12a823e0f2b7631cc41b3ba8828b3321ca811111fa75cd3aa3bb5ad0909201805460ff9390931615159290911691909117905580547fbe8ab91f9193831495be3494311baae20918cf4b0ae0d33ada7066680affa4aa9185918290811061044c57fe5b6000918252602091829020015460025460408051948552600160a060020a03909216928401929092528281018690526000199091016060830152519081900360800190a1505050565b60006001828154811015156104a657fe5b600091825260209091200154600160a060020a031692915050565b604080517f4245434f4d455f554e44455257524954455200000000000000000000000000008152905190819003601201902081565b600054600160a060020a0316331461050d57600080fd5b6000805473ffffffffffffffffffffffffffffffffffffffff1916600160a060020a0392909216919091179055565b600254600090821061054d57600080fd5b600160028381548110151561055e57fe5b60009182526020909120600390910201548154811061057957fe5b600091825260209091200154600160a060020a0316905033811461059c57600080fd5b60016002838154811015156105ad57fe5b60009182526020909120600390910201600201805460ff191691151591909117905550505600a165627a7a72305820a0974a5c807acfd40b37e497175e86299f003aac77e3d37005a209a8466f92e00029",
  "source": "pragma solidity ^0.4.24;\n\nimport \"./IUnderwriterSubsystem.sol\";\n\nimport \"@thetta/core/contracts/DaoClient.sol\";\nimport \"@thetta/core/contracts/DaoBase.sol\";\n\ncontract UnderwriterSubsystem is IUnderwriterSubsystem, DaoClient {\n\taddress[] underwriters;\n\n\tstruct RequestForUnderwriter {\n\t\tuint indexInArray;\n\t\tuint256 infoIpfsHash;\n\t\tbool acceptedByUnderwriter;\n\t}\n\tRequestForUnderwriter[] rfus;\n\n\tevent BecomeAnUnderwriter(address _underwriter);\n\tevent RequestedUnderwriter(uint _indexInArray, address _underwriterAddress, uint256 _infoIpfsHash, uint _requestIndex);\n\n\tbytes32 public constant BECOME_UNDERWRITER = keccak256(\"BECOME_UNDERWRITER\");\n\n\tconstructor(DaoBase _dao) DaoClient(_dao) {\n\n\t}\n\n// 1 - to become a moderator\n\tfunction becomeAnUnderwriter(address _a)public isCanDo(BECOME_UNDERWRITER){\n\t\t// TODO: check if already in the list)\n\n\t\tunderwriters.push(_a);\n\n\t\temit BecomeAnUnderwriter(_a);\n\t}\n\n// 2 - enumerate requests\n\tfunction getUnderwritersCount()public view returns(uint count){\n\t\treturn underwriters.length;\n\t}\n\tfunction getUnderwriters(uint _index)public returns(address underwriter){\n\t\treturn underwriters[_index];\n\t}\n\t\n// 3 - if SideA wants to select an underwriter\n\tfunction wantToSelectUnderwriter(uint _underwriterIndex, uint256 _infoIpfsHash) public {\n\t\t// TODO: check if already added \n\n\t\tRequestForUnderwriter rfu;\n\t\trfu.indexInArray = _underwriterIndex;\n\t\trfu.infoIpfsHash = _infoIpfsHash;\n\t\trfu.acceptedByUnderwriter = false;\n\n\t\trfus.push(rfu);\n\n\t\temit RequestedUnderwriter(_underwriterIndex, underwriters[_underwriterIndex], _infoIpfsHash, rfus.length - 1);\n\t}\n\n// 4 - Underwriter should accept the request\n\tfunction getUnderwriterRequestInfo(uint _index) public view returns(uint256 infoIpfsHash, bool isAccepted){\n\t\trequire(_index < rfus.length);\n\n\t\tinfoIpfsHash = \trfus[_index].infoIpfsHash;\n\t\tisAccepted = rfus[_index].acceptedByUnderwriter;\n\t}\n\n\tfunction acceptUnderwriterRequest(uint _index) public {\n\t\trequire(_index < rfus.length);\n\t\taddress a = underwriters[rfus[_index].indexInArray];\n\t\trequire(a==msg.sender);\n\n\t\t// i have accepted it\n\t\trfus[_index].acceptedByUnderwriter = true;\n\t}\n}\n\n",
  "sourcePath": "/home/yoni/Devel/TechnoDebit/contracts/UnderwriterSubsystem.sol",
  "compiler": {
    "name": "solc",
    "version": "0.4.24+commit.e67f0147.Emscripten.clang"
  },
  "schemaVersion": "2.0.1",
  "updatedAt": "2018-09-08T22:00:56.398Z"
}