{
  "contractName": "UnderwriterSubsystem",
  "abi": [
    {
      "constant": true,
      "inputs": [],
      "name": "BECOME_UNDERWRITER",
      "outputs": [
        {
          "name": "",
          "type": "bytes32"
        }
      ],
      "payable": false,
      "stateMutability": "view",
      "type": "function"
    },
    {
      "constant": false,
      "inputs": [
        {
          "name": "_newAddress",
          "type": "address"
        }
      ],
      "name": "onUpgrade",
      "outputs": [],
      "payable": false,
      "stateMutability": "nonpayable",
      "type": "function"
    },
    {
      "inputs": [
        {
          "name": "_dao",
          "type": "address"
        }
      ],
      "payable": false,
      "stateMutability": "nonpayable",
      "type": "constructor"
    },
    {
      "anonymous": false,
      "inputs": [
        {
          "indexed": false,
          "name": "_underwriter",
          "type": "address"
        }
      ],
      "name": "BecomeAnUnderwriter",
      "type": "event"
    },
    {
      "anonymous": false,
      "inputs": [
        {
          "indexed": false,
          "name": "_indexInArray",
          "type": "uint256"
        },
        {
          "indexed": false,
          "name": "_underwriterAddress",
          "type": "address"
        },
        {
          "indexed": false,
          "name": "_infoIpfsHash",
          "type": "uint256"
        },
        {
          "indexed": false,
          "name": "_requestIndex",
          "type": "uint256"
        }
      ],
      "name": "RequestedUnderwriter",
      "type": "event"
    },
    {
      "constant": false,
      "inputs": [
        {
          "name": "_a",
          "type": "address"
        }
      ],
      "name": "becomeAnUnderwriter",
      "outputs": [],
      "payable": false,
      "stateMutability": "nonpayable",
      "type": "function"
    },
    {
      "constant": true,
      "inputs": [],
      "name": "getUnderwritersCount",
      "outputs": [
        {
          "name": "count",
          "type": "uint256"
        }
      ],
      "payable": false,
      "stateMutability": "view",
      "type": "function"
    },
    {
      "constant": false,
      "inputs": [
        {
          "name": "_index",
          "type": "uint256"
        }
      ],
      "name": "getUnderwriters",
      "outputs": [
        {
          "name": "underwriter",
          "type": "address"
        }
      ],
      "payable": false,
      "stateMutability": "nonpayable",
      "type": "function"
    },
    {
      "constant": false,
      "inputs": [
        {
          "name": "_underwriterIndex",
          "type": "uint256"
        },
        {
          "name": "_infoIpfsHash",
          "type": "uint256"
        }
      ],
      "name": "wantToSelectUnderwriter",
      "outputs": [],
      "payable": false,
      "stateMutability": "nonpayable",
      "type": "function"
    },
    {
      "constant": true,
      "inputs": [
        {
          "name": "_index",
          "type": "uint256"
        }
      ],
      "name": "getUnderwriterRequestInfo",
      "outputs": [
        {
          "name": "infoIpfsHash",
          "type": "uint256"
        },
        {
          "name": "isAccepted",
          "type": "bool"
        }
      ],
      "payable": false,
      "stateMutability": "view",
      "type": "function"
    },
    {
      "constant": false,
      "inputs": [
        {
          "name": "_index",
          "type": "uint256"
        }
      ],
      "name": "acceptUnderwriterRequest",
      "outputs": [],
      "payable": false,
      "stateMutability": "nonpayable",
      "type": "function"
    }
  ],
  "bytecode": "0x608060405234801561001057600080fd5b506040516020806106c3833981016040818152915160008054600160a060020a031916600160a060020a03808416919091178083557ffb8ec97200000000000000000000000000000000000000000000000000000000855230600486015294519294859491169263fb8ec9729260248084019391929182900301818387803b15801561009b57600080fd5b505af11580156100af573d6000803e3d6000fd5b5050505050506105ff806100c46000396000f30060806040526004361061008d5763ffffffff7c010000000000000000000000000000000000000000000000000000000060003504166307d6c05a8114610092578063544394f2146100c3578063620d4fc9146100ea57806370241b6b1461010d578063b7e1694e14610128578063d4f8edf71461015c578063fa34c84e14610171578063fcce76b714610192575b600080fd5b34801561009e57600080fd5b506100aa6004356101aa565b6040805192835290151560208301528051918290030190f35b3480156100cf57600080fd5b506100d861020e565b60408051918252519081900360200190f35b3480156100f657600080fd5b5061010b600160a060020a0360043516610214565b005b34801561011957600080fd5b5061010b600435602435610377565b34801561013457600080fd5b50610140600435610495565b60408051600160a060020a039092168252519081900360200190f35b34801561016857600080fd5b506100d86104c1565b34801561017d57600080fd5b5061010b600160a060020a03600435166104f6565b34801561019e57600080fd5b5061010b60043561053c565b600254600090819083106101bd57600080fd5b60028054849081106101cb57fe5b90600052602060002090600302016001015491506002838154811015156101ee57fe5b6000918252602090912060026003909202010154919360ff909216925050565b60015490565b604080517f4245434f4d455f554e444552575249544552000000000000000000000000000081528151908190036012018120600080547f22e320f70000000000000000000000000000000000000000000000000000000084523360048501526024840183905293519193600160a060020a0316926322e320f79260448083019360209383900390910190829087803b1580156102af57600080fd5b505af11580156102c3573d6000803e3d6000fd5b505050506040513d60208110156102d957600080fd5b505115156102e657600080fd5b6001805480820182556000919091527fb10e2d527612073b26eecdfd717e6a320cf44b4afac2b0732d9fcbe2b7fa0cf6018054600160a060020a03841673ffffffffffffffffffffffffffffffffffffffff19909116811790915560408051918252517f9c04bb45a27380f83656ea58eaf9ba4e95299855e08e92e0f8543efdf2284a869181900360200190a15050565b600082815560018281556002805460ff1990811680840183558285526003027f405787fa12a823e0f2b7631cc41b3ba8828b3321ca811111fa75cd3aa3bb5ace810187905583547f405787fa12a823e0f2b7631cc41b3ba8828b3321ca811111fa75cd3aa3bb5acf82015591547f405787fa12a823e0f2b7631cc41b3ba8828b3321ca811111fa75cd3aa3bb5ad0909201805460ff9390931615159290911691909117905580547fbe8ab91f9193831495be3494311baae20918cf4b0ae0d33ada7066680affa4aa9185918290811061044c57fe5b6000918252602091829020015460025460408051948552600160a060020a03909216928401929092528281018690526000199091016060830152519081900360800190a1505050565b60006001828154811015156104a657fe5b600091825260209091200154600160a060020a031692915050565b604080517f4245434f4d455f554e44455257524954455200000000000000000000000000008152905190819003601201902081565b600054600160a060020a0316331461050d57600080fd5b6000805473ffffffffffffffffffffffffffffffffffffffff1916600160a060020a0392909216919091179055565b600254600090821061054d57600080fd5b600160028381548110151561055e57fe5b60009182526020909120600390910201548154811061057957fe5b600091825260209091200154600160a060020a0316905033811461059c57600080fd5b60016002838154811015156105ad57fe5b60009182526020909120600390910201600201805460ff191691151591909117905550505600a165627a7a723058200a63836a3e7dca8689725f232d83baafa3c916ee84e7f2661c550b749d8f55030029",
  "source": "pragma solidity ^0.4.24;\r\n\r\nimport \"./IUnderwriterSubsystem.sol\";\r\n\r\nimport \"@thetta/core/contracts/DaoClient.sol\";\r\nimport \"@thetta/core/contracts/DaoBase.sol\";\r\n\r\ncontract UnderwriterSubsystem is IUnderwriterSubsystem, DaoClient {\r\n\taddress[] underwriters;\r\n\r\n\tstruct RequestForUnderwriter {\r\n\t\tuint indexInArray;\r\n\t\tuint256 infoIpfsHash;\r\n\t\tbool acceptedByUnderwriter;\r\n\t}\r\n\tRequestForUnderwriter[] rfus;\r\n\r\n\tevent BecomeAnUnderwriter(address _underwriter);\r\n\tevent RequestedUnderwriter(uint _indexInArray, address _underwriterAddress, uint256 _infoIpfsHash, uint _requestIndex);\r\n\r\n\tbytes32 public constant BECOME_UNDERWRITER = keccak256(\"BECOME_UNDERWRITER\");\r\n\r\n\tconstructor(DaoBase _dao) DaoClient(_dao) {\r\n\r\n\t}\r\n\r\n// 1 - to become a moderator\r\n\tfunction becomeAnUnderwriter(address _a)public isCanDo(BECOME_UNDERWRITER){\r\n\t\t// TODO: check if already in the list)\r\n\r\n\t\tunderwriters.push(_a);\r\n\r\n\t\temit BecomeAnUnderwriter(_a);\r\n\t}\r\n\r\n// 2 - enumerate requests\r\n\tfunction getUnderwritersCount()public view returns(uint count){\r\n\t\treturn underwriters.length;\r\n\t}\r\n\tfunction getUnderwriters(uint _index)public returns(address underwriter){\r\n\t\treturn underwriters[_index];\r\n\t}\r\n\t\r\n// 3 - if SideA wants to select an underwriter\r\n\tfunction wantToSelectUnderwriter(uint _underwriterIndex, uint256 _infoIpfsHash) public {\r\n\t\t// TODO: check if already added \r\n\r\n\t\tRequestForUnderwriter rfu;\r\n\t\trfu.indexInArray = _underwriterIndex;\r\n\t\trfu.infoIpfsHash = _infoIpfsHash;\r\n\t\trfu.acceptedByUnderwriter = false;\r\n\r\n\t\trfus.push(rfu);\r\n\r\n\t\temit RequestedUnderwriter(_underwriterIndex, underwriters[_underwriterIndex], _infoIpfsHash, rfus.length - 1);\r\n\t}\r\n\r\n// 4 - Underwriter should accept the request\r\n\tfunction getUnderwriterRequestInfo(uint _index) public view returns(uint256 infoIpfsHash, bool isAccepted){\r\n\t\trequire(_index < rfus.length);\r\n\r\n\t\tinfoIpfsHash = \trfus[_index].infoIpfsHash;\r\n\t\tisAccepted = rfus[_index].acceptedByUnderwriter;\r\n\t}\r\n\r\n\tfunction acceptUnderwriterRequest(uint _index) public {\r\n\t\trequire(_index < rfus.length);\r\n\t\taddress a = underwriters[rfus[_index].indexInArray];\r\n\t\trequire(a==msg.sender);\r\n\r\n\t\t// i have accepted it\r\n\t\trfus[_index].acceptedByUnderwriter = true;\r\n\t}\r\n}\r\n\r\n",
  "sourcePath": "D:\\Projects\\ETHBerlin\\TechnoDebit\\contracts\\UnderwriterSubsystem.sol",
  "compiler": {
    "name": "solc",
    "version": "0.4.24+commit.e67f0147.Emscripten.clang"
  },
  "schemaVersion": "2.0.1",
  "updatedAt": "2018-09-09T07:34:55.753Z"
}